{
  "address": "0x52D00C843b70f6cADb4f9851776652Ee66c15b88",
  "abi": [
    {
      "inputs": [],
      "stateMutability": "nonpayable",
      "type": "constructor"
    },
    {
      "inputs": [],
      "name": "GameStore_NotOwner",
      "type": "error"
    },
    {
      "inputs": [
        {
          "internalType": "string",
          "name": "",
          "type": "string"
        }
      ],
      "name": "Wallets",
      "outputs": [
        {
          "internalType": "address",
          "name": "",
          "type": "address"
        }
      ],
      "stateMutability": "view",
      "type": "function"
    },
    {
      "inputs": [
        {
          "internalType": "string",
          "name": "name",
          "type": "string"
        },
        {
          "internalType": "address",
          "name": "gameItem",
          "type": "address"
        }
      ],
      "name": "buyItem",
      "outputs": [],
      "stateMutability": "nonpayable",
      "type": "function"
    },
    {
      "inputs": [
        {
          "internalType": "string",
          "name": "walletName",
          "type": "string"
        },
        {
          "internalType": "address",
          "name": "customItem",
          "type": "address"
        }
      ],
      "name": "buyingListedItems",
      "outputs": [],
      "stateMutability": "nonpayable",
      "type": "function"
    },
    {
      "inputs": [
        {
          "internalType": "string",
          "name": "walletName",
          "type": "string"
        },
        {
          "internalType": "string",
          "name": "_name",
          "type": "string"
        },
        {
          "internalType": "string",
          "name": "_typeOf",
          "type": "string"
        },
        {
          "internalType": "uint256",
          "name": "_level",
          "type": "uint256"
        }
      ],
      "name": "createCustomItems",
      "outputs": [],
      "stateMutability": "nonpayable",
      "type": "function"
    },
    {
      "inputs": [
        {
          "internalType": "string",
          "name": "_name",
          "type": "string"
        },
        {
          "internalType": "string",
          "name": "_typeOf",
          "type": "string"
        },
        {
          "internalType": "uint256",
          "name": "_level",
          "type": "uint256"
        },
        {
          "internalType": "uint256",
          "name": "token",
          "type": "uint256"
        }
      ],
      "name": "createItem",
      "outputs": [],
      "stateMutability": "nonpayable",
      "type": "function"
    },
    {
      "inputs": [
        {
          "internalType": "string",
          "name": "name",
          "type": "string"
        }
      ],
      "name": "createWallet",
      "outputs": [],
      "stateMutability": "nonpayable",
      "type": "function"
    },
    {
      "inputs": [
        {
          "internalType": "string",
          "name": "name",
          "type": "string"
        }
      ],
      "name": "getWallet",
      "outputs": [
        {
          "internalType": "address",
          "name": "",
          "type": "address"
        }
      ],
      "stateMutability": "view",
      "type": "function"
    },
    {
      "inputs": [
        {
          "internalType": "address",
          "name": "",
          "type": "address"
        }
      ],
      "name": "listedStoreItemsToToken",
      "outputs": [
        {
          "internalType": "uint256",
          "name": "",
          "type": "uint256"
        }
      ],
      "stateMutability": "view",
      "type": "function"
    },
    {
      "inputs": [
        {
          "internalType": "address",
          "name": "",
          "type": "address"
        }
      ],
      "name": "listedUserMintedItemsToToken",
      "outputs": [
        {
          "internalType": "uint256",
          "name": "",
          "type": "uint256"
        }
      ],
      "stateMutability": "view",
      "type": "function"
    },
    {
      "inputs": [
        {
          "internalType": "uint256",
          "name": "",
          "type": "uint256"
        }
      ],
      "name": "listedUserTradeItemsToItems",
      "outputs": [
        {
          "internalType": "address",
          "name": "trader",
          "type": "address"
        },
        {
          "internalType": "address",
          "name": "item",
          "type": "address"
        },
        {
          "internalType": "address",
          "name": "itemNeeded",
          "type": "address"
        }
      ],
      "stateMutability": "view",
      "type": "function"
    },
    {
      "inputs": [
        {
          "internalType": "string",
          "name": "walletName",
          "type": "string"
        },
        {
          "internalType": "uint256",
          "name": "index",
          "type": "uint256"
        },
        {
          "internalType": "uint256",
          "name": "token",
          "type": "uint256"
        }
      ],
      "name": "listingCustomItems",
      "outputs": [],
      "stateMutability": "nonpayable",
      "type": "function"
    },
    {
      "inputs": [
        {
          "internalType": "string",
          "name": "walletName",
          "type": "string"
        },
        {
          "internalType": "uint256",
          "name": "index",
          "type": "uint256"
        },
        {
          "internalType": "address",
          "name": "tradableItem",
          "type": "address"
        }
      ],
      "name": "listingTradeItems",
      "outputs": [],
      "stateMutability": "nonpayable",
      "type": "function"
    },
    {
      "inputs": [],
      "name": "owner",
      "outputs": [
        {
          "internalType": "address",
          "name": "",
          "type": "address"
        }
      ],
      "stateMutability": "view",
      "type": "function"
    },
    {
      "inputs": [
        {
          "internalType": "uint256",
          "name": "",
          "type": "uint256"
        }
      ],
      "name": "storeCustomItems",
      "outputs": [
        {
          "internalType": "address",
          "name": "",
          "type": "address"
        }
      ],
      "stateMutability": "view",
      "type": "function"
    },
    {
      "inputs": [
        {
          "internalType": "uint256",
          "name": "",
          "type": "uint256"
        }
      ],
      "name": "storeOriginalItems",
      "outputs": [
        {
          "internalType": "address",
          "name": "",
          "type": "address"
        }
      ],
      "stateMutability": "view",
      "type": "function"
    },
    {
      "inputs": [
        {
          "internalType": "string",
          "name": "tradeAcceptorWalletName",
          "type": "string"
        },
        {
          "internalType": "uint256",
          "name": "index",
          "type": "uint256"
        }
      ],
      "name": "tradeItem",
      "outputs": [],
      "stateMutability": "nonpayable",
      "type": "function"
    }
  ],
  "transactionHash": "0xb82bda86cb6e66676b04ca2ae81c6fd3c7a6a587ac78dac1dabbf2f570e4a162",
  "args": [],
  "numDeployments": 7,
  "solcInputHash": "df84db32f1cbfb6b179f07703e56a311",
  "bytecode": "0x60a060405234801561001057600080fd5b503373ffffffffffffffffffffffffffffffffffffffff1660808173ffffffffffffffffffffffffffffffffffffffff16815250506080516153e16100676000396000818161120e015261152001526153e16000f3fe60806040523480156200001157600080fd5b5060043610620001185760003560e01c8063a4e2df6611620000a5578063cea1706c116200006f578063cea1706c146200030f578063da90e7821462000345578063de929b411462000365578063fa01593f146200039b5762000118565b8063a4e2df66146200024b578063c0c692731462000281578063c81034b114620002b7578063cd0178e614620002d75762000118565b806371e2288311620000e757806371e2288314620001b35780637404f1d214620001e95780638da5cb5b14620002095780639d8820c4146200022b5762000118565b80630e1020e8146200011d5780635742cc7514620001535780635a8a1c5014620001735780636fc36b381462000193575b600080fd5b6200013b600480360381019062000135919062002a55565b620003bb565b6040516200014a919062002aeb565b60405180910390f35b6200017160048036038101906200016b919062002b43565b62000404565b005b6200019160048036038101906200018b919062002bda565b62000e44565b005b620001b16004803603810190620001ab919062002c55565b6200120c565b005b620001d16004803603810190620001cb919062002d05565b62001392565b604051620001e0919062002aeb565b60405180910390f35b62000207600480360381019062000201919062002a55565b620013d2565b005b620002136200151e565b60405162000222919062002aeb565b60405180910390f35b62000249600480360381019062000243919062002d37565b62001542565b005b62000269600480360381019062000263919062002a55565b62001950565b60405162000278919062002aeb565b60405180910390f35b6200029f600480360381019062000299919062002d9d565b62001b73565b604051620002ae919062002de0565b60405180910390f35b620002d56004803603810190620002cf919062002dfd565b62001b8b565b005b620002f56004803603810190620002ef919062002d05565b62001f4c565b604051620003069392919062002e78565b60405180910390f35b6200032d600480360381019062000327919062002d9d565b62001fe7565b6040516200033c919062002de0565b60405180910390f35b6200036360048036038101906200035d919062002d37565b62001fff565b005b6200038360048036038101906200037d919062002d05565b62002520565b60405162000392919062002aeb565b60405180910390f35b620003b96004803603810190620003b3919062002eb5565b62002560565b005b6002818051602081018201805184825260208301602085012081835280955050505050506000915054906101000a900473ffffffffffffffffffffffffffffffffffffffff1681565b600073ffffffffffffffffffffffffffffffffffffffff166002836040516200042e919062002ffd565b908152602001604051809103902060009054906101000a900473ffffffffffffffffffffffffffffffffffffffff1673ffffffffffffffffffffffffffffffffffffffff1603620004b6576040517f08c379a0000000000000000000000000000000000000000000000000000000008152600401620004ad906200309d565b60405180910390fd5b6000600283604051620004ca919062002ffd565b908152602001604051809103902060009054906101000a900473ffffffffffffffffffffffffffffffffffffffff1690503373ffffffffffffffffffffffffffffffffffffffff168173ffffffffffffffffffffffffffffffffffffffff1663893d20e86040518163ffffffff1660e01b8152600401602060405180830381865afa1580156200055e573d6000803e3d6000fd5b505050506040513d601f19601f82011682018060405250810190620005849190620030d6565b73ffffffffffffffffffffffffffffffffffffffff1614620005dd576040517f08c379a0000000000000000000000000000000000000000000000000000000008152600401620005d49062003158565b60405180910390fd5b600060058381548110620005f657620005f56200317a565b5b90600052602060002090600302016040518060600160405290816000820160009054906101000a900473ffffffffffffffffffffffffffffffffffffffff1673ffffffffffffffffffffffffffffffffffffffff1673ffffffffffffffffffffffffffffffffffffffff1681526020016001820160009054906101000a900473ffffffffffffffffffffffffffffffffffffffff1673ffffffffffffffffffffffffffffffffffffffff1673ffffffffffffffffffffffffffffffffffffffff1681526020016002820160009054906101000a900473ffffffffffffffffffffffffffffffffffffffff1673ffffffffffffffffffffffffffffffffffffffff1673ffffffffffffffffffffffffffffffffffffffff168152505090506000816000015190506000826020015190506000836040015190508073ffffffffffffffffffffffffffffffffffffffff16632f54bf6e866040518263ffffffff1660e01b815260040162000769919062002aeb565b602060405180830381865afa15801562000787573d6000803e3d6000fd5b505050506040513d601f19601f82011682018060405250810190620007ad9190620031e6565b620007ef576040517f08c379a0000000000000000000000000000000000000000000000000000000008152600401620007e69062003268565b60405180910390fd5b8173ffffffffffffffffffffffffffffffffffffffff166393ba06788686600001516040518363ffffffff1660e01b8152600401620008309291906200328a565b600060405180830381600087803b1580156200084b57600080fd5b505af115801562000860573d6000803e3d6000fd5b505050508073ffffffffffffffffffffffffffffffffffffffff166393ba06788560000151876040518363ffffffff1660e01b8152600401620008a59291906200328a565b600060405180830381600087803b158015620008c057600080fd5b505af1158015620008d5573d6000803e3d6000fd5b505050508473ffffffffffffffffffffffffffffffffffffffff166327346b4282846040518363ffffffff1660e01b8152600401620009169291906200328a565b600060405180830381600087803b1580156200093157600080fd5b505af115801562000946573d6000803e3d6000fd5b505050508273ffffffffffffffffffffffffffffffffffffffff166327346b4283836040518363ffffffff1660e01b8152600401620009879291906200328a565b600060405180830381600087803b158015620009a257600080fd5b505af1158015620009b7573d6000803e3d6000fd5b50505050600060058781548110620009d457620009d36200317a565b5b90600052602060002090600302016040518060600160405290816000820160009054906101000a900473ffffffffffffffffffffffffffffffffffffffff1673ffffffffffffffffffffffffffffffffffffffff1673ffffffffffffffffffffffffffffffffffffffff1681526020016001820160009054906101000a900473ffffffffffffffffffffffffffffffffffffffff1673ffffffffffffffffffffffffffffffffffffffff1673ffffffffffffffffffffffffffffffffffffffff1681526020016002820160009054906101000a900473ffffffffffffffffffffffffffffffffffffffff1673ffffffffffffffffffffffffffffffffffffffff1673ffffffffffffffffffffffffffffffffffffffff168152505090506005600160058054905062000b079190620032e6565b8154811062000b1b5762000b1a6200317a565b5b90600052602060002090600302016005888154811062000b405762000b3f6200317a565b5b90600052602060002090600302016000820160009054906101000a900473ffffffffffffffffffffffffffffffffffffffff168160000160006101000a81548173ffffffffffffffffffffffffffffffffffffffff021916908373ffffffffffffffffffffffffffffffffffffffff1602179055506001820160009054906101000a900473ffffffffffffffffffffffffffffffffffffffff168160010160006101000a81548173ffffffffffffffffffffffffffffffffffffffff021916908373ffffffffffffffffffffffffffffffffffffffff1602179055506002820160009054906101000a900473ffffffffffffffffffffffffffffffffffffffff168160020160006101000a81548173ffffffffffffffffffffffffffffffffffffffff021916908373ffffffffffffffffffffffffffffffffffffffff160217905550905050806005600160058054905062000c9d9190620032e6565b8154811062000cb15762000cb06200317a565b5b906000526020600020906003020160008201518160000160006101000a81548173ffffffffffffffffffffffffffffffffffffffff021916908373ffffffffffffffffffffffffffffffffffffffff16021790555060208201518160010160006101000a81548173ffffffffffffffffffffffffffffffffffffffff021916908373ffffffffffffffffffffffffffffffffffffffff16021790555060408201518160020160006101000a81548173ffffffffffffffffffffffffffffffffffffffff021916908373ffffffffffffffffffffffffffffffffffffffff160217905550905050600580548062000dac5762000dab62003321565b5b6001900381819060005260206000209060030201600080820160006101000a81549073ffffffffffffffffffffffffffffffffffffffff02191690556001820160006101000a81549073ffffffffffffffffffffffffffffffffffffffff02191690556002820160006101000a81549073ffffffffffffffffffffffffffffffffffffffff0219169055505090555050505050505050565b600073ffffffffffffffffffffffffffffffffffffffff1660028460405162000e6e919062002ffd565b908152602001604051809103902060009054906101000a900473ffffffffffffffffffffffffffffffffffffffff1673ffffffffffffffffffffffffffffffffffffffff160362000ef6576040517f08c379a000000000000000000000000000000000000000000000000000000000815260040162000eed906200309d565b60405180910390fd5b600060028460405162000f0a919062002ffd565b908152602001604051809103902060009054906101000a900473ffffffffffffffffffffffffffffffffffffffff1690503373ffffffffffffffffffffffffffffffffffffffff168173ffffffffffffffffffffffffffffffffffffffff1663893d20e86040518163ffffffff1660e01b8152600401602060405180830381865afa15801562000f9e573d6000803e3d6000fd5b505050506040513d601f19601f8201168201806040525081019062000fc49190620030d6565b73ffffffffffffffffffffffffffffffffffffffff16146200101d576040517f08c379a0000000000000000000000000000000000000000000000000000000008152600401620010149062003158565b60405180910390fd5b60008173ffffffffffffffffffffffffffffffffffffffff16633129e773856040518263ffffffff1660e01b81526004016200105a919062002de0565b602060405180830381865afa15801562001078573d6000803e3d6000fd5b505050506040513d601f19601f820116820180604052508101906200109e9190620030d6565b9050600060405180606001604052808473ffffffffffffffffffffffffffffffffffffffff1681526020018373ffffffffffffffffffffffffffffffffffffffff1681526020018573ffffffffffffffffffffffffffffffffffffffff168152509050600581908060018154018082558091505060019003906000526020600020906003020160009091909190915060008201518160000160006101000a81548173ffffffffffffffffffffffffffffffffffffffff021916908373ffffffffffffffffffffffffffffffffffffffff16021790555060208201518160010160006101000a81548173ffffffffffffffffffffffffffffffffffffffff021916908373ffffffffffffffffffffffffffffffffffffffff16021790555060408201518160020160006101000a81548173ffffffffffffffffffffffffffffffffffffffff021916908373ffffffffffffffffffffffffffffffffffffffff1602179055505050505050505050565b7f000000000000000000000000000000000000000000000000000000000000000073ffffffffffffffffffffffffffffffffffffffff163373ffffffffffffffffffffffffffffffffffffffff161462001292576040517fb39a50da00000000000000000000000000000000000000000000000000000000815260040160405180910390fd5b6000848484604051620012a590620028c3565b620012b393929190620033e1565b604051809103906000f080158015620012d0573d6000803e3d6000fd5b5090506000819080600181540180825580915050600190039060005260206000200160009091909190916101000a81548173ffffffffffffffffffffffffffffffffffffffff021916908373ffffffffffffffffffffffffffffffffffffffff1602179055506305f5e1008262001348919062003441565b600360008373ffffffffffffffffffffffffffffffffffffffff1673ffffffffffffffffffffffffffffffffffffffff168152602001908152602001600020819055505050505050565b60018181548110620013a357600080fd5b906000526020600020016000915054906101000a900473ffffffffffffffffffffffffffffffffffffffff1681565b600073ffffffffffffffffffffffffffffffffffffffff16600282604051620013fc919062002ffd565b908152602001604051809103902060009054906101000a900473ffffffffffffffffffffffffffffffffffffffff1673ffffffffffffffffffffffffffffffffffffffff161462001484576040517f08c379a00000000000000000000000000000000000000000000000000000000081526004016200147b90620034dc565b60405180910390fd5b336040516200149390620028d1565b6200149f919062002aeb565b604051809103906000f080158015620014bc573d6000803e3d6000fd5b50600282604051620014cf919062002ffd565b908152602001604051809103902060006101000a81548173ffffffffffffffffffffffffffffffffffffffff021916908373ffffffffffffffffffffffffffffffffffffffff16021790555050565b7f000000000000000000000000000000000000000000000000000000000000000081565b600073ffffffffffffffffffffffffffffffffffffffff166002836040516200156c919062002ffd565b908152602001604051809103902060009054906101000a900473ffffffffffffffffffffffffffffffffffffffff1673ffffffffffffffffffffffffffffffffffffffff16141580156200160057506000600360008373ffffffffffffffffffffffffffffffffffffffff1673ffffffffffffffffffffffffffffffffffffffff1681526020019081526020016000205414155b62001642576040517f08c379a000000000000000000000000000000000000000000000000000000000815260040162001639906200309d565b60405180910390fd5b600060028360405162001656919062002ffd565b908152602001604051809103902060009054906101000a900473ffffffffffffffffffffffffffffffffffffffff1690503373ffffffffffffffffffffffffffffffffffffffff168173ffffffffffffffffffffffffffffffffffffffff1663893d20e86040518163ffffffff1660e01b8152600401602060405180830381865afa158015620016ea573d6000803e3d6000fd5b505050506040513d601f19601f82011682018060405250810190620017109190620030d6565b73ffffffffffffffffffffffffffffffffffffffff16148015620017e45750600360008373ffffffffffffffffffffffffffffffffffffffff1673ffffffffffffffffffffffffffffffffffffffff168152602001908152602001600020548173ffffffffffffffffffffffffffffffffffffffff1663564b28a06040518163ffffffff1660e01b8152600401602060405180830381865afa158015620017bb573d6000803e3d6000fd5b505050506040513d601f19601f82011682018060405250810190620017e1919062003515565b10155b62001826576040517f08c379a00000000000000000000000000000000000000000000000000000000081526004016200181d9062003158565b60405180910390fd5b60008290508073ffffffffffffffffffffffffffffffffffffffff16637065cb48836040518263ffffffff1660e01b815260040162001866919062002aeb565b600060405180830381600087803b1580156200188157600080fd5b505af115801562001896573d6000803e3d6000fd5b505050508173ffffffffffffffffffffffffffffffffffffffff16639f37092a82600360008773ffffffffffffffffffffffffffffffffffffffff1673ffffffffffffffffffffffffffffffffffffffff168152602001908152602001600020546040518363ffffffff1660e01b81526004016200191692919062003547565b600060405180830381600087803b1580156200193157600080fd5b505af115801562001946573d6000803e3d6000fd5b5050505050505050565b60008073ffffffffffffffffffffffffffffffffffffffff166002836040516200197b919062002ffd565b908152602001604051809103902060009054906101000a900473ffffffffffffffffffffffffffffffffffffffff1673ffffffffffffffffffffffffffffffffffffffff160362001a03576040517f08c379a0000000000000000000000000000000000000000000000000000000008152600401620019fa90620035c4565b60405180910390fd5b600060028360405162001a17919062002ffd565b908152602001604051809103902060009054906101000a900473ffffffffffffffffffffffffffffffffffffffff1690503373ffffffffffffffffffffffffffffffffffffffff168173ffffffffffffffffffffffffffffffffffffffff1663893d20e86040518163ffffffff1660e01b8152600401602060405180830381865afa15801562001aab573d6000803e3d6000fd5b505050506040513d601f19601f8201168201806040525081019062001ad19190620030d6565b73ffffffffffffffffffffffffffffffffffffffff161462001b2a576040517f08c379a000000000000000000000000000000000000000000000000000000000815260040162001b219062003158565b60405180910390fd5b60028360405162001b3c919062002ffd565b908152602001604051809103902060009054906101000a900473ffffffffffffffffffffffffffffffffffffffff16915050919050565b60036020528060005260406000206000915090505481565b600073ffffffffffffffffffffffffffffffffffffffff1660028460405162001bb5919062002ffd565b908152602001604051809103902060009054906101000a900473ffffffffffffffffffffffffffffffffffffffff1673ffffffffffffffffffffffffffffffffffffffff160362001c3d576040517f08c379a000000000000000000000000000000000000000000000000000000000815260040162001c34906200309d565b60405180910390fd5b600060028460405162001c51919062002ffd565b908152602001604051809103902060009054906101000a900473ffffffffffffffffffffffffffffffffffffffff1690503373ffffffffffffffffffffffffffffffffffffffff168173ffffffffffffffffffffffffffffffffffffffff1663893d20e86040518163ffffffff1660e01b8152600401602060405180830381865afa15801562001ce5573d6000803e3d6000fd5b505050506040513d601f19601f8201168201806040525081019062001d0b9190620030d6565b73ffffffffffffffffffffffffffffffffffffffff161462001d64576040517f08c379a000000000000000000000000000000000000000000000000000000000815260040162001d5b9062003158565b60405180910390fd5b60008173ffffffffffffffffffffffffffffffffffffffff16633129e773856040518263ffffffff1660e01b815260040162001da1919062002de0565b602060405180830381865afa15801562001dbf573d6000803e3d6000fd5b505050506040513d601f19601f8201168201806040525081019062001de59190620030d6565b905060405160200162001df890620035e6565b604051602081830303815290604052805190602001208173ffffffffffffffffffffffffffffffffffffffff16630d8e6e2c6040518163ffffffff1660e01b8152600401600060405180830381865afa15801562001e5a573d6000803e3d6000fd5b505050506040513d6000823e3d601f19601f8201168201806040525081019062001e85919062003686565b60405160200162001e979190620036d7565b604051602081830303815290604052805190602001200362001ef0576040517f08c379a000000000000000000000000000000000000000000000000000000000815260040162001ee7906200374b565b60405180910390fd5b6305f5e1008362001f02919062003441565b600460008373ffffffffffffffffffffffffffffffffffffffff1673ffffffffffffffffffffffffffffffffffffffff168152602001908152602001600020819055505050505050565b6005818154811062001f5d57600080fd5b90600052602060002090600302016000915090508060000160009054906101000a900473ffffffffffffffffffffffffffffffffffffffff16908060010160009054906101000a900473ffffffffffffffffffffffffffffffffffffffff16908060020160009054906101000a900473ffffffffffffffffffffffffffffffffffffffff16905083565b60046020528060005260406000206000915090505481565b600073ffffffffffffffffffffffffffffffffffffffff1660028360405162002029919062002ffd565b908152602001604051809103902060009054906101000a900473ffffffffffffffffffffffffffffffffffffffff1673ffffffffffffffffffffffffffffffffffffffff1603620020b1576040517f08c379a0000000000000000000000000000000000000000000000000000000008152600401620020a8906200309d565b60405180910390fd5b6000600283604051620020c5919062002ffd565b908152602001604051809103902060009054906101000a900473ffffffffffffffffffffffffffffffffffffffff1690503373ffffffffffffffffffffffffffffffffffffffff168173ffffffffffffffffffffffffffffffffffffffff1663893d20e86040518163ffffffff1660e01b8152600401602060405180830381865afa15801562002159573d6000803e3d6000fd5b505050506040513d601f19601f820116820180604052508101906200217f9190620030d6565b73ffffffffffffffffffffffffffffffffffffffff16148015620022535750600460008373ffffffffffffffffffffffffffffffffffffffff1673ffffffffffffffffffffffffffffffffffffffff168152602001908152602001600020548173ffffffffffffffffffffffffffffffffffffffff1663564b28a06040518163ffffffff1660e01b8152600401602060405180830381865afa1580156200222a573d6000803e3d6000fd5b505050506040513d601f19601f8201168201806040525081019062002250919062003515565b10155b62002295576040517f08c379a00000000000000000000000000000000000000000000000000000000081526004016200228c90620037e3565b60405180910390fd5b60008290508073ffffffffffffffffffffffffffffffffffffffff1663025e7c2760006040518263ffffffff1660e01b8152600401620022d6919062003852565b602060405180830381865afa158015620022f4573d6000803e3d6000fd5b505050506040513d601f19601f820116820180604052508101906200231a9190620030d6565b73ffffffffffffffffffffffffffffffffffffffff168273ffffffffffffffffffffffffffffffffffffffff1663893d20e86040518163ffffffff1660e01b8152600401602060405180830381865afa1580156200237c573d6000803e3d6000fd5b505050506040513d601f19601f82011682018060405250810190620023a29190620030d6565b73ffffffffffffffffffffffffffffffffffffffff1603620023fb576040517f08c379a0000000000000000000000000000000000000000000000000000000008152600401620023f290620038e5565b60405180910390fd5b8073ffffffffffffffffffffffffffffffffffffffff16637065cb48836040518263ffffffff1660e01b815260040162002436919062002aeb565b600060405180830381600087803b1580156200245157600080fd5b505af115801562002466573d6000803e3d6000fd5b505050508173ffffffffffffffffffffffffffffffffffffffff16639f37092a82600460008773ffffffffffffffffffffffffffffffffffffffff1673ffffffffffffffffffffffffffffffffffffffff168152602001908152602001600020546040518363ffffffff1660e01b8152600401620024e692919062003547565b600060405180830381600087803b1580156200250157600080fd5b505af115801562002516573d6000803e3d6000fd5b5050505050505050565b600081815481106200253157600080fd5b906000526020600020016000915054906101000a900473ffffffffffffffffffffffffffffffffffffffff1681565b600073ffffffffffffffffffffffffffffffffffffffff166002856040516200258a919062002ffd565b908152602001604051809103902060009054906101000a900473ffffffffffffffffffffffffffffffffffffffff1673ffffffffffffffffffffffffffffffffffffffff160362002612576040517f08c379a000000000000000000000000000000000000000000000000000000000815260040162002609906200309d565b60405180910390fd5b600060028560405162002626919062002ffd565b908152602001604051809103902060009054906101000a900473ffffffffffffffffffffffffffffffffffffffff1690503373ffffffffffffffffffffffffffffffffffffffff168173ffffffffffffffffffffffffffffffffffffffff1663893d20e86040518163ffffffff1660e01b8152600401602060405180830381865afa158015620026ba573d6000803e3d6000fd5b505050506040513d601f19601f82011682018060405250810190620026e09190620030d6565b73ffffffffffffffffffffffffffffffffffffffff161462002739576040517f08c379a0000000000000000000000000000000000000000000000000000000008152600401620027309062003158565b60405180910390fd5b60008484846040516200274c90620028c3565b6200275a9392919062003957565b604051809103906000f08015801562002777573d6000803e3d6000fd5b5090506001819080600181540180825580915050600190039060005260206000200160009091909190916101000a81548173ffffffffffffffffffffffffffffffffffffffff021916908373ffffffffffffffffffffffffffffffffffffffff1602179055508073ffffffffffffffffffffffffffffffffffffffff16637065cb48836040518263ffffffff1660e01b815260040162002818919062002aeb565b600060405180830381600087803b1580156200283357600080fd5b505af115801562002848573d6000803e3d6000fd5b505050508173ffffffffffffffffffffffffffffffffffffffff16633112a97b826040518263ffffffff1660e01b815260040162002887919062002aeb565b600060405180830381600087803b158015620028a257600080fd5b505af1158015620028b7573d6000803e3d6000fd5b50505050505050505050565b6111f980620039b883390190565b6107fb8062004bb183390190565b6000604051905090565b600080fd5b600080fd5b600080fd5b600080fd5b6000601f19601f8301169050919050565b7f4e487b7100000000000000000000000000000000000000000000000000000000600052604160045260246000fd5b6200294882620028fd565b810181811067ffffffffffffffff821117156200296a57620029696200290e565b5b80604052505050565b60006200297f620028df565b90506200298d82826200293d565b919050565b600067ffffffffffffffff821115620029b057620029af6200290e565b5b620029bb82620028fd565b9050602081019050919050565b82818337600083830152505050565b6000620029ee620029e88462002992565b62002973565b90508281526020810184848401111562002a0d5762002a0c620028f8565b5b62002a1a848285620029c8565b509392505050565b600082601f83011262002a3a5762002a39620028f3565b5b813562002a4c848260208601620029d7565b91505092915050565b60006020828403121562002a6e5762002a6d620028e9565b5b600082013567ffffffffffffffff81111562002a8f5762002a8e620028ee565b5b62002a9d8482850162002a22565b91505092915050565b600073ffffffffffffffffffffffffffffffffffffffff82169050919050565b600062002ad38262002aa6565b9050919050565b62002ae58162002ac6565b82525050565b600060208201905062002b02600083018462002ada565b92915050565b6000819050919050565b62002b1d8162002b08565b811462002b2957600080fd5b50565b60008135905062002b3d8162002b12565b92915050565b6000806040838503121562002b5d5762002b5c620028e9565b5b600083013567ffffffffffffffff81111562002b7e5762002b7d620028ee565b5b62002b8c8582860162002a22565b925050602062002b9f8582860162002b2c565b9150509250929050565b62002bb48162002ac6565b811462002bc057600080fd5b50565b60008135905062002bd48162002ba9565b92915050565b60008060006060848603121562002bf65762002bf5620028e9565b5b600084013567ffffffffffffffff81111562002c175762002c16620028ee565b5b62002c258682870162002a22565b935050602062002c388682870162002b2c565b925050604062002c4b8682870162002bc3565b9150509250925092565b6000806000806080858703121562002c725762002c71620028e9565b5b600085013567ffffffffffffffff81111562002c935762002c92620028ee565b5b62002ca18782880162002a22565b945050602085013567ffffffffffffffff81111562002cc55762002cc4620028ee565b5b62002cd38782880162002a22565b935050604062002ce68782880162002b2c565b925050606062002cf98782880162002b2c565b91505092959194509250565b60006020828403121562002d1e5762002d1d620028e9565b5b600062002d2e8482850162002b2c565b91505092915050565b6000806040838503121562002d515762002d50620028e9565b5b600083013567ffffffffffffffff81111562002d725762002d71620028ee565b5b62002d808582860162002a22565b925050602062002d938582860162002bc3565b9150509250929050565b60006020828403121562002db65762002db5620028e9565b5b600062002dc68482850162002bc3565b91505092915050565b62002dda8162002b08565b82525050565b600060208201905062002df7600083018462002dcf565b92915050565b60008060006060848603121562002e195762002e18620028e9565b5b600084013567ffffffffffffffff81111562002e3a5762002e39620028ee565b5b62002e488682870162002a22565b935050602062002e5b8682870162002b2c565b925050604062002e6e8682870162002b2c565b9150509250925092565b600060608201905062002e8f600083018662002ada565b62002e9e602083018562002ada565b62002ead604083018462002ada565b949350505050565b6000806000806080858703121562002ed25762002ed1620028e9565b5b600085013567ffffffffffffffff81111562002ef35762002ef2620028ee565b5b62002f018782880162002a22565b945050602085013567ffffffffffffffff81111562002f255762002f24620028ee565b5b62002f338782880162002a22565b935050604085013567ffffffffffffffff81111562002f575762002f56620028ee565b5b62002f658782880162002a22565b925050606062002f788782880162002b2c565b91505092959194509250565b600081519050919050565b600081905092915050565b60005b8381101562002fba57808201518184015260208101905062002f9d565b60008484015250505050565b600062002fd38262002f84565b62002fdf818562002f8f565b935062002ff181856020860162002f9a565b80840191505092915050565b60006200300b828462002fc6565b915081905092915050565b600082825260208201905092915050565b7f57616c6c6574206f722067616d65206974656d20646f6573206e6f742065786960008201527f7374212100000000000000000000000000000000000000000000000000000000602082015250565b60006200308560248362003016565b9150620030928262003027565b604082019050919050565b60006020820190508181036000830152620030b88162003076565b9050919050565b600081519050620030d08162002ba9565b92915050565b600060208284031215620030ef57620030ee620028e9565b5b6000620030ff84828501620030bf565b91505092915050565b7f57616c6c6574206973206e6f74206f776e656420627920796f75212121000000600082015250565b600062003140601d8362003016565b91506200314d8262003108565b602082019050919050565b60006020820190508181036000830152620031738162003131565b9050919050565b7f4e487b7100000000000000000000000000000000000000000000000000000000600052603260045260246000fd5b60008115159050919050565b620031c081620031a9565b8114620031cc57600080fd5b50565b600081519050620031e081620031b5565b92915050565b600060208284031215620031ff57620031fe620028e9565b5b60006200320f84828501620031cf565b91505092915050565b7f596f7520646f6e27742068617665207265717569726564206974656d21212121600082015250565b60006200325060208362003016565b91506200325d8262003218565b602082019050919050565b60006020820190508181036000830152620032838162003241565b9050919050565b6000604082019050620032a1600083018562002ada565b620032b0602083018462002ada565b9392505050565b7f4e487b7100000000000000000000000000000000000000000000000000000000600052601160045260246000fd5b6000620032f38262002b08565b9150620033008362002b08565b92508282039050818111156200331b576200331a620032b7565b5b92915050565b7f4e487b7100000000000000000000000000000000000000000000000000000000600052603160045260246000fd5b60006200335d8262002f84565b62003369818562003016565b93506200337b81856020860162002f9a565b6200338681620028fd565b840191505092915050565b7f636c617373696300000000000000000000000000000000000000000000000000600082015250565b6000620033c960078362003016565b9150620033d68262003391565b602082019050919050565b60006080820190508181036000830152620033fd818662003350565b9050818103602083015262003413818562003350565b905062003424604083018462002dcf565b81810360608301526200343781620033ba565b9050949350505050565b60006200344e8262002b08565b91506200345b8362002b08565b92508282026200346b8162002b08565b91508282048414831517620034855762003484620032b7565b5b5092915050565b7f57616c6c65742065786973742121000000000000000000000000000000000000600082015250565b6000620034c4600e8362003016565b9150620034d1826200348c565b602082019050919050565b60006020820190508181036000830152620034f781620034b5565b9050919050565b6000815190506200350f8162002b12565b92915050565b6000602082840312156200352e576200352d620028e9565b5b60006200353e84828501620034fe565b91505092915050565b60006040820190506200355e600083018562002ada565b6200356d602083018462002dcf565b9392505050565b7f57616c6c657420646f6573206e6f742065786973742121000000000000000000600082015250565b6000620035ac60178362003016565b9150620035b98262003574565b602082019050919050565b60006020820190508181036000830152620035df816200359d565b9050919050565b600060208201905081810360008301526200360181620033ba565b9050919050565b60006200361f620036198462002992565b62002973565b9050828152602081018484840111156200363e576200363d620028f8565b5b6200364b84828562002f9a565b509392505050565b600082601f8301126200366b576200366a620028f3565b5b81516200367d84826020860162003608565b91505092915050565b6000602082840312156200369f576200369e620028e9565b5b600082015167ffffffffffffffff811115620036c057620036bf620028ee565b5b620036ce8482850162003653565b91505092915050565b60006020820190508181036000830152620036f3818462003350565b905092915050565b7f4f6e6c7920437573746f6d204974656d2063616e206265206c69737465640000600082015250565b600062003733601e8362003016565b91506200374082620036fb565b602082019050919050565b60006020820190508181036000830152620037668162003724565b9050919050565b7f57616c6c6574206973206e6f74206f776e656420627920796f75206f7220796f60008201527f7520646f6e2774206861766520656e6f75676820746f6b656e73212121000000602082015250565b6000620037cb603d8362003016565b9150620037d8826200376d565b604082019050919050565b60006020820190508181036000830152620037fe81620037bc565b9050919050565b6000819050919050565b6000819050919050565b60006200383a620038346200382e8462003805565b6200380f565b62002b08565b9050919050565b6200384c8162003819565b82525050565b600060208201905062003869600083018462003841565b92915050565b7f4974656d2043726561746f722063616e6e6f742062757920637573746f6d206960008201527f74656d2121210000000000000000000000000000000000000000000000000000602082015250565b6000620038cd60268362003016565b9150620038da826200386f565b604082019050919050565b600060208201905081810360008301526200390081620038be565b9050919050565b7f637573746f6d0000000000000000000000000000000000000000000000000000600082015250565b60006200393f60068362003016565b91506200394c8262003907565b602082019050919050565b6000608082019050818103600083015262003973818662003350565b9050818103602083015262003989818562003350565b90506200399a604083018462002dcf565b8181036060830152620039ad8162003930565b905094935050505056fe60806040523480156200001157600080fd5b50604051620011f9380380620011f983398181016040528101906200003791906200024c565b83600190816200004891906200055c565b5082600290816200005a91906200055c565b508160038190555080600490816200007391906200055c565b505050505062000643565b6000604051905090565b600080fd5b600080fd5b600080fd5b600080fd5b6000601f19601f8301169050919050565b7f4e487b7100000000000000000000000000000000000000000000000000000000600052604160045260246000fd5b620000e7826200009c565b810181811067ffffffffffffffff82111715620001095762000108620000ad565b5b80604052505050565b60006200011e6200007e565b90506200012c8282620000dc565b919050565b600067ffffffffffffffff8211156200014f576200014e620000ad565b5b6200015a826200009c565b9050602081019050919050565b60005b83811015620001875780820151818401526020810190506200016a565b60008484015250505050565b6000620001aa620001a48462000131565b62000112565b905082815260208101848484011115620001c957620001c862000097565b5b620001d684828562000167565b509392505050565b600082601f830112620001f657620001f562000092565b5b81516200020884826020860162000193565b91505092915050565b6000819050919050565b620002268162000211565b81146200023257600080fd5b50565b60008151905062000246816200021b565b92915050565b6000806000806080858703121562000269576200026862000088565b5b600085015167ffffffffffffffff8111156200028a57620002896200008d565b5b6200029887828801620001de565b945050602085015167ffffffffffffffff811115620002bc57620002bb6200008d565b5b620002ca87828801620001de565b9350506040620002dd8782880162000235565b925050606085015167ffffffffffffffff8111156200030157620003006200008d565b5b6200030f87828801620001de565b91505092959194509250565b600081519050919050565b7f4e487b7100000000000000000000000000000000000000000000000000000000600052602260045260246000fd5b600060028204905060018216806200036e57607f821691505b60208210810362000384576200038362000326565b5b50919050565b60008190508160005260206000209050919050565b60006020601f8301049050919050565b600082821b905092915050565b600060088302620003ee7fffffffffffffffffffffffffffffffffffffffffffffffffffffffffffffffff82620003af565b620003fa8683620003af565b95508019841693508086168417925050509392505050565b6000819050919050565b60006200043d62000437620004318462000211565b62000412565b62000211565b9050919050565b6000819050919050565b62000459836200041c565b62000471620004688262000444565b848454620003bc565b825550505050565b600090565b6200048862000479565b620004958184846200044e565b505050565b5b81811015620004bd57620004b16000826200047e565b6001810190506200049b565b5050565b601f8211156200050c57620004d6816200038a565b620004e1846200039f565b81016020851015620004f1578190505b6200050962000500856200039f565b8301826200049a565b50505b505050565b600082821c905092915050565b6000620005316000198460080262000511565b1980831691505092915050565b60006200054c83836200051e565b9150826002028217905092915050565b62000567826200031b565b67ffffffffffffffff811115620005835762000582620000ad565b5b6200058f825462000355565b6200059c828285620004c1565b600060209050601f831160018114620005d45760008415620005bf578287015190505b620005cb85826200053e565b8655506200063b565b601f198416620005e4866200038a565b60005b828110156200060e57848901518255600182019150602085019450602081019050620005e7565b868310156200062e57848901516200062a601f8916826200051e565b8355505b6001600288020188555050505b505050505050565b610ba680620006536000396000f3fe608060405234801561001057600080fd5b50600436106100b45760003560e01c806357fc69d51161007157806357fc69d5146101915780636fd5ae15146101af5780637065cb48146101cd57806393ba0678146101e9578063963cb78414610205578063a5985e8c14610223576100b4565b8063025e7c27146100b957806306fdde03146100e95780630d8e6e2c1461010757806317d7de7c146101255780632f54bf6e1461014357806354fd4d5014610173575b600080fd5b6100d360048036038101906100ce9190610836565b610241565b6040516100e091906108a4565b60405180910390f35b6100f1610280565b6040516100fe919061094f565b60405180910390f35b61010f61030e565b60405161011c919061094f565b60405180910390f35b61012d6103a0565b60405161013a919061094f565b60405180910390f35b61015d6004803603810190610158919061099d565b610432565b60405161016a91906109e5565b60405180910390f35b61017b6104e0565b604051610188919061094f565b60405180910390f35b61019961056e565b6040516101a6919061094f565b60405180910390f35b6101b76105fc565b6040516101c49190610a0f565b60405180910390f35b6101e760048036038101906101e2919061099d565b610602565b005b61020360048036038101906101fe9190610a2a565b610668565b005b61020d61075f565b60405161021a919061094f565b60405180910390f35b61022b6107f1565b6040516102389190610a0f565b60405180910390f35b6000818154811061025157600080fd5b906000526020600020016000915054906101000a900473ffffffffffffffffffffffffffffffffffffffff1681565b6001805461028d90610a99565b80601f01602080910402602001604051908101604052809291908181526020018280546102b990610a99565b80156103065780601f106102db57610100808354040283529160200191610306565b820191906000526020600020905b8154815290600101906020018083116102e957829003601f168201915b505050505081565b60606004805461031d90610a99565b80601f016020809104026020016040519081016040528092919081815260200182805461034990610a99565b80156103965780601f1061036b57610100808354040283529160200191610396565b820191906000526020600020905b81548152906001019060200180831161037957829003601f168201915b5050505050905090565b6060600180546103af90610a99565b80601f01602080910402602001604051908101604052809291908181526020018280546103db90610a99565b80156104285780601f106103fd57610100808354040283529160200191610428565b820191906000526020600020905b81548152906001019060200180831161040b57829003601f168201915b5050505050905090565b600080600090505b6000805490508110156104d5578273ffffffffffffffffffffffffffffffffffffffff166000828154811061047257610471610aca565b5b9060005260206000200160009054906101000a900473ffffffffffffffffffffffffffffffffffffffff1673ffffffffffffffffffffffffffffffffffffffff16036104c25760019150506104db565b80806104cd90610b28565b91505061043a565b50600090505b919050565b600480546104ed90610a99565b80601f016020809104026020016040519081016040528092919081815260200182805461051990610a99565b80156105665780601f1061053b57610100808354040283529160200191610566565b820191906000526020600020905b81548152906001019060200180831161054957829003601f168201915b505050505081565b6002805461057b90610a99565b80601f01602080910402602001604051908101604052809291908181526020018280546105a790610a99565b80156105f45780601f106105c9576101008083540402835291602001916105f4565b820191906000526020600020905b8154815290600101906020018083116105d757829003601f168201915b505050505081565b60035481565b6000819080600181540180825580915050600190039060005260206000200160009091909190916101000a81548173ffffffffffffffffffffffffffffffffffffffff021916908373ffffffffffffffffffffffffffffffffffffffff16021790555050565b60005b60008054905081101561075a578173ffffffffffffffffffffffffffffffffffffffff16600082815481106106a3576106a2610aca565b5b9060005260206000200160009054906101000a900473ffffffffffffffffffffffffffffffffffffffff1673ffffffffffffffffffffffffffffffffffffffff16036107475782600082815481106106fe576106fd610aca565b5b9060005260206000200160006101000a81548173ffffffffffffffffffffffffffffffffffffffff021916908373ffffffffffffffffffffffffffffffffffffffff1602179055505b808061075290610b28565b91505061066b565b505050565b60606002805461076e90610a99565b80601f016020809104026020016040519081016040528092919081815260200182805461079a90610a99565b80156107e75780601f106107bc576101008083540402835291602001916107e7565b820191906000526020600020905b8154815290600101906020018083116107ca57829003601f168201915b5050505050905090565b6000600354905090565b600080fd5b6000819050919050565b61081381610800565b811461081e57600080fd5b50565b6000813590506108308161080a565b92915050565b60006020828403121561084c5761084b6107fb565b5b600061085a84828501610821565b91505092915050565b600073ffffffffffffffffffffffffffffffffffffffff82169050919050565b600061088e82610863565b9050919050565b61089e81610883565b82525050565b60006020820190506108b96000830184610895565b92915050565b600081519050919050565b600082825260208201905092915050565b60005b838110156108f95780820151818401526020810190506108de565b60008484015250505050565b6000601f19601f8301169050919050565b6000610921826108bf565b61092b81856108ca565b935061093b8185602086016108db565b61094481610905565b840191505092915050565b600060208201905081810360008301526109698184610916565b905092915050565b61097a81610883565b811461098557600080fd5b50565b60008135905061099781610971565b92915050565b6000602082840312156109b3576109b26107fb565b5b60006109c184828501610988565b91505092915050565b60008115159050919050565b6109df816109ca565b82525050565b60006020820190506109fa60008301846109d6565b92915050565b610a0981610800565b82525050565b6000602082019050610a246000830184610a00565b92915050565b60008060408385031215610a4157610a406107fb565b5b6000610a4f85828601610988565b9250506020610a6085828601610988565b9150509250929050565b7f4e487b7100000000000000000000000000000000000000000000000000000000600052602260045260246000fd5b60006002820490506001821680610ab157607f821691505b602082108103610ac457610ac3610a6a565b5b50919050565b7f4e487b7100000000000000000000000000000000000000000000000000000000600052603260045260246000fd5b7f4e487b7100000000000000000000000000000000000000000000000000000000600052601160045260246000fd5b6000610b3382610800565b91507fffffffffffffffffffffffffffffffffffffffffffffffffffffffffffffffff8203610b6557610b64610af9565b5b60018201905091905056fea26469706673582212205e7b101d9e31aa9bb7a1fb9885f5a2ed3ac361cb21d4c42b5545dd50d9092aa064736f6c634300081100336080604052633b9aca0060005534801561001857600080fd5b506040516107fb3803806107fb833981810160405281019061003a91906100e4565b80600160006101000a81548173ffffffffffffffffffffffffffffffffffffffff021916908373ffffffffffffffffffffffffffffffffffffffff16021790555050610111565b600080fd5b600073ffffffffffffffffffffffffffffffffffffffff82169050919050565b60006100b182610086565b9050919050565b6100c1816100a6565b81146100cc57600080fd5b50565b6000815190506100de816100b8565b92915050565b6000602082840312156100fa576100f9610081565b5b6000610108848285016100cf565b91505092915050565b6106db806101206000396000f3fe608060405234801561001057600080fd5b506004361061007d5760003560e01c806337df00c91161005b57806337df00c9146100ea578063564b28a014610106578063893d20e8146101245780639f37092a146101425761007d565b806327346b42146100825780633112a97b1461009e5780633129e773146100ba575b600080fd5b61009c60048036038101906100979190610433565b61015e565b005b6100b860048036038101906100b39190610473565b610255565b005b6100d460048036038101906100cf91906104d6565b6102bb565b6040516100e19190610512565b60405180910390f35b61010460048036038101906100ff91906104d6565b610303565b005b61010e61031e565b60405161011b919061053c565b60405180910390f35b61012c610327565b6040516101399190610512565b60405180910390f35b61015c60048036038101906101579190610557565b610351565b005b60005b600280549050811015610250578273ffffffffffffffffffffffffffffffffffffffff166002828154811061019957610198610597565b5b9060005260206000200160009054906101000a900473ffffffffffffffffffffffffffffffffffffffff1673ffffffffffffffffffffffffffffffffffffffff160361023d5781600282815481106101f4576101f3610597565b5b9060005260206000200160006101000a81548173ffffffffffffffffffffffffffffffffffffffff021916908373ffffffffffffffffffffffffffffffffffffffff1602179055505b8080610248906105f5565b915050610161565b505050565b6002819080600181540180825580915050600190039060005260206000200160009091909190916101000a81548173ffffffffffffffffffffffffffffffffffffffff021916908373ffffffffffffffffffffffffffffffffffffffff16021790555050565b6000600282815481106102d1576102d0610597565b5b9060005260206000200160009054906101000a900473ffffffffffffffffffffffffffffffffffffffff169050919050565b80600080828254610314919061063d565b9250508190555050565b60008054905090565b6000600160009054906101000a900473ffffffffffffffffffffffffffffffffffffffff16905090565b806000808282546103629190610671565b925050819055506002829080600181540180825580915050600190039060005260206000200160009091909190916101000a81548173ffffffffffffffffffffffffffffffffffffffff021916908373ffffffffffffffffffffffffffffffffffffffff1602179055505050565b600080fd5b600073ffffffffffffffffffffffffffffffffffffffff82169050919050565b6000610400826103d5565b9050919050565b610410816103f5565b811461041b57600080fd5b50565b60008135905061042d81610407565b92915050565b6000806040838503121561044a576104496103d0565b5b60006104588582860161041e565b92505060206104698582860161041e565b9150509250929050565b600060208284031215610489576104886103d0565b5b60006104978482850161041e565b91505092915050565b6000819050919050565b6104b3816104a0565b81146104be57600080fd5b50565b6000813590506104d0816104aa565b92915050565b6000602082840312156104ec576104eb6103d0565b5b60006104fa848285016104c1565b91505092915050565b61050c816103f5565b82525050565b60006020820190506105276000830184610503565b92915050565b610536816104a0565b82525050565b6000602082019050610551600083018461052d565b92915050565b6000806040838503121561056e5761056d6103d0565b5b600061057c8582860161041e565b925050602061058d858286016104c1565b9150509250929050565b7f4e487b7100000000000000000000000000000000000000000000000000000000600052603260045260246000fd5b7f4e487b7100000000000000000000000000000000000000000000000000000000600052601160045260246000fd5b6000610600826104a0565b91507fffffffffffffffffffffffffffffffffffffffffffffffffffffffffffffffff8203610632576106316105c6565b5b600182019050919050565b6000610648826104a0565b9150610653836104a0565b925082820190508082111561066b5761066a6105c6565b5b92915050565b600061067c826104a0565b9150610687836104a0565b925082820390508181111561069f5761069e6105c6565b5b9291505056fea2646970667358221220f46cc472c7df1650a8fc732e150d81657931d59da8bc3737eaf65162be2c070d64736f6c63430008110033a26469706673582212208619142be4bd71760aff7cd8b20ada7eb35e356b13c9d43d7d88ef753701fc3064736f6c63430008110033",
  "devdoc": {
    "kind": "dev",
    "methods": {},
    "version": 1
  },
  "userdoc": {
    "kind": "user",
    "methods": {},
    "version": 1
  },
  "storageLayout": {
    "storage": [
      {
        "astId": 169,
        "contract": "contracts/GameStore.sol:GameStore",
        "label": "storeOriginalItems",
        "offset": 0,
        "slot": "0",
        "type": "t_array(t_address)dyn_storage"
      },
      {
        "astId": 172,
        "contract": "contracts/GameStore.sol:GameStore",
        "label": "storeCustomItems",
        "offset": 0,
        "slot": "1",
        "type": "t_array(t_address)dyn_storage"
      },
      {
        "astId": 176,
        "contract": "contracts/GameStore.sol:GameStore",
        "label": "Wallets",
        "offset": 0,
        "slot": "2",
        "type": "t_mapping(t_string_memory_ptr,t_address)"
      },
      {
        "astId": 180,
        "contract": "contracts/GameStore.sol:GameStore",
        "label": "listedStoreItemsToToken",
        "offset": 0,
        "slot": "3",
        "type": "t_mapping(t_address,t_uint256)"
      },
      {
        "astId": 184,
        "contract": "contracts/GameStore.sol:GameStore",
        "label": "listedUserMintedItemsToToken",
        "offset": 0,
        "slot": "4",
        "type": "t_mapping(t_address,t_uint256)"
      },
      {
        "astId": 188,
        "contract": "contracts/GameStore.sol:GameStore",
        "label": "listedUserTradeItemsToItems",
        "offset": 0,
        "slot": "5",
        "type": "t_array(t_struct(Trade)166_storage)dyn_storage"
      }
    ],
    "types": {
      "t_address": {
        "encoding": "inplace",
        "label": "address",
        "numberOfBytes": "20"
      },
      "t_array(t_address)dyn_storage": {
        "base": "t_address",
        "encoding": "dynamic_array",
        "label": "address[]",
        "numberOfBytes": "32"
      },
      "t_array(t_struct(Trade)166_storage)dyn_storage": {
        "base": "t_struct(Trade)166_storage",
        "encoding": "dynamic_array",
        "label": "struct GameStore.Trade[]",
        "numberOfBytes": "32"
      },
      "t_mapping(t_address,t_uint256)": {
        "encoding": "mapping",
        "key": "t_address",
        "label": "mapping(address => uint256)",
        "numberOfBytes": "32",
        "value": "t_uint256"
      },
      "t_mapping(t_string_memory_ptr,t_address)": {
        "encoding": "mapping",
        "key": "t_string_memory_ptr",
        "label": "mapping(string => address)",
        "numberOfBytes": "32",
        "value": "t_address"
      },
      "t_string_memory_ptr": {
        "encoding": "bytes",
        "label": "string",
        "numberOfBytes": "32"
      },
      "t_struct(Trade)166_storage": {
        "encoding": "inplace",
        "label": "struct GameStore.Trade",
        "members": [
          {
            "astId": 161,
            "contract": "contracts/GameStore.sol:GameStore",
            "label": "trader",
            "offset": 0,
            "slot": "0",
            "type": "t_address"
          },
          {
            "astId": 163,
            "contract": "contracts/GameStore.sol:GameStore",
            "label": "item",
            "offset": 0,
            "slot": "1",
            "type": "t_address"
          },
          {
            "astId": 165,
            "contract": "contracts/GameStore.sol:GameStore",
            "label": "itemNeeded",
            "offset": 0,
            "slot": "2",
            "type": "t_address"
          }
        ],
        "numberOfBytes": "96"
      },
      "t_uint256": {
        "encoding": "inplace",
        "label": "uint256",
        "numberOfBytes": "32"
      }
    }
  }
}