{
  "address": "0xeE1B91B2a714b598bD6A9372979Fd4Ec79eDa08b",
  "abi": [
    {
      "inputs": [],
      "stateMutability": "nonpayable",
      "type": "constructor"
    },
    {
      "inputs": [],
      "name": "GameStore_NotOwner",
      "type": "error"
    },
    {
      "inputs": [
        {
          "internalType": "string",
          "name": "",
          "type": "string"
        }
      ],
      "name": "Wallets",
      "outputs": [
        {
          "internalType": "address",
          "name": "",
          "type": "address"
        }
      ],
      "stateMutability": "view",
      "type": "function"
    },
    {
      "inputs": [
        {
          "internalType": "string",
          "name": "name",
          "type": "string"
        },
        {
          "internalType": "address",
          "name": "gameItem",
          "type": "address"
        }
      ],
      "name": "buyItem",
      "outputs": [],
      "stateMutability": "nonpayable",
      "type": "function"
    },
    {
      "inputs": [
        {
          "internalType": "string",
          "name": "walletName",
          "type": "string"
        },
        {
          "internalType": "address",
          "name": "customItem",
          "type": "address"
        }
      ],
      "name": "buyingListedItems",
      "outputs": [],
      "stateMutability": "nonpayable",
      "type": "function"
    },
    {
      "inputs": [
        {
          "internalType": "string",
          "name": "walletName",
          "type": "string"
        },
        {
          "internalType": "string",
          "name": "_name",
          "type": "string"
        },
        {
          "internalType": "string",
          "name": "_typeOf",
          "type": "string"
        },
        {
          "internalType": "uint256",
          "name": "_level",
          "type": "uint256"
        }
      ],
      "name": "createCustomItems",
      "outputs": [],
      "stateMutability": "nonpayable",
      "type": "function"
    },
    {
      "inputs": [
        {
          "internalType": "string",
          "name": "_name",
          "type": "string"
        },
        {
          "internalType": "string",
          "name": "_typeOf",
          "type": "string"
        },
        {
          "internalType": "uint256",
          "name": "_level",
          "type": "uint256"
        },
        {
          "internalType": "uint256",
          "name": "token",
          "type": "uint256"
        }
      ],
      "name": "createItem",
      "outputs": [],
      "stateMutability": "nonpayable",
      "type": "function"
    },
    {
      "inputs": [
        {
          "internalType": "string",
          "name": "name",
          "type": "string"
        }
      ],
      "name": "createWallet",
      "outputs": [],
      "stateMutability": "nonpayable",
      "type": "function"
    },
    {
      "inputs": [
        {
          "internalType": "string",
          "name": "name",
          "type": "string"
        }
      ],
      "name": "getWallet",
      "outputs": [
        {
          "internalType": "address",
          "name": "",
          "type": "address"
        }
      ],
      "stateMutability": "view",
      "type": "function"
    },
    {
      "inputs": [
        {
          "internalType": "address",
          "name": "",
          "type": "address"
        }
      ],
      "name": "listedStoreItemsToToken",
      "outputs": [
        {
          "internalType": "uint256",
          "name": "",
          "type": "uint256"
        }
      ],
      "stateMutability": "view",
      "type": "function"
    },
    {
      "inputs": [
        {
          "internalType": "address",
          "name": "",
          "type": "address"
        }
      ],
      "name": "listedUserMintedItemsToToken",
      "outputs": [
        {
          "internalType": "uint256",
          "name": "",
          "type": "uint256"
        }
      ],
      "stateMutability": "view",
      "type": "function"
    },
    {
      "inputs": [
        {
          "internalType": "address",
          "name": "",
          "type": "address"
        }
      ],
      "name": "listedUserTradeItemsToItems",
      "outputs": [
        {
          "internalType": "address",
          "name": "",
          "type": "address"
        }
      ],
      "stateMutability": "view",
      "type": "function"
    },
    {
      "inputs": [
        {
          "internalType": "string",
          "name": "walletName",
          "type": "string"
        },
        {
          "internalType": "uint256",
          "name": "index",
          "type": "uint256"
        },
        {
          "internalType": "uint256",
          "name": "token",
          "type": "uint256"
        }
      ],
      "name": "listingCustomItems",
      "outputs": [],
      "stateMutability": "nonpayable",
      "type": "function"
    },
    {
      "inputs": [],
      "name": "owner",
      "outputs": [
        {
          "internalType": "address",
          "name": "",
          "type": "address"
        }
      ],
      "stateMutability": "view",
      "type": "function"
    },
    {
      "inputs": [
        {
          "internalType": "uint256",
          "name": "",
          "type": "uint256"
        }
      ],
      "name": "storeCustomItems",
      "outputs": [
        {
          "internalType": "address",
          "name": "",
          "type": "address"
        }
      ],
      "stateMutability": "view",
      "type": "function"
    },
    {
      "inputs": [
        {
          "internalType": "uint256",
          "name": "",
          "type": "uint256"
        }
      ],
      "name": "storeOriginalItems",
      "outputs": [
        {
          "internalType": "address",
          "name": "",
          "type": "address"
        }
      ],
      "stateMutability": "view",
      "type": "function"
    }
  ],
  "transactionHash": "0xb972f5031ffe9a2d35a8ca4cf955602fc90242041214d6871e41b48d0efc9214",
  "args": [],
  "numDeployments": 5,
  "solcInputHash": "0f650dbcb86e802ff6324e0c51011b03",
  "bytecode": "0x60a060405234801561001057600080fd5b503373ffffffffffffffffffffffffffffffffffffffff1660808173ffffffffffffffffffffffffffffffffffffffff1681525050608051613f7d610067600039600081816103ac01526106be0152613f7d6000f3fe60806040523480156200001157600080fd5b5060043610620001005760003560e01c8063aa5df3701162000099578063cea1706c116200006f578063cea1706c14620002b5578063da90e78214620002eb578063de929b41146200030b578063fa01593f14620003415762000100565b8063aa5df3701462000229578063c0c69273146200025f578063c81034b114620002955762000100565b80637404f1d211620000db5780637404f1d214620001915780638da5cb5b14620001b15780639d8820c414620001d3578063a4e2df6614620001f35762000100565b80630e1020e814620001055780636fc36b38146200013b57806371e22883146200015b575b600080fd5b6200012360048036038101906200011d919062001b8b565b62000361565b60405162000132919062001c21565b60405180910390f35b62000159600480360381019062000153919062001c79565b620003aa565b005b62000179600480360381019062000173919062001d29565b62000530565b60405162000188919062001c21565b60405180910390f35b620001af6004803603810190620001a9919062001b8b565b62000570565b005b620001bb620006bc565b604051620001ca919062001c21565b60405180910390f35b620001f16004803603810190620001eb919062001d8c565b620006e0565b005b6200021160048036038101906200020b919062001b8b565b62000aee565b60405162000220919062001c21565b60405180910390f35b62000247600480360381019062000241919062001df2565b62000d11565b60405162000256919062001c21565b60405180910390f35b6200027d600480360381019062000277919062001df2565b62000d44565b6040516200028c919062001e35565b60405180910390f35b620002b36004803603810190620002ad919062001e52565b62000d5c565b005b620002d36004803603810190620002cd919062001df2565b6200111d565b604051620002e2919062001e35565b60405180910390f35b62000309600480360381019062000303919062001d8c565b62001135565b005b62000329600480360381019062000323919062001d29565b62001656565b60405162000338919062001c21565b60405180910390f35b6200035f600480360381019062000359919062001ecd565b62001696565b005b6002818051602081018201805184825260208301602085012081835280955050505050506000915054906101000a900473ffffffffffffffffffffffffffffffffffffffff1681565b7f000000000000000000000000000000000000000000000000000000000000000073ffffffffffffffffffffffffffffffffffffffff163373ffffffffffffffffffffffffffffffffffffffff161462000430576040517fb39a50da00000000000000000000000000000000000000000000000000000000815260040160405180910390fd5b60008484846040516200044390620019f9565b620004519392919062002075565b604051809103906000f0801580156200046e573d6000803e3d6000fd5b5090506000819080600181540180825580915050600190039060005260206000200160009091909190916101000a81548173ffffffffffffffffffffffffffffffffffffffff021916908373ffffffffffffffffffffffffffffffffffffffff1602179055506305f5e10082620004e6919062002104565b600360008373ffffffffffffffffffffffffffffffffffffffff1673ffffffffffffffffffffffffffffffffffffffff168152602001908152602001600020819055505050505050565b600181815481106200054157600080fd5b906000526020600020016000915054906101000a900473ffffffffffffffffffffffffffffffffffffffff1681565b600073ffffffffffffffffffffffffffffffffffffffff166002826040516200059a919062002191565b908152602001604051809103902060009054906101000a900473ffffffffffffffffffffffffffffffffffffffff1673ffffffffffffffffffffffffffffffffffffffff161462000622576040517f08c379a00000000000000000000000000000000000000000000000000000000081526004016200061990620021fa565b60405180910390fd5b33604051620006319062001a07565b6200063d919062001c21565b604051809103906000f0801580156200065a573d6000803e3d6000fd5b506002826040516200066d919062002191565b908152602001604051809103902060006101000a81548173ffffffffffffffffffffffffffffffffffffffff021916908373ffffffffffffffffffffffffffffffffffffffff16021790555050565b7f000000000000000000000000000000000000000000000000000000000000000081565b600073ffffffffffffffffffffffffffffffffffffffff166002836040516200070a919062002191565b908152602001604051809103902060009054906101000a900473ffffffffffffffffffffffffffffffffffffffff1673ffffffffffffffffffffffffffffffffffffffff16141580156200079e57506000600360008373ffffffffffffffffffffffffffffffffffffffff1673ffffffffffffffffffffffffffffffffffffffff1681526020019081526020016000205414155b620007e0576040517f08c379a0000000000000000000000000000000000000000000000000000000008152600401620007d79062002292565b60405180910390fd5b6000600283604051620007f4919062002191565b908152602001604051809103902060009054906101000a900473ffffffffffffffffffffffffffffffffffffffff1690503373ffffffffffffffffffffffffffffffffffffffff168173ffffffffffffffffffffffffffffffffffffffff1663893d20e86040518163ffffffff1660e01b8152600401602060405180830381865afa15801562000888573d6000803e3d6000fd5b505050506040513d601f19601f82011682018060405250810190620008ae9190620022cb565b73ffffffffffffffffffffffffffffffffffffffff16148015620009825750600360008373ffffffffffffffffffffffffffffffffffffffff1673ffffffffffffffffffffffffffffffffffffffff168152602001908152602001600020548173ffffffffffffffffffffffffffffffffffffffff1663564b28a06040518163ffffffff1660e01b8152600401602060405180830381865afa15801562000959573d6000803e3d6000fd5b505050506040513d601f19601f820116820180604052508101906200097f919062002314565b10155b620009c4576040517f08c379a0000000000000000000000000000000000000000000000000000000008152600401620009bb9062002396565b60405180910390fd5b60008290508073ffffffffffffffffffffffffffffffffffffffff16637065cb48836040518263ffffffff1660e01b815260040162000a04919062001c21565b600060405180830381600087803b15801562000a1f57600080fd5b505af115801562000a34573d6000803e3d6000fd5b505050508173ffffffffffffffffffffffffffffffffffffffff16639f37092a82600360008773ffffffffffffffffffffffffffffffffffffffff1673ffffffffffffffffffffffffffffffffffffffff168152602001908152602001600020546040518363ffffffff1660e01b815260040162000ab4929190620023b8565b600060405180830381600087803b15801562000acf57600080fd5b505af115801562000ae4573d6000803e3d6000fd5b5050505050505050565b60008073ffffffffffffffffffffffffffffffffffffffff1660028360405162000b19919062002191565b908152602001604051809103902060009054906101000a900473ffffffffffffffffffffffffffffffffffffffff1673ffffffffffffffffffffffffffffffffffffffff160362000ba1576040517f08c379a000000000000000000000000000000000000000000000000000000000815260040162000b989062002435565b60405180910390fd5b600060028360405162000bb5919062002191565b908152602001604051809103902060009054906101000a900473ffffffffffffffffffffffffffffffffffffffff1690503373ffffffffffffffffffffffffffffffffffffffff168173ffffffffffffffffffffffffffffffffffffffff1663893d20e86040518163ffffffff1660e01b8152600401602060405180830381865afa15801562000c49573d6000803e3d6000fd5b505050506040513d601f19601f8201168201806040525081019062000c6f9190620022cb565b73ffffffffffffffffffffffffffffffffffffffff161462000cc8576040517f08c379a000000000000000000000000000000000000000000000000000000000815260040162000cbf9062002396565b60405180910390fd5b60028360405162000cda919062002191565b908152602001604051809103902060009054906101000a900473ffffffffffffffffffffffffffffffffffffffff16915050919050565b60056020528060005260406000206000915054906101000a900473ffffffffffffffffffffffffffffffffffffffff1681565b60036020528060005260406000206000915090505481565b600073ffffffffffffffffffffffffffffffffffffffff1660028460405162000d86919062002191565b908152602001604051809103902060009054906101000a900473ffffffffffffffffffffffffffffffffffffffff1673ffffffffffffffffffffffffffffffffffffffff160362000e0e576040517f08c379a000000000000000000000000000000000000000000000000000000000815260040162000e059062002292565b60405180910390fd5b600060028460405162000e22919062002191565b908152602001604051809103902060009054906101000a900473ffffffffffffffffffffffffffffffffffffffff1690503373ffffffffffffffffffffffffffffffffffffffff168173ffffffffffffffffffffffffffffffffffffffff1663893d20e86040518163ffffffff1660e01b8152600401602060405180830381865afa15801562000eb6573d6000803e3d6000fd5b505050506040513d601f19601f8201168201806040525081019062000edc9190620022cb565b73ffffffffffffffffffffffffffffffffffffffff161462000f35576040517f08c379a000000000000000000000000000000000000000000000000000000000815260040162000f2c9062002396565b60405180910390fd5b60008173ffffffffffffffffffffffffffffffffffffffff16633129e773856040518263ffffffff1660e01b815260040162000f72919062001e35565b602060405180830381865afa15801562000f90573d6000803e3d6000fd5b505050506040513d601f19601f8201168201806040525081019062000fb69190620022cb565b905060405160200162000fc99062002457565b604051602081830303815290604052805190602001208173ffffffffffffffffffffffffffffffffffffffff16630d8e6e2c6040518163ffffffff1660e01b8152600401600060405180830381865afa1580156200102b573d6000803e3d6000fd5b505050506040513d6000823e3d601f19601f82011682018060405250810190620010569190620024f7565b60405160200162001068919062002548565b6040516020818303038152906040528051906020012003620010c1576040517f08c379a0000000000000000000000000000000000000000000000000000000008152600401620010b890620025bc565b60405180910390fd5b6305f5e10083620010d3919062002104565b600460008373ffffffffffffffffffffffffffffffffffffffff1673ffffffffffffffffffffffffffffffffffffffff168152602001908152602001600020819055505050505050565b60046020528060005260406000206000915090505481565b600073ffffffffffffffffffffffffffffffffffffffff166002836040516200115f919062002191565b908152602001604051809103902060009054906101000a900473ffffffffffffffffffffffffffffffffffffffff1673ffffffffffffffffffffffffffffffffffffffff1603620011e7576040517f08c379a0000000000000000000000000000000000000000000000000000000008152600401620011de9062002292565b60405180910390fd5b6000600283604051620011fb919062002191565b908152602001604051809103902060009054906101000a900473ffffffffffffffffffffffffffffffffffffffff1690503373ffffffffffffffffffffffffffffffffffffffff168173ffffffffffffffffffffffffffffffffffffffff1663893d20e86040518163ffffffff1660e01b8152600401602060405180830381865afa1580156200128f573d6000803e3d6000fd5b505050506040513d601f19601f82011682018060405250810190620012b59190620022cb565b73ffffffffffffffffffffffffffffffffffffffff16148015620013895750600460008373ffffffffffffffffffffffffffffffffffffffff1673ffffffffffffffffffffffffffffffffffffffff168152602001908152602001600020548173ffffffffffffffffffffffffffffffffffffffff1663564b28a06040518163ffffffff1660e01b8152600401602060405180830381865afa15801562001360573d6000803e3d6000fd5b505050506040513d601f19601f8201168201806040525081019062001386919062002314565b10155b620013cb576040517f08c379a0000000000000000000000000000000000000000000000000000000008152600401620013c29062002654565b60405180910390fd5b60008290508073ffffffffffffffffffffffffffffffffffffffff1663025e7c2760006040518263ffffffff1660e01b81526004016200140c9190620026c3565b602060405180830381865afa1580156200142a573d6000803e3d6000fd5b505050506040513d601f19601f82011682018060405250810190620014509190620022cb565b73ffffffffffffffffffffffffffffffffffffffff168273ffffffffffffffffffffffffffffffffffffffff1663893d20e86040518163ffffffff1660e01b8152600401602060405180830381865afa158015620014b2573d6000803e3d6000fd5b505050506040513d601f19601f82011682018060405250810190620014d89190620022cb565b73ffffffffffffffffffffffffffffffffffffffff160362001531576040517f08c379a0000000000000000000000000000000000000000000000000000000008152600401620015289062002756565b60405180910390fd5b8073ffffffffffffffffffffffffffffffffffffffff16637065cb48836040518263ffffffff1660e01b81526004016200156c919062001c21565b600060405180830381600087803b1580156200158757600080fd5b505af11580156200159c573d6000803e3d6000fd5b505050508173ffffffffffffffffffffffffffffffffffffffff16639f37092a82600460008773ffffffffffffffffffffffffffffffffffffffff1673ffffffffffffffffffffffffffffffffffffffff168152602001908152602001600020546040518363ffffffff1660e01b81526004016200161c929190620023b8565b600060405180830381600087803b1580156200163757600080fd5b505af11580156200164c573d6000803e3d6000fd5b5050505050505050565b600081815481106200166757600080fd5b906000526020600020016000915054906101000a900473ffffffffffffffffffffffffffffffffffffffff1681565b600073ffffffffffffffffffffffffffffffffffffffff16600285604051620016c0919062002191565b908152602001604051809103902060009054906101000a900473ffffffffffffffffffffffffffffffffffffffff1673ffffffffffffffffffffffffffffffffffffffff160362001748576040517f08c379a00000000000000000000000000000000000000000000000000000000081526004016200173f9062002292565b60405180910390fd5b60006002856040516200175c919062002191565b908152602001604051809103902060009054906101000a900473ffffffffffffffffffffffffffffffffffffffff1690503373ffffffffffffffffffffffffffffffffffffffff168173ffffffffffffffffffffffffffffffffffffffff1663893d20e86040518163ffffffff1660e01b8152600401602060405180830381865afa158015620017f0573d6000803e3d6000fd5b505050506040513d601f19601f82011682018060405250810190620018169190620022cb565b73ffffffffffffffffffffffffffffffffffffffff16146200186f576040517f08c379a0000000000000000000000000000000000000000000000000000000008152600401620018669062002396565b60405180910390fd5b60008484846040516200188290620019f9565b6200189093929190620027c8565b604051809103906000f080158015620018ad573d6000803e3d6000fd5b5090506001819080600181540180825580915050600190039060005260206000200160009091909190916101000a81548173ffffffffffffffffffffffffffffffffffffffff021916908373ffffffffffffffffffffffffffffffffffffffff1602179055508073ffffffffffffffffffffffffffffffffffffffff16637065cb48836040518263ffffffff1660e01b81526004016200194e919062001c21565b600060405180830381600087803b1580156200196957600080fd5b505af11580156200197e573d6000803e3d6000fd5b505050508173ffffffffffffffffffffffffffffffffffffffff16633112a97b826040518263ffffffff1660e01b8152600401620019bd919062001c21565b600060405180830381600087803b158015620019d857600080fd5b505af1158015620019ed573d6000803e3d6000fd5b50505050505050505050565b6110da806200282983390190565b610645806200390383390190565b6000604051905090565b600080fd5b600080fd5b600080fd5b600080fd5b6000601f19601f8301169050919050565b7f4e487b7100000000000000000000000000000000000000000000000000000000600052604160045260246000fd5b62001a7e8262001a33565b810181811067ffffffffffffffff8211171562001aa05762001a9f62001a44565b5b80604052505050565b600062001ab562001a15565b905062001ac3828262001a73565b919050565b600067ffffffffffffffff82111562001ae65762001ae562001a44565b5b62001af18262001a33565b9050602081019050919050565b82818337600083830152505050565b600062001b2462001b1e8462001ac8565b62001aa9565b90508281526020810184848401111562001b435762001b4262001a2e565b5b62001b5084828562001afe565b509392505050565b600082601f83011262001b705762001b6f62001a29565b5b813562001b8284826020860162001b0d565b91505092915050565b60006020828403121562001ba45762001ba362001a1f565b5b600082013567ffffffffffffffff81111562001bc55762001bc462001a24565b5b62001bd38482850162001b58565b91505092915050565b600073ffffffffffffffffffffffffffffffffffffffff82169050919050565b600062001c098262001bdc565b9050919050565b62001c1b8162001bfc565b82525050565b600060208201905062001c38600083018462001c10565b92915050565b6000819050919050565b62001c538162001c3e565b811462001c5f57600080fd5b50565b60008135905062001c738162001c48565b92915050565b6000806000806080858703121562001c965762001c9562001a1f565b5b600085013567ffffffffffffffff81111562001cb75762001cb662001a24565b5b62001cc58782880162001b58565b945050602085013567ffffffffffffffff81111562001ce95762001ce862001a24565b5b62001cf78782880162001b58565b935050604062001d0a8782880162001c62565b925050606062001d1d8782880162001c62565b91505092959194509250565b60006020828403121562001d425762001d4162001a1f565b5b600062001d528482850162001c62565b91505092915050565b62001d668162001bfc565b811462001d7257600080fd5b50565b60008135905062001d868162001d5b565b92915050565b6000806040838503121562001da65762001da562001a1f565b5b600083013567ffffffffffffffff81111562001dc75762001dc662001a24565b5b62001dd58582860162001b58565b925050602062001de88582860162001d75565b9150509250929050565b60006020828403121562001e0b5762001e0a62001a1f565b5b600062001e1b8482850162001d75565b91505092915050565b62001e2f8162001c3e565b82525050565b600060208201905062001e4c600083018462001e24565b92915050565b60008060006060848603121562001e6e5762001e6d62001a1f565b5b600084013567ffffffffffffffff81111562001e8f5762001e8e62001a24565b5b62001e9d8682870162001b58565b935050602062001eb08682870162001c62565b925050604062001ec38682870162001c62565b9150509250925092565b6000806000806080858703121562001eea5762001ee962001a1f565b5b600085013567ffffffffffffffff81111562001f0b5762001f0a62001a24565b5b62001f198782880162001b58565b945050602085013567ffffffffffffffff81111562001f3d5762001f3c62001a24565b5b62001f4b8782880162001b58565b935050604085013567ffffffffffffffff81111562001f6f5762001f6e62001a24565b5b62001f7d8782880162001b58565b925050606062001f908782880162001c62565b91505092959194509250565b600081519050919050565b600082825260208201905092915050565b60005b8381101562001fd857808201518184015260208101905062001fbb565b60008484015250505050565b600062001ff18262001f9c565b62001ffd818562001fa7565b93506200200f81856020860162001fb8565b6200201a8162001a33565b840191505092915050565b7f636c617373696300000000000000000000000000000000000000000000000000600082015250565b60006200205d60078362001fa7565b91506200206a8262002025565b602082019050919050565b6000608082019050818103600083015262002091818662001fe4565b90508181036020830152620020a7818562001fe4565b9050620020b8604083018462001e24565b8181036060830152620020cb816200204e565b9050949350505050565b7f4e487b7100000000000000000000000000000000000000000000000000000000600052601160045260246000fd5b6000620021118262001c3e565b91506200211e8362001c3e565b92508282026200212e8162001c3e565b91508282048414831517620021485762002147620020d5565b5b5092915050565b600081905092915050565b6000620021678262001f9c565b6200217381856200214f565b93506200218581856020860162001fb8565b80840191505092915050565b60006200219f82846200215a565b915081905092915050565b7f57616c6c65742065786973742121000000000000000000000000000000000000600082015250565b6000620021e2600e8362001fa7565b9150620021ef82620021aa565b602082019050919050565b600060208201905081810360008301526200221581620021d3565b9050919050565b7f57616c6c6574206f722067616d65206974656d20646f6573206e6f742065786960008201527f7374212100000000000000000000000000000000000000000000000000000000602082015250565b60006200227a60248362001fa7565b915062002287826200221c565b604082019050919050565b60006020820190508181036000830152620022ad816200226b565b9050919050565b600081519050620022c58162001d5b565b92915050565b600060208284031215620022e457620022e362001a1f565b5b6000620022f484828501620022b4565b91505092915050565b6000815190506200230e8162001c48565b92915050565b6000602082840312156200232d576200232c62001a1f565b5b60006200233d84828501620022fd565b91505092915050565b7f57616c6c6574206973206e6f74206f776e656420627920796f75212121000000600082015250565b60006200237e601d8362001fa7565b91506200238b8262002346565b602082019050919050565b60006020820190508181036000830152620023b1816200236f565b9050919050565b6000604082019050620023cf600083018562001c10565b620023de602083018462001e24565b9392505050565b7f57616c6c657420646f6573206e6f742065786973742121000000000000000000600082015250565b60006200241d60178362001fa7565b91506200242a82620023e5565b602082019050919050565b6000602082019050818103600083015262002450816200240e565b9050919050565b6000602082019050818103600083015262002472816200204e565b9050919050565b6000620024906200248a8462001ac8565b62001aa9565b905082815260208101848484011115620024af57620024ae62001a2e565b5b620024bc84828562001fb8565b509392505050565b600082601f830112620024dc57620024db62001a29565b5b8151620024ee84826020860162002479565b91505092915050565b60006020828403121562002510576200250f62001a1f565b5b600082015167ffffffffffffffff81111562002531576200253062001a24565b5b6200253f84828501620024c4565b91505092915050565b6000602082019050818103600083015262002564818462001fe4565b905092915050565b7f4f6e6c7920437573746f6d204974656d2063616e206265206c69737465640000600082015250565b6000620025a4601e8362001fa7565b9150620025b1826200256c565b602082019050919050565b60006020820190508181036000830152620025d78162002595565b9050919050565b7f57616c6c6574206973206e6f74206f776e656420627920796f75206f7220796f60008201527f7520646f6e2774206861766520656e6f75676820746f6b656e73212121000000602082015250565b60006200263c603d8362001fa7565b91506200264982620025de565b604082019050919050565b600060208201905081810360008301526200266f816200262d565b9050919050565b6000819050919050565b6000819050919050565b6000620026ab620026a56200269f8462002676565b62002680565b62001c3e565b9050919050565b620026bd816200268a565b82525050565b6000602082019050620026da6000830184620026b2565b92915050565b7f4974656d2043726561746f722063616e6e6f742062757920637573746f6d206960008201527f74656d2121210000000000000000000000000000000000000000000000000000602082015250565b60006200273e60268362001fa7565b91506200274b82620026e0565b604082019050919050565b6000602082019050818103600083015262002771816200272f565b9050919050565b7f637573746f6d0000000000000000000000000000000000000000000000000000600082015250565b6000620027b060068362001fa7565b9150620027bd8262002778565b602082019050919050565b60006080820190508181036000830152620027e4818662001fe4565b90508181036020830152620027fa818562001fe4565b90506200280b604083018462001e24565b81810360608301526200281e81620027a1565b905094935050505056fe60806040523480156200001157600080fd5b50604051620010da380380620010da83398181016040528101906200003791906200024c565b83600190816200004891906200055c565b5082600290816200005a91906200055c565b508160038190555080600490816200007391906200055c565b505050505062000643565b6000604051905090565b600080fd5b600080fd5b600080fd5b600080fd5b6000601f19601f8301169050919050565b7f4e487b7100000000000000000000000000000000000000000000000000000000600052604160045260246000fd5b620000e7826200009c565b810181811067ffffffffffffffff82111715620001095762000108620000ad565b5b80604052505050565b60006200011e6200007e565b90506200012c8282620000dc565b919050565b600067ffffffffffffffff8211156200014f576200014e620000ad565b5b6200015a826200009c565b9050602081019050919050565b60005b83811015620001875780820151818401526020810190506200016a565b60008484015250505050565b6000620001aa620001a48462000131565b62000112565b905082815260208101848484011115620001c957620001c862000097565b5b620001d684828562000167565b509392505050565b600082601f830112620001f657620001f562000092565b5b81516200020884826020860162000193565b91505092915050565b6000819050919050565b620002268162000211565b81146200023257600080fd5b50565b60008151905062000246816200021b565b92915050565b6000806000806080858703121562000269576200026862000088565b5b600085015167ffffffffffffffff8111156200028a57620002896200008d565b5b6200029887828801620001de565b945050602085015167ffffffffffffffff811115620002bc57620002bb6200008d565b5b620002ca87828801620001de565b9350506040620002dd8782880162000235565b925050606085015167ffffffffffffffff8111156200030157620003006200008d565b5b6200030f87828801620001de565b91505092959194509250565b600081519050919050565b7f4e487b7100000000000000000000000000000000000000000000000000000000600052602260045260246000fd5b600060028204905060018216806200036e57607f821691505b60208210810362000384576200038362000326565b5b50919050565b60008190508160005260206000209050919050565b60006020601f8301049050919050565b600082821b905092915050565b600060088302620003ee7fffffffffffffffffffffffffffffffffffffffffffffffffffffffffffffffff82620003af565b620003fa8683620003af565b95508019841693508086168417925050509392505050565b6000819050919050565b60006200043d62000437620004318462000211565b62000412565b62000211565b9050919050565b6000819050919050565b62000459836200041c565b62000471620004688262000444565b848454620003bc565b825550505050565b600090565b6200048862000479565b620004958184846200044e565b505050565b5b81811015620004bd57620004b16000826200047e565b6001810190506200049b565b5050565b601f8211156200050c57620004d6816200038a565b620004e1846200039f565b81016020851015620004f1578190505b6200050962000500856200039f565b8301826200049a565b50505b505050565b600082821c905092915050565b6000620005316000198460080262000511565b1980831691505092915050565b60006200054c83836200051e565b9150826002028217905092915050565b62000567826200031b565b67ffffffffffffffff811115620005835762000582620000ad565b5b6200058f825462000355565b6200059c828285620004c1565b600060209050601f831160018114620005d45760008415620005bf578287015190505b620005cb85826200053e565b8655506200063b565b601f198416620005e4866200038a565b60005b828110156200060e57848901518255600182019150602085019450602081019050620005e7565b868310156200062e57848901516200062a601f8916826200051e565b8355505b6001600288020188555050505b505050505050565b610a8780620006536000396000f3fe608060405234801561001057600080fd5b50600436106100a95760003560e01c806357fc69d51161007157806357fc69d5146101565780636fd5ae15146101745780637065cb481461019257806393ba0678146101ae578063963cb784146101ca578063a5985e8c146101e8576100a9565b8063025e7c27146100ae57806306fdde03146100de5780630d8e6e2c146100fc57806317d7de7c1461011a57806354fd4d5014610138575b600080fd5b6100c860048036038101906100c3919061074d565b610206565b6040516100d591906107bb565b60405180910390f35b6100e6610245565b6040516100f39190610866565b60405180910390f35b6101046102d3565b6040516101119190610866565b60405180910390f35b610122610365565b60405161012f9190610866565b60405180910390f35b6101406103f7565b60405161014d9190610866565b60405180910390f35b61015e610485565b60405161016b9190610866565b60405180910390f35b61017c610513565b6040516101899190610897565b60405180910390f35b6101ac60048036038101906101a791906108de565b610519565b005b6101c860048036038101906101c3919061090b565b61057f565b005b6101d2610676565b6040516101df9190610866565b60405180910390f35b6101f0610708565b6040516101fd9190610897565b60405180910390f35b6000818154811061021657600080fd5b906000526020600020016000915054906101000a900473ffffffffffffffffffffffffffffffffffffffff1681565b600180546102529061097a565b80601f016020809104026020016040519081016040528092919081815260200182805461027e9061097a565b80156102cb5780601f106102a0576101008083540402835291602001916102cb565b820191906000526020600020905b8154815290600101906020018083116102ae57829003601f168201915b505050505081565b6060600480546102e29061097a565b80601f016020809104026020016040519081016040528092919081815260200182805461030e9061097a565b801561035b5780601f106103305761010080835404028352916020019161035b565b820191906000526020600020905b81548152906001019060200180831161033e57829003601f168201915b5050505050905090565b6060600180546103749061097a565b80601f01602080910402602001604051908101604052809291908181526020018280546103a09061097a565b80156103ed5780601f106103c2576101008083540402835291602001916103ed565b820191906000526020600020905b8154815290600101906020018083116103d057829003601f168201915b5050505050905090565b600480546104049061097a565b80601f01602080910402602001604051908101604052809291908181526020018280546104309061097a565b801561047d5780601f106104525761010080835404028352916020019161047d565b820191906000526020600020905b81548152906001019060200180831161046057829003601f168201915b505050505081565b600280546104929061097a565b80601f01602080910402602001604051908101604052809291908181526020018280546104be9061097a565b801561050b5780601f106104e05761010080835404028352916020019161050b565b820191906000526020600020905b8154815290600101906020018083116104ee57829003601f168201915b505050505081565b60035481565b6000819080600181540180825580915050600190039060005260206000200160009091909190916101000a81548173ffffffffffffffffffffffffffffffffffffffff021916908373ffffffffffffffffffffffffffffffffffffffff16021790555050565b60005b600080549050811015610671578173ffffffffffffffffffffffffffffffffffffffff16600082815481106105ba576105b96109ab565b5b9060005260206000200160009054906101000a900473ffffffffffffffffffffffffffffffffffffffff1673ffffffffffffffffffffffffffffffffffffffff160361065e578260008281548110610615576106146109ab565b5b9060005260206000200160006101000a81548173ffffffffffffffffffffffffffffffffffffffff021916908373ffffffffffffffffffffffffffffffffffffffff1602179055505b808061066990610a09565b915050610582565b505050565b6060600280546106859061097a565b80601f01602080910402602001604051908101604052809291908181526020018280546106b19061097a565b80156106fe5780601f106106d3576101008083540402835291602001916106fe565b820191906000526020600020905b8154815290600101906020018083116106e157829003601f168201915b5050505050905090565b6000600354905090565b600080fd5b6000819050919050565b61072a81610717565b811461073557600080fd5b50565b60008135905061074781610721565b92915050565b60006020828403121561076357610762610712565b5b600061077184828501610738565b91505092915050565b600073ffffffffffffffffffffffffffffffffffffffff82169050919050565b60006107a58261077a565b9050919050565b6107b58161079a565b82525050565b60006020820190506107d060008301846107ac565b92915050565b600081519050919050565b600082825260208201905092915050565b60005b838110156108105780820151818401526020810190506107f5565b60008484015250505050565b6000601f19601f8301169050919050565b6000610838826107d6565b61084281856107e1565b93506108528185602086016107f2565b61085b8161081c565b840191505092915050565b60006020820190508181036000830152610880818461082d565b905092915050565b61089181610717565b82525050565b60006020820190506108ac6000830184610888565b92915050565b6108bb8161079a565b81146108c657600080fd5b50565b6000813590506108d8816108b2565b92915050565b6000602082840312156108f4576108f3610712565b5b6000610902848285016108c9565b91505092915050565b6000806040838503121561092257610921610712565b5b6000610930858286016108c9565b9250506020610941858286016108c9565b9150509250929050565b7f4e487b7100000000000000000000000000000000000000000000000000000000600052602260045260246000fd5b6000600282049050600182168061099257607f821691505b6020821081036109a5576109a461094b565b5b50919050565b7f4e487b7100000000000000000000000000000000000000000000000000000000600052603260045260246000fd5b7f4e487b7100000000000000000000000000000000000000000000000000000000600052601160045260246000fd5b6000610a1482610717565b91507fffffffffffffffffffffffffffffffffffffffffffffffffffffffffffffffff8203610a4657610a456109da565b5b60018201905091905056fea26469706673582212205159a04027f1a87ea846ef638a9482ed8577bed603148cd60d36e148c4f9bab664736f6c634300081100336080604052633b9aca0060005534801561001857600080fd5b50604051610645380380610645833981810160405281019061003a91906100e4565b80600160006101000a81548173ffffffffffffffffffffffffffffffffffffffff021916908373ffffffffffffffffffffffffffffffffffffffff16021790555050610111565b600080fd5b600073ffffffffffffffffffffffffffffffffffffffff82169050919050565b60006100b182610086565b9050919050565b6100c1816100a6565b81146100cc57600080fd5b50565b6000815190506100de816100b8565b92915050565b6000602082840312156100fa576100f9610081565b5b6000610108848285016100cf565b91505092915050565b610525806101206000396000f3fe608060405234801561001057600080fd5b50600436106100625760003560e01c80633112a97b146100675780633129e7731461008357806337df00c9146100b3578063564b28a0146100cf578063893d20e8146100ed5780639f37092a1461010b575b600080fd5b610081600480360381019061007c9190610305565b610127565b005b61009d60048036038101906100989190610368565b61018d565b6040516100aa91906103a4565b60405180910390f35b6100cd60048036038101906100c89190610368565b6101d5565b005b6100d76101f0565b6040516100e491906103ce565b60405180910390f35b6100f56101f9565b60405161010291906103a4565b60405180910390f35b610125600480360381019061012091906103e9565b610223565b005b6002819080600181540180825580915050600190039060005260206000200160009091909190916101000a81548173ffffffffffffffffffffffffffffffffffffffff021916908373ffffffffffffffffffffffffffffffffffffffff16021790555050565b6000600282815481106101a3576101a2610429565b5b9060005260206000200160009054906101000a900473ffffffffffffffffffffffffffffffffffffffff169050919050565b806000808282546101e69190610487565b9250508190555050565b60008054905090565b6000600160009054906101000a900473ffffffffffffffffffffffffffffffffffffffff16905090565b8060008082825461023491906104bb565b925050819055506002829080600181540180825580915050600190039060005260206000200160009091909190916101000a81548173ffffffffffffffffffffffffffffffffffffffff021916908373ffffffffffffffffffffffffffffffffffffffff1602179055505050565b600080fd5b600073ffffffffffffffffffffffffffffffffffffffff82169050919050565b60006102d2826102a7565b9050919050565b6102e2816102c7565b81146102ed57600080fd5b50565b6000813590506102ff816102d9565b92915050565b60006020828403121561031b5761031a6102a2565b5b6000610329848285016102f0565b91505092915050565b6000819050919050565b61034581610332565b811461035057600080fd5b50565b6000813590506103628161033c565b92915050565b60006020828403121561037e5761037d6102a2565b5b600061038c84828501610353565b91505092915050565b61039e816102c7565b82525050565b60006020820190506103b96000830184610395565b92915050565b6103c881610332565b82525050565b60006020820190506103e360008301846103bf565b92915050565b60008060408385031215610400576103ff6102a2565b5b600061040e858286016102f0565b925050602061041f85828601610353565b9150509250929050565b7f4e487b7100000000000000000000000000000000000000000000000000000000600052603260045260246000fd5b7f4e487b7100000000000000000000000000000000000000000000000000000000600052601160045260246000fd5b600061049282610332565b915061049d83610332565b92508282019050808211156104b5576104b4610458565b5b92915050565b60006104c682610332565b91506104d183610332565b92508282039050818111156104e9576104e8610458565b5b9291505056fea26469706673582212209a66e979d67a8193b366a527b142afcbb4063d67e1548e7ca1b22f98c722897964736f6c63430008110033a26469706673582212204b045e39ec2a745fb725badfa035a37cb3621bb8a941f010e2cc2b0bd46999c964736f6c63430008110033",
  "devdoc": {
    "kind": "dev",
    "methods": {},
    "version": 1
  },
  "userdoc": {
    "kind": "user",
    "methods": {},
    "version": 1
  },
  "storageLayout": {
    "storage": [
      {
        "astId": 130,
        "contract": "contracts/GameStore.sol:GameStore",
        "label": "storeOriginalItems",
        "offset": 0,
        "slot": "0",
        "type": "t_array(t_address)dyn_storage"
      },
      {
        "astId": 133,
        "contract": "contracts/GameStore.sol:GameStore",
        "label": "storeCustomItems",
        "offset": 0,
        "slot": "1",
        "type": "t_array(t_address)dyn_storage"
      },
      {
        "astId": 137,
        "contract": "contracts/GameStore.sol:GameStore",
        "label": "Wallets",
        "offset": 0,
        "slot": "2",
        "type": "t_mapping(t_string_memory_ptr,t_address)"
      },
      {
        "astId": 141,
        "contract": "contracts/GameStore.sol:GameStore",
        "label": "listedStoreItemsToToken",
        "offset": 0,
        "slot": "3",
        "type": "t_mapping(t_address,t_uint256)"
      },
      {
        "astId": 145,
        "contract": "contracts/GameStore.sol:GameStore",
        "label": "listedUserMintedItemsToToken",
        "offset": 0,
        "slot": "4",
        "type": "t_mapping(t_address,t_uint256)"
      },
      {
        "astId": 149,
        "contract": "contracts/GameStore.sol:GameStore",
        "label": "listedUserTradeItemsToItems",
        "offset": 0,
        "slot": "5",
        "type": "t_mapping(t_address,t_address)"
      }
    ],
    "types": {
      "t_address": {
        "encoding": "inplace",
        "label": "address",
        "numberOfBytes": "20"
      },
      "t_array(t_address)dyn_storage": {
        "base": "t_address",
        "encoding": "dynamic_array",
        "label": "address[]",
        "numberOfBytes": "32"
      },
      "t_mapping(t_address,t_address)": {
        "encoding": "mapping",
        "key": "t_address",
        "label": "mapping(address => address)",
        "numberOfBytes": "32",
        "value": "t_address"
      },
      "t_mapping(t_address,t_uint256)": {
        "encoding": "mapping",
        "key": "t_address",
        "label": "mapping(address => uint256)",
        "numberOfBytes": "32",
        "value": "t_uint256"
      },
      "t_mapping(t_string_memory_ptr,t_address)": {
        "encoding": "mapping",
        "key": "t_string_memory_ptr",
        "label": "mapping(string => address)",
        "numberOfBytes": "32",
        "value": "t_address"
      },
      "t_string_memory_ptr": {
        "encoding": "bytes",
        "label": "string",
        "numberOfBytes": "32"
      },
      "t_uint256": {
        "encoding": "inplace",
        "label": "uint256",
        "numberOfBytes": "32"
      }
    }
  }
}