{
  "address": "0x27EA6ddf2329159a7A8a075119FeAe1B428F82Fa",
  "abi": [
    {
      "inputs": [],
      "stateMutability": "nonpayable",
      "type": "constructor"
    },
    {
      "inputs": [],
      "name": "GameStore_NotOwner",
      "type": "error"
    },
    {
      "inputs": [
        {
          "internalType": "string",
          "name": "",
          "type": "string"
        }
      ],
      "name": "Wallets",
      "outputs": [
        {
          "internalType": "address",
          "name": "",
          "type": "address"
        }
      ],
      "stateMutability": "view",
      "type": "function"
    },
    {
      "inputs": [
        {
          "internalType": "string",
          "name": "walletName",
          "type": "string"
        },
        {
          "internalType": "address",
          "name": "customItem",
          "type": "address"
        }
      ],
      "name": "buyCustomItems",
      "outputs": [],
      "stateMutability": "nonpayable",
      "type": "function"
    },
    {
      "inputs": [
        {
          "internalType": "string",
          "name": "name",
          "type": "string"
        },
        {
          "internalType": "address",
          "name": "gameItem",
          "type": "address"
        }
      ],
      "name": "buyOriginalItem",
      "outputs": [],
      "stateMutability": "nonpayable",
      "type": "function"
    },
    {
      "inputs": [
        {
          "internalType": "string",
          "name": "walletName",
          "type": "string"
        },
        {
          "internalType": "string",
          "name": "_name",
          "type": "string"
        },
        {
          "internalType": "string",
          "name": "_typeOf",
          "type": "string"
        },
        {
          "internalType": "uint256",
          "name": "_level",
          "type": "uint256"
        }
      ],
      "name": "createCustomItems",
      "outputs": [],
      "stateMutability": "nonpayable",
      "type": "function"
    },
    {
      "inputs": [
        {
          "internalType": "string",
          "name": "_name",
          "type": "string"
        },
        {
          "internalType": "string",
          "name": "_typeOf",
          "type": "string"
        },
        {
          "internalType": "uint256",
          "name": "_level",
          "type": "uint256"
        },
        {
          "internalType": "uint256",
          "name": "token",
          "type": "uint256"
        }
      ],
      "name": "createItem",
      "outputs": [],
      "stateMutability": "nonpayable",
      "type": "function"
    },
    {
      "inputs": [
        {
          "internalType": "string",
          "name": "name",
          "type": "string"
        }
      ],
      "name": "createWallet",
      "outputs": [],
      "stateMutability": "nonpayable",
      "type": "function"
    },
    {
      "inputs": [
        {
          "internalType": "string",
          "name": "name",
          "type": "string"
        }
      ],
      "name": "getWallet",
      "outputs": [
        {
          "internalType": "address",
          "name": "",
          "type": "address"
        }
      ],
      "stateMutability": "view",
      "type": "function"
    },
    {
      "inputs": [
        {
          "internalType": "address",
          "name": "",
          "type": "address"
        }
      ],
      "name": "listedStoreItemsToToken",
      "outputs": [
        {
          "internalType": "uint256",
          "name": "",
          "type": "uint256"
        }
      ],
      "stateMutability": "view",
      "type": "function"
    },
    {
      "inputs": [
        {
          "internalType": "address",
          "name": "",
          "type": "address"
        }
      ],
      "name": "listedUserMintedItemsToToken",
      "outputs": [
        {
          "internalType": "uint256",
          "name": "",
          "type": "uint256"
        }
      ],
      "stateMutability": "view",
      "type": "function"
    },
    {
      "inputs": [
        {
          "internalType": "uint256",
          "name": "",
          "type": "uint256"
        }
      ],
      "name": "listedUserTradeItemsToItems",
      "outputs": [
        {
          "internalType": "address",
          "name": "trader",
          "type": "address"
        },
        {
          "internalType": "address",
          "name": "item",
          "type": "address"
        },
        {
          "internalType": "address",
          "name": "itemNeeded",
          "type": "address"
        }
      ],
      "stateMutability": "view",
      "type": "function"
    },
    {
      "inputs": [
        {
          "internalType": "string",
          "name": "walletName",
          "type": "string"
        },
        {
          "internalType": "uint256",
          "name": "index",
          "type": "uint256"
        },
        {
          "internalType": "uint256",
          "name": "token",
          "type": "uint256"
        }
      ],
      "name": "listingCustomItems",
      "outputs": [],
      "stateMutability": "nonpayable",
      "type": "function"
    },
    {
      "inputs": [
        {
          "internalType": "string",
          "name": "walletName",
          "type": "string"
        },
        {
          "internalType": "uint256",
          "name": "index",
          "type": "uint256"
        },
        {
          "internalType": "address",
          "name": "tradableItem",
          "type": "address"
        }
      ],
      "name": "listingTradeItems",
      "outputs": [],
      "stateMutability": "nonpayable",
      "type": "function"
    },
    {
      "inputs": [],
      "name": "owner",
      "outputs": [
        {
          "internalType": "address",
          "name": "",
          "type": "address"
        }
      ],
      "stateMutability": "view",
      "type": "function"
    },
    {
      "inputs": [
        {
          "internalType": "uint256",
          "name": "",
          "type": "uint256"
        }
      ],
      "name": "storeCustomItems",
      "outputs": [
        {
          "internalType": "address",
          "name": "",
          "type": "address"
        }
      ],
      "stateMutability": "view",
      "type": "function"
    },
    {
      "inputs": [
        {
          "internalType": "uint256",
          "name": "",
          "type": "uint256"
        }
      ],
      "name": "storeOriginalItems",
      "outputs": [
        {
          "internalType": "address",
          "name": "",
          "type": "address"
        }
      ],
      "stateMutability": "view",
      "type": "function"
    },
    {
      "inputs": [
        {
          "internalType": "string",
          "name": "tradeAcceptorWalletName",
          "type": "string"
        },
        {
          "internalType": "uint256",
          "name": "index",
          "type": "uint256"
        }
      ],
      "name": "tradeItem",
      "outputs": [],
      "stateMutability": "nonpayable",
      "type": "function"
    }
  ],
  "transactionHash": "0xe59c885529bc32eee05b87b683f0cdb768f7ec78f20e1b864f3866d2604416aa",
  "args": [],
  "numDeployments": 2,
  "solcInputHash": "05949acf3e2cdab7ab26de29b4a89a72",
  "bytecode": "0x60a060405234801561001057600080fd5b503373ffffffffffffffffffffffffffffffffffffffff1660808173ffffffffffffffffffffffffffffffffffffffff16815250506080516159db6100676000396000818161161c015261192e01526159db6000f3fe60806040523480156200001157600080fd5b5060043610620001185760003560e01c80639f99fc3011620000a5578063cd0178e6116200006f578063cd0178e614620002f7578063cea1706c146200032f578063de929b411462000365578063fa01593f146200039b5762000118565b80639f99fc30146200024b578063a4e2df66146200026b578063c0c6927314620002a1578063c81034b114620002d75762000118565b80636fc36b3811620000e75780636fc36b3814620001b357806371e2288314620001d35780637404f1d214620002095780638da5cb5b14620002295762000118565b8063033ddeb2146200011d5780630e1020e8146200013d5780635742cc7514620001735780635a8a1c501462000193575b600080fd5b6200013b600480360381019062000135919062002c72565b620003bb565b005b6200015b600480360381019062000155919062002cd8565b620007c9565b6040516200016a919062002d3a565b60405180910390f35b6200019160048036038101906200018b919062002d92565b62000812565b005b620001b16004803603810190620001ab919062002df8565b62001252565b005b620001d16004803603810190620001cb919062002e73565b6200161a565b005b620001f16004803603810190620001eb919062002f23565b620017a0565b60405162000200919062002d3a565b60405180910390f35b62000227600480360381019062000221919062002cd8565b620017e0565b005b620002336200192c565b60405162000242919062002d3a565b60405180910390f35b62000269600480360381019062000263919062002c72565b62001950565b005b62000289600480360381019062000283919062002cd8565b62002029565b60405162000298919062002d3a565b60405180910390f35b620002bf6004803603810190620002b9919062002f55565b6200224c565b604051620002ce919062002f98565b60405180910390f35b620002f56004803603810190620002ef919062002fb5565b62002264565b005b6200031560048036038101906200030f919062002f23565b62002625565b604051620003269392919062003030565b60405180910390f35b6200034d600480360381019062000347919062002f55565b620026c0565b6040516200035c919062002f98565b60405180910390f35b6200038360048036038101906200037d919062002f23565b620026d8565b60405162000392919062002d3a565b60405180910390f35b620003b96004803603810190620003b391906200306d565b62002718565b005b600073ffffffffffffffffffffffffffffffffffffffff16600283604051620003e59190620031b5565b908152602001604051809103902060009054906101000a900473ffffffffffffffffffffffffffffffffffffffff1673ffffffffffffffffffffffffffffffffffffffff16141580156200047957506000600360008373ffffffffffffffffffffffffffffffffffffffff1673ffffffffffffffffffffffffffffffffffffffff1681526020019081526020016000205414155b620004bb576040517f08c379a0000000000000000000000000000000000000000000000000000000008152600401620004b29062003255565b60405180910390fd5b6000600283604051620004cf9190620031b5565b908152602001604051809103902060009054906101000a900473ffffffffffffffffffffffffffffffffffffffff1690503373ffffffffffffffffffffffffffffffffffffffff168173ffffffffffffffffffffffffffffffffffffffff1663893d20e86040518163ffffffff1660e01b8152600401602060405180830381865afa15801562000563573d6000803e3d6000fd5b505050506040513d601f19601f820116820180604052508101906200058991906200328e565b73ffffffffffffffffffffffffffffffffffffffff161480156200065d5750600360008373ffffffffffffffffffffffffffffffffffffffff1673ffffffffffffffffffffffffffffffffffffffff168152602001908152602001600020548173ffffffffffffffffffffffffffffffffffffffff1663564b28a06040518163ffffffff1660e01b8152600401602060405180830381865afa15801562000634573d6000803e3d6000fd5b505050506040513d601f19601f820116820180604052508101906200065a9190620032d7565b10155b6200069f576040517f08c379a0000000000000000000000000000000000000000000000000000000008152600401620006969062003359565b60405180910390fd5b60008290508073ffffffffffffffffffffffffffffffffffffffff16637065cb48836040518263ffffffff1660e01b8152600401620006df919062002d3a565b600060405180830381600087803b158015620006fa57600080fd5b505af11580156200070f573d6000803e3d6000fd5b505050508173ffffffffffffffffffffffffffffffffffffffff16639f37092a82600360008773ffffffffffffffffffffffffffffffffffffffff1673ffffffffffffffffffffffffffffffffffffffff168152602001908152602001600020546040518363ffffffff1660e01b81526004016200078f9291906200337b565b600060405180830381600087803b158015620007aa57600080fd5b505af1158015620007bf573d6000803e3d6000fd5b5050505050505050565b6002818051602081018201805184825260208301602085012081835280955050505050506000915054906101000a900473ffffffffffffffffffffffffffffffffffffffff1681565b600073ffffffffffffffffffffffffffffffffffffffff166002836040516200083c9190620031b5565b908152602001604051809103902060009054906101000a900473ffffffffffffffffffffffffffffffffffffffff1673ffffffffffffffffffffffffffffffffffffffff1603620008c4576040517f08c379a0000000000000000000000000000000000000000000000000000000008152600401620008bb9062003255565b60405180910390fd5b6000600283604051620008d89190620031b5565b908152602001604051809103902060009054906101000a900473ffffffffffffffffffffffffffffffffffffffff1690503373ffffffffffffffffffffffffffffffffffffffff168173ffffffffffffffffffffffffffffffffffffffff1663893d20e86040518163ffffffff1660e01b8152600401602060405180830381865afa1580156200096c573d6000803e3d6000fd5b505050506040513d601f19601f820116820180604052508101906200099291906200328e565b73ffffffffffffffffffffffffffffffffffffffff1614620009eb576040517f08c379a0000000000000000000000000000000000000000000000000000000008152600401620009e29062003359565b60405180910390fd5b60006005838154811062000a045762000a03620033a8565b5b90600052602060002090600302016040518060600160405290816000820160009054906101000a900473ffffffffffffffffffffffffffffffffffffffff1673ffffffffffffffffffffffffffffffffffffffff1673ffffffffffffffffffffffffffffffffffffffff1681526020016001820160009054906101000a900473ffffffffffffffffffffffffffffffffffffffff1673ffffffffffffffffffffffffffffffffffffffff1673ffffffffffffffffffffffffffffffffffffffff1681526020016002820160009054906101000a900473ffffffffffffffffffffffffffffffffffffffff1673ffffffffffffffffffffffffffffffffffffffff1673ffffffffffffffffffffffffffffffffffffffff168152505090506000816000015190506000826020015190506000836040015190508073ffffffffffffffffffffffffffffffffffffffff16632f54bf6e866040518263ffffffff1660e01b815260040162000b77919062002d3a565b602060405180830381865afa15801562000b95573d6000803e3d6000fd5b505050506040513d601f19601f8201168201806040525081019062000bbb919062003414565b62000bfd576040517f08c379a000000000000000000000000000000000000000000000000000000000815260040162000bf49062003496565b60405180910390fd5b8173ffffffffffffffffffffffffffffffffffffffff166393ba06788686600001516040518363ffffffff1660e01b815260040162000c3e929190620034b8565b600060405180830381600087803b15801562000c5957600080fd5b505af115801562000c6e573d6000803e3d6000fd5b505050508073ffffffffffffffffffffffffffffffffffffffff166393ba06788560000151876040518363ffffffff1660e01b815260040162000cb3929190620034b8565b600060405180830381600087803b15801562000cce57600080fd5b505af115801562000ce3573d6000803e3d6000fd5b505050508473ffffffffffffffffffffffffffffffffffffffff166327346b4282846040518363ffffffff1660e01b815260040162000d24929190620034b8565b600060405180830381600087803b15801562000d3f57600080fd5b505af115801562000d54573d6000803e3d6000fd5b505050508273ffffffffffffffffffffffffffffffffffffffff166327346b4283836040518363ffffffff1660e01b815260040162000d95929190620034b8565b600060405180830381600087803b15801562000db057600080fd5b505af115801562000dc5573d6000803e3d6000fd5b5050505060006005878154811062000de25762000de1620033a8565b5b90600052602060002090600302016040518060600160405290816000820160009054906101000a900473ffffffffffffffffffffffffffffffffffffffff1673ffffffffffffffffffffffffffffffffffffffff1673ffffffffffffffffffffffffffffffffffffffff1681526020016001820160009054906101000a900473ffffffffffffffffffffffffffffffffffffffff1673ffffffffffffffffffffffffffffffffffffffff1673ffffffffffffffffffffffffffffffffffffffff1681526020016002820160009054906101000a900473ffffffffffffffffffffffffffffffffffffffff1673ffffffffffffffffffffffffffffffffffffffff1673ffffffffffffffffffffffffffffffffffffffff168152505090506005600160058054905062000f15919062003514565b8154811062000f295762000f28620033a8565b5b90600052602060002090600302016005888154811062000f4e5762000f4d620033a8565b5b90600052602060002090600302016000820160009054906101000a900473ffffffffffffffffffffffffffffffffffffffff168160000160006101000a81548173ffffffffffffffffffffffffffffffffffffffff021916908373ffffffffffffffffffffffffffffffffffffffff1602179055506001820160009054906101000a900473ffffffffffffffffffffffffffffffffffffffff168160010160006101000a81548173ffffffffffffffffffffffffffffffffffffffff021916908373ffffffffffffffffffffffffffffffffffffffff1602179055506002820160009054906101000a900473ffffffffffffffffffffffffffffffffffffffff168160020160006101000a81548173ffffffffffffffffffffffffffffffffffffffff021916908373ffffffffffffffffffffffffffffffffffffffff1602179055509050508060056001600580549050620010ab919062003514565b81548110620010bf57620010be620033a8565b5b906000526020600020906003020160008201518160000160006101000a81548173ffffffffffffffffffffffffffffffffffffffff021916908373ffffffffffffffffffffffffffffffffffffffff16021790555060208201518160010160006101000a81548173ffffffffffffffffffffffffffffffffffffffff021916908373ffffffffffffffffffffffffffffffffffffffff16021790555060408201518160020160006101000a81548173ffffffffffffffffffffffffffffffffffffffff021916908373ffffffffffffffffffffffffffffffffffffffff1602179055509050506005805480620011ba57620011b96200354f565b5b6001900381819060005260206000209060030201600080820160006101000a81549073ffffffffffffffffffffffffffffffffffffffff02191690556001820160006101000a81549073ffffffffffffffffffffffffffffffffffffffff02191690556002820160006101000a81549073ffffffffffffffffffffffffffffffffffffffff0219169055505090555050505050505050565b600073ffffffffffffffffffffffffffffffffffffffff166002846040516200127c9190620031b5565b908152602001604051809103902060009054906101000a900473ffffffffffffffffffffffffffffffffffffffff1673ffffffffffffffffffffffffffffffffffffffff160362001304576040517f08c379a0000000000000000000000000000000000000000000000000000000008152600401620012fb9062003255565b60405180910390fd5b6000600284604051620013189190620031b5565b908152602001604051809103902060009054906101000a900473ffffffffffffffffffffffffffffffffffffffff1690503373ffffffffffffffffffffffffffffffffffffffff168173ffffffffffffffffffffffffffffffffffffffff1663893d20e86040518163ffffffff1660e01b8152600401602060405180830381865afa158015620013ac573d6000803e3d6000fd5b505050506040513d601f19601f82011682018060405250810190620013d291906200328e565b73ffffffffffffffffffffffffffffffffffffffff16146200142b576040517f08c379a0000000000000000000000000000000000000000000000000000000008152600401620014229062003359565b60405180910390fd5b60008173ffffffffffffffffffffffffffffffffffffffff16633129e773856040518263ffffffff1660e01b815260040162001468919062002f98565b602060405180830381865afa15801562001486573d6000803e3d6000fd5b505050506040513d601f19601f82011682018060405250810190620014ac91906200328e565b9050600060405180606001604052808473ffffffffffffffffffffffffffffffffffffffff1681526020018373ffffffffffffffffffffffffffffffffffffffff1681526020018573ffffffffffffffffffffffffffffffffffffffff168152509050600581908060018154018082558091505060019003906000526020600020906003020160009091909190915060008201518160000160006101000a81548173ffffffffffffffffffffffffffffffffffffffff021916908373ffffffffffffffffffffffffffffffffffffffff16021790555060208201518160010160006101000a81548173ffffffffffffffffffffffffffffffffffffffff021916908373ffffffffffffffffffffffffffffffffffffffff16021790555060408201518160020160006101000a81548173ffffffffffffffffffffffffffffffffffffffff021916908373ffffffffffffffffffffffffffffffffffffffff1602179055505050505050505050565b7f000000000000000000000000000000000000000000000000000000000000000073ffffffffffffffffffffffffffffffffffffffff163373ffffffffffffffffffffffffffffffffffffffff1614620016a0576040517fb39a50da00000000000000000000000000000000000000000000000000000000815260040160405180910390fd5b6000848484604051620016b39062002a7b565b620016c1939291906200360f565b604051809103906000f080158015620016de573d6000803e3d6000fd5b5090506000819080600181540180825580915050600190039060005260206000200160009091909190916101000a81548173ffffffffffffffffffffffffffffffffffffffff021916908373ffffffffffffffffffffffffffffffffffffffff1602179055506305f5e100826200175691906200366f565b600360008373ffffffffffffffffffffffffffffffffffffffff1673ffffffffffffffffffffffffffffffffffffffff168152602001908152602001600020819055505050505050565b60018181548110620017b157600080fd5b906000526020600020016000915054906101000a900473ffffffffffffffffffffffffffffffffffffffff1681565b600073ffffffffffffffffffffffffffffffffffffffff166002826040516200180a9190620031b5565b908152602001604051809103902060009054906101000a900473ffffffffffffffffffffffffffffffffffffffff1673ffffffffffffffffffffffffffffffffffffffff161462001892576040517f08c379a000000000000000000000000000000000000000000000000000000000815260040162001889906200370a565b60405180910390fd5b33604051620018a19062002a89565b620018ad919062002d3a565b604051809103906000f080158015620018ca573d6000803e3d6000fd5b50600282604051620018dd9190620031b5565b908152602001604051809103902060006101000a81548173ffffffffffffffffffffffffffffffffffffffff021916908373ffffffffffffffffffffffffffffffffffffffff16021790555050565b7f000000000000000000000000000000000000000000000000000000000000000081565b600073ffffffffffffffffffffffffffffffffffffffff166002836040516200197a9190620031b5565b908152602001604051809103902060009054906101000a900473ffffffffffffffffffffffffffffffffffffffff1673ffffffffffffffffffffffffffffffffffffffff160362001a02576040517f08c379a0000000000000000000000000000000000000000000000000000000008152600401620019f99062003255565b60405180910390fd5b6000600460008373ffffffffffffffffffffffffffffffffffffffff1673ffffffffffffffffffffffffffffffffffffffff168152602001908152602001600020540362001a87576040517f08c379a000000000000000000000000000000000000000000000000000000000815260040162001a7e906200377c565b60405180910390fd5b600060028360405162001a9b9190620031b5565b908152602001604051809103902060009054906101000a900473ffffffffffffffffffffffffffffffffffffffff1690503373ffffffffffffffffffffffffffffffffffffffff168173ffffffffffffffffffffffffffffffffffffffff1663893d20e86040518163ffffffff1660e01b8152600401602060405180830381865afa15801562001b2f573d6000803e3d6000fd5b505050506040513d601f19601f8201168201806040525081019062001b5591906200328e565b73ffffffffffffffffffffffffffffffffffffffff1614801562001c295750600460008373ffffffffffffffffffffffffffffffffffffffff1673ffffffffffffffffffffffffffffffffffffffff168152602001908152602001600020548173ffffffffffffffffffffffffffffffffffffffff1663564b28a06040518163ffffffff1660e01b8152600401602060405180830381865afa15801562001c00573d6000803e3d6000fd5b505050506040513d601f19601f8201168201806040525081019062001c269190620032d7565b10155b62001c6b576040517f08c379a000000000000000000000000000000000000000000000000000000000815260040162001c629062003814565b60405180910390fd5b60008290508073ffffffffffffffffffffffffffffffffffffffff1663025e7c2760006040518263ffffffff1660e01b815260040162001cac919062003883565b602060405180830381865afa15801562001cca573d6000803e3d6000fd5b505050506040513d601f19601f8201168201806040525081019062001cf091906200328e565b73ffffffffffffffffffffffffffffffffffffffff168273ffffffffffffffffffffffffffffffffffffffff1663893d20e86040518163ffffffff1660e01b8152600401602060405180830381865afa15801562001d52573d6000803e3d6000fd5b505050506040513d601f19601f8201168201806040525081019062001d7891906200328e565b73ffffffffffffffffffffffffffffffffffffffff160362001dd1576040517f08c379a000000000000000000000000000000000000000000000000000000000815260040162001dc89062003916565b60405180910390fd5b8073ffffffffffffffffffffffffffffffffffffffff16637065cb48836040518263ffffffff1660e01b815260040162001e0c919062002d3a565b600060405180830381600087803b15801562001e2757600080fd5b505af115801562001e3c573d6000803e3d6000fd5b505050508173ffffffffffffffffffffffffffffffffffffffff16639f37092a82600460008773ffffffffffffffffffffffffffffffffffffffff1673ffffffffffffffffffffffffffffffffffffffff168152602001908152602001600020546040518363ffffffff1660e01b815260040162001ebc9291906200337b565b600060405180830381600087803b15801562001ed757600080fd5b505af115801562001eec573d6000803e3d6000fd5b5050505060008173ffffffffffffffffffffffffffffffffffffffff1663c41a360a60006040518263ffffffff1660e01b815260040162001f2e919062003883565b602060405180830381865afa15801562001f4c573d6000803e3d6000fd5b505050506040513d601f19601f8201168201806040525081019062001f7291906200328e565b90508073ffffffffffffffffffffffffffffffffffffffff166337df00c9600460008773ffffffffffffffffffffffffffffffffffffffff1673ffffffffffffffffffffffffffffffffffffffff168152602001908152602001600020546040518263ffffffff1660e01b815260040162001fee919062002f98565b600060405180830381600087803b1580156200200957600080fd5b505af11580156200201e573d6000803e3d6000fd5b505050505050505050565b60008073ffffffffffffffffffffffffffffffffffffffff16600283604051620020549190620031b5565b908152602001604051809103902060009054906101000a900473ffffffffffffffffffffffffffffffffffffffff1673ffffffffffffffffffffffffffffffffffffffff1603620020dc576040517f08c379a0000000000000000000000000000000000000000000000000000000008152600401620020d39062003988565b60405180910390fd5b6000600283604051620020f09190620031b5565b908152602001604051809103902060009054906101000a900473ffffffffffffffffffffffffffffffffffffffff1690503373ffffffffffffffffffffffffffffffffffffffff168173ffffffffffffffffffffffffffffffffffffffff1663893d20e86040518163ffffffff1660e01b8152600401602060405180830381865afa15801562002184573d6000803e3d6000fd5b505050506040513d601f19601f82011682018060405250810190620021aa91906200328e565b73ffffffffffffffffffffffffffffffffffffffff161462002203576040517f08c379a0000000000000000000000000000000000000000000000000000000008152600401620021fa9062003359565b60405180910390fd5b600283604051620022159190620031b5565b908152602001604051809103902060009054906101000a900473ffffffffffffffffffffffffffffffffffffffff16915050919050565b60036020528060005260406000206000915090505481565b600073ffffffffffffffffffffffffffffffffffffffff166002846040516200228e9190620031b5565b908152602001604051809103902060009054906101000a900473ffffffffffffffffffffffffffffffffffffffff1673ffffffffffffffffffffffffffffffffffffffff160362002316576040517f08c379a00000000000000000000000000000000000000000000000000000000081526004016200230d9062003255565b60405180910390fd5b60006002846040516200232a9190620031b5565b908152602001604051809103902060009054906101000a900473ffffffffffffffffffffffffffffffffffffffff1690503373ffffffffffffffffffffffffffffffffffffffff168173ffffffffffffffffffffffffffffffffffffffff1663893d20e86040518163ffffffff1660e01b8152600401602060405180830381865afa158015620023be573d6000803e3d6000fd5b505050506040513d601f19601f82011682018060405250810190620023e491906200328e565b73ffffffffffffffffffffffffffffffffffffffff16146200243d576040517f08c379a0000000000000000000000000000000000000000000000000000000008152600401620024349062003359565b60405180910390fd5b60008173ffffffffffffffffffffffffffffffffffffffff16633129e773856040518263ffffffff1660e01b81526004016200247a919062002f98565b602060405180830381865afa15801562002498573d6000803e3d6000fd5b505050506040513d601f19601f82011682018060405250810190620024be91906200328e565b9050604051602001620024d190620039aa565b604051602081830303815290604052805190602001208173ffffffffffffffffffffffffffffffffffffffff16630d8e6e2c6040518163ffffffff1660e01b8152600401600060405180830381865afa15801562002533573d6000803e3d6000fd5b505050506040513d6000823e3d601f19601f820116820180604052508101906200255e919062003a4a565b60405160200162002570919062003a9b565b6040516020818303038152906040528051906020012003620025c9576040517f08c379a0000000000000000000000000000000000000000000000000000000008152600401620025c09062003b0f565b60405180910390fd5b6305f5e10083620025db91906200366f565b600460008373ffffffffffffffffffffffffffffffffffffffff1673ffffffffffffffffffffffffffffffffffffffff168152602001908152602001600020819055505050505050565b600581815481106200263657600080fd5b90600052602060002090600302016000915090508060000160009054906101000a900473ffffffffffffffffffffffffffffffffffffffff16908060010160009054906101000a900473ffffffffffffffffffffffffffffffffffffffff16908060020160009054906101000a900473ffffffffffffffffffffffffffffffffffffffff16905083565b60046020528060005260406000206000915090505481565b60008181548110620026e957600080fd5b906000526020600020016000915054906101000a900473ffffffffffffffffffffffffffffffffffffffff1681565b600073ffffffffffffffffffffffffffffffffffffffff16600285604051620027429190620031b5565b908152602001604051809103902060009054906101000a900473ffffffffffffffffffffffffffffffffffffffff1673ffffffffffffffffffffffffffffffffffffffff1603620027ca576040517f08c379a0000000000000000000000000000000000000000000000000000000008152600401620027c19062003255565b60405180910390fd5b6000600285604051620027de9190620031b5565b908152602001604051809103902060009054906101000a900473ffffffffffffffffffffffffffffffffffffffff1690503373ffffffffffffffffffffffffffffffffffffffff168173ffffffffffffffffffffffffffffffffffffffff1663893d20e86040518163ffffffff1660e01b8152600401602060405180830381865afa15801562002872573d6000803e3d6000fd5b505050506040513d601f19601f820116820180604052508101906200289891906200328e565b73ffffffffffffffffffffffffffffffffffffffff1614620028f1576040517f08c379a0000000000000000000000000000000000000000000000000000000008152600401620028e89062003359565b60405180910390fd5b6000848484604051620029049062002a7b565b620029129392919062003b81565b604051809103906000f0801580156200292f573d6000803e3d6000fd5b5090506001819080600181540180825580915050600190039060005260206000200160009091909190916101000a81548173ffffffffffffffffffffffffffffffffffffffff021916908373ffffffffffffffffffffffffffffffffffffffff1602179055508073ffffffffffffffffffffffffffffffffffffffff16637065cb48836040518263ffffffff1660e01b8152600401620029d0919062002d3a565b600060405180830381600087803b158015620029eb57600080fd5b505af115801562002a00573d6000803e3d6000fd5b505050508173ffffffffffffffffffffffffffffffffffffffff16633112a97b826040518263ffffffff1660e01b815260040162002a3f919062002d3a565b600060405180830381600087803b15801562002a5a57600080fd5b505af115801562002a6f573d6000803e3d6000fd5b50505050505050505050565b6114328062003be283390190565b610992806200501483390190565b6000604051905090565b600080fd5b600080fd5b600080fd5b600080fd5b6000601f19601f8301169050919050565b7f4e487b7100000000000000000000000000000000000000000000000000000000600052604160045260246000fd5b62002b008262002ab5565b810181811067ffffffffffffffff8211171562002b225762002b2162002ac6565b5b80604052505050565b600062002b3762002a97565b905062002b45828262002af5565b919050565b600067ffffffffffffffff82111562002b685762002b6762002ac6565b5b62002b738262002ab5565b9050602081019050919050565b82818337600083830152505050565b600062002ba662002ba08462002b4a565b62002b2b565b90508281526020810184848401111562002bc55762002bc462002ab0565b5b62002bd284828562002b80565b509392505050565b600082601f83011262002bf25762002bf162002aab565b5b813562002c0484826020860162002b8f565b91505092915050565b600073ffffffffffffffffffffffffffffffffffffffff82169050919050565b600062002c3a8262002c0d565b9050919050565b62002c4c8162002c2d565b811462002c5857600080fd5b50565b60008135905062002c6c8162002c41565b92915050565b6000806040838503121562002c8c5762002c8b62002aa1565b5b600083013567ffffffffffffffff81111562002cad5762002cac62002aa6565b5b62002cbb8582860162002bda565b925050602062002cce8582860162002c5b565b9150509250929050565b60006020828403121562002cf15762002cf062002aa1565b5b600082013567ffffffffffffffff81111562002d125762002d1162002aa6565b5b62002d208482850162002bda565b91505092915050565b62002d348162002c2d565b82525050565b600060208201905062002d51600083018462002d29565b92915050565b6000819050919050565b62002d6c8162002d57565b811462002d7857600080fd5b50565b60008135905062002d8c8162002d61565b92915050565b6000806040838503121562002dac5762002dab62002aa1565b5b600083013567ffffffffffffffff81111562002dcd5762002dcc62002aa6565b5b62002ddb8582860162002bda565b925050602062002dee8582860162002d7b565b9150509250929050565b60008060006060848603121562002e145762002e1362002aa1565b5b600084013567ffffffffffffffff81111562002e355762002e3462002aa6565b5b62002e438682870162002bda565b935050602062002e568682870162002d7b565b925050604062002e698682870162002c5b565b9150509250925092565b6000806000806080858703121562002e905762002e8f62002aa1565b5b600085013567ffffffffffffffff81111562002eb15762002eb062002aa6565b5b62002ebf8782880162002bda565b945050602085013567ffffffffffffffff81111562002ee35762002ee262002aa6565b5b62002ef18782880162002bda565b935050604062002f048782880162002d7b565b925050606062002f178782880162002d7b565b91505092959194509250565b60006020828403121562002f3c5762002f3b62002aa1565b5b600062002f4c8482850162002d7b565b91505092915050565b60006020828403121562002f6e5762002f6d62002aa1565b5b600062002f7e8482850162002c5b565b91505092915050565b62002f928162002d57565b82525050565b600060208201905062002faf600083018462002f87565b92915050565b60008060006060848603121562002fd15762002fd062002aa1565b5b600084013567ffffffffffffffff81111562002ff25762002ff162002aa6565b5b620030008682870162002bda565b9350506020620030138682870162002d7b565b9250506040620030268682870162002d7b565b9150509250925092565b600060608201905062003047600083018662002d29565b62003056602083018562002d29565b62003065604083018462002d29565b949350505050565b600080600080608085870312156200308a576200308962002aa1565b5b600085013567ffffffffffffffff811115620030ab57620030aa62002aa6565b5b620030b98782880162002bda565b945050602085013567ffffffffffffffff811115620030dd57620030dc62002aa6565b5b620030eb8782880162002bda565b935050604085013567ffffffffffffffff8111156200310f576200310e62002aa6565b5b6200311d8782880162002bda565b9250506060620031308782880162002d7b565b91505092959194509250565b600081519050919050565b600081905092915050565b60005b838110156200317257808201518184015260208101905062003155565b60008484015250505050565b60006200318b826200313c565b62003197818562003147565b9350620031a981856020860162003152565b80840191505092915050565b6000620031c382846200317e565b915081905092915050565b600082825260208201905092915050565b7f57616c6c6574206f722067616d65206974656d20646f6573206e6f742065786960008201527f7374212100000000000000000000000000000000000000000000000000000000602082015250565b60006200323d602483620031ce565b91506200324a82620031df565b604082019050919050565b6000602082019050818103600083015262003270816200322e565b9050919050565b600081519050620032888162002c41565b92915050565b600060208284031215620032a757620032a662002aa1565b5b6000620032b78482850162003277565b91505092915050565b600081519050620032d18162002d61565b92915050565b600060208284031215620032f057620032ef62002aa1565b5b60006200330084828501620032c0565b91505092915050565b7f57616c6c6574206973206e6f74206f776e656420627920796f75212121000000600082015250565b600062003341601d83620031ce565b91506200334e8262003309565b602082019050919050565b60006020820190508181036000830152620033748162003332565b9050919050565b600060408201905062003392600083018562002d29565b620033a1602083018462002f87565b9392505050565b7f4e487b7100000000000000000000000000000000000000000000000000000000600052603260045260246000fd5b60008115159050919050565b620033ee81620033d7565b8114620033fa57600080fd5b50565b6000815190506200340e81620033e3565b92915050565b6000602082840312156200342d576200342c62002aa1565b5b60006200343d84828501620033fd565b91505092915050565b7f596f7520646f6e27742068617665207265717569726564206974656d21212121600082015250565b60006200347e602083620031ce565b91506200348b8262003446565b602082019050919050565b60006020820190508181036000830152620034b1816200346f565b9050919050565b6000604082019050620034cf600083018562002d29565b620034de602083018462002d29565b9392505050565b7f4e487b7100000000000000000000000000000000000000000000000000000000600052601160045260246000fd5b6000620035218262002d57565b91506200352e8362002d57565b9250828203905081811115620035495762003548620034e5565b5b92915050565b7f4e487b7100000000000000000000000000000000000000000000000000000000600052603160045260246000fd5b60006200358b826200313c565b620035978185620031ce565b9350620035a981856020860162003152565b620035b48162002ab5565b840191505092915050565b7f636c617373696300000000000000000000000000000000000000000000000000600082015250565b6000620035f7600783620031ce565b91506200360482620035bf565b602082019050919050565b600060808201905081810360008301526200362b81866200357e565b905081810360208301526200364181856200357e565b905062003652604083018462002f87565b81810360608301526200366581620035e8565b9050949350505050565b60006200367c8262002d57565b9150620036898362002d57565b9250828202620036998162002d57565b91508282048414831517620036b357620036b2620034e5565b5b5092915050565b7f57616c6c65742065786973742121000000000000000000000000000000000000600082015250565b6000620036f2600e83620031ce565b9150620036ff82620036ba565b602082019050919050565b600060208201905081810360008301526200372581620036e3565b9050919050565b7f437573746f6d204974656d206e6f74206c697374656420796574212100000000600082015250565b600062003764601c83620031ce565b915062003771826200372c565b602082019050919050565b60006020820190508181036000830152620037978162003755565b9050919050565b7f57616c6c6574206973206e6f74206f776e656420627920796f75206f7220796f60008201527f7520646f6e2774206861766520656e6f75676820746f6b656e73212121000000602082015250565b6000620037fc603d83620031ce565b915062003809826200379e565b604082019050919050565b600060208201905081810360008301526200382f81620037ed565b9050919050565b6000819050919050565b6000819050919050565b60006200386b620038656200385f8462003836565b62003840565b62002d57565b9050919050565b6200387d816200384a565b82525050565b60006020820190506200389a600083018462003872565b92915050565b7f4974656d2043726561746f722063616e6e6f742062757920637573746f6d206960008201527f74656d2121210000000000000000000000000000000000000000000000000000602082015250565b6000620038fe602683620031ce565b91506200390b82620038a0565b604082019050919050565b600060208201905081810360008301526200393181620038ef565b9050919050565b7f57616c6c657420646f6573206e6f742065786973742121000000000000000000600082015250565b600062003970601783620031ce565b91506200397d8262003938565b602082019050919050565b60006020820190508181036000830152620039a38162003961565b9050919050565b60006020820190508181036000830152620039c581620035e8565b9050919050565b6000620039e3620039dd8462002b4a565b62002b2b565b90508281526020810184848401111562003a025762003a0162002ab0565b5b62003a0f84828562003152565b509392505050565b600082601f83011262003a2f5762003a2e62002aab565b5b815162003a41848260208601620039cc565b91505092915050565b60006020828403121562003a635762003a6262002aa1565b5b600082015167ffffffffffffffff81111562003a845762003a8362002aa6565b5b62003a928482850162003a17565b91505092915050565b6000602082019050818103600083015262003ab781846200357e565b905092915050565b7f4f6e6c7920437573746f6d204974656d2063616e206265206c69737465640000600082015250565b600062003af7601e83620031ce565b915062003b048262003abf565b602082019050919050565b6000602082019050818103600083015262003b2a8162003ae8565b9050919050565b7f637573746f6d0000000000000000000000000000000000000000000000000000600082015250565b600062003b69600683620031ce565b915062003b768262003b31565b602082019050919050565b6000608082019050818103600083015262003b9d81866200357e565b9050818103602083015262003bb381856200357e565b905062003bc4604083018462002f87565b818103606083015262003bd78162003b5a565b905094935050505056fe60806040523480156200001157600080fd5b50604051620014323803806200143283398181016040528101906200003791906200024c565b83600190816200004891906200055c565b5082600290816200005a91906200055c565b508160038190555080600490816200007391906200055c565b505050505062000643565b6000604051905090565b600080fd5b600080fd5b600080fd5b600080fd5b6000601f19601f8301169050919050565b7f4e487b7100000000000000000000000000000000000000000000000000000000600052604160045260246000fd5b620000e7826200009c565b810181811067ffffffffffffffff82111715620001095762000108620000ad565b5b80604052505050565b60006200011e6200007e565b90506200012c8282620000dc565b919050565b600067ffffffffffffffff8211156200014f576200014e620000ad565b5b6200015a826200009c565b9050602081019050919050565b60005b83811015620001875780820151818401526020810190506200016a565b60008484015250505050565b6000620001aa620001a48462000131565b62000112565b905082815260208101848484011115620001c957620001c862000097565b5b620001d684828562000167565b509392505050565b600082601f830112620001f657620001f562000092565b5b81516200020884826020860162000193565b91505092915050565b6000819050919050565b620002268162000211565b81146200023257600080fd5b50565b60008151905062000246816200021b565b92915050565b6000806000806080858703121562000269576200026862000088565b5b600085015167ffffffffffffffff8111156200028a57620002896200008d565b5b6200029887828801620001de565b945050602085015167ffffffffffffffff811115620002bc57620002bb6200008d565b5b620002ca87828801620001de565b9350506040620002dd8782880162000235565b925050606085015167ffffffffffffffff8111156200030157620003006200008d565b5b6200030f87828801620001de565b91505092959194509250565b600081519050919050565b7f4e487b7100000000000000000000000000000000000000000000000000000000600052602260045260246000fd5b600060028204905060018216806200036e57607f821691505b60208210810362000384576200038362000326565b5b50919050565b60008190508160005260206000209050919050565b60006020601f8301049050919050565b600082821b905092915050565b600060088302620003ee7fffffffffffffffffffffffffffffffffffffffffffffffffffffffffffffffff82620003af565b620003fa8683620003af565b95508019841693508086168417925050509392505050565b6000819050919050565b60006200043d62000437620004318462000211565b62000412565b62000211565b9050919050565b6000819050919050565b62000459836200041c565b62000471620004688262000444565b848454620003bc565b825550505050565b600090565b6200048862000479565b620004958184846200044e565b505050565b5b81811015620004bd57620004b16000826200047e565b6001810190506200049b565b5050565b601f8211156200050c57620004d6816200038a565b620004e1846200039f565b81016020851015620004f1578190505b6200050962000500856200039f565b8301826200049a565b50505b505050565b600082821c905092915050565b6000620005316000198460080262000511565b1980831691505092915050565b60006200054c83836200051e565b9150826002028217905092915050565b62000567826200031b565b67ffffffffffffffff811115620005835762000582620000ad565b5b6200058f825462000355565b6200059c828285620004c1565b600060209050601f831160018114620005d45760008415620005bf578287015190505b620005cb85826200053e565b8655506200063b565b601f198416620005e4866200038a565b60005b828110156200060e57848901518255600182019150602085019450602081019050620005e7565b868310156200062e57848901516200062a601f8916826200051e565b8355505b6001600288020188555050505b505050505050565b610ddf80620006536000396000f3fe608060405234801561001057600080fd5b50600436106100ea5760003560e01c80636fd5ae151161008c578063963cb78411610066578063963cb7841461023b578063a0e67e2b14610259578063a5985e8c14610277578063c41a360a14610295576100ea565b80636fd5ae15146101e55780637065cb481461020357806393ba06781461021f576100ea565b806317d7de7c116100c857806317d7de7c1461015b5780632f54bf6e1461017957806354fd4d50146101a957806357fc69d5146101c7576100ea565b8063025e7c27146100ef57806306fdde031461011f5780630d8e6e2c1461013d575b600080fd5b6101096004803603810190610104919061098f565b6102c5565b60405161011691906109fd565b60405180910390f35b610127610304565b6040516101349190610aa8565b60405180910390f35b610145610392565b6040516101529190610aa8565b60405180910390f35b610163610424565b6040516101709190610aa8565b60405180910390f35b610193600480360381019061018e9190610af6565b6104b6565b6040516101a09190610b3e565b60405180910390f35b6101b1610564565b6040516101be9190610aa8565b60405180910390f35b6101cf6105f2565b6040516101dc9190610aa8565b60405180910390f35b6101ed610680565b6040516101fa9190610b68565b60405180910390f35b61021d60048036038101906102189190610af6565b610686565b005b61023960048036038101906102349190610b83565b6106ec565b005b6102436107e3565b6040516102509190610aa8565b60405180910390f35b610261610875565b60405161026e9190610c81565b60405180910390f35b61027f610903565b60405161028c9190610b68565b60405180910390f35b6102af60048036038101906102aa919061098f565b61090d565b6040516102bc91906109fd565b60405180910390f35b600081815481106102d557600080fd5b906000526020600020016000915054906101000a900473ffffffffffffffffffffffffffffffffffffffff1681565b6001805461031190610cd2565b80601f016020809104026020016040519081016040528092919081815260200182805461033d90610cd2565b801561038a5780601f1061035f5761010080835404028352916020019161038a565b820191906000526020600020905b81548152906001019060200180831161036d57829003601f168201915b505050505081565b6060600480546103a190610cd2565b80601f01602080910402602001604051908101604052809291908181526020018280546103cd90610cd2565b801561041a5780601f106103ef5761010080835404028352916020019161041a565b820191906000526020600020905b8154815290600101906020018083116103fd57829003601f168201915b5050505050905090565b60606001805461043390610cd2565b80601f016020809104026020016040519081016040528092919081815260200182805461045f90610cd2565b80156104ac5780601f10610481576101008083540402835291602001916104ac565b820191906000526020600020905b81548152906001019060200180831161048f57829003601f168201915b5050505050905090565b600080600090505b600080549050811015610559578273ffffffffffffffffffffffffffffffffffffffff16600082815481106104f6576104f5610d03565b5b9060005260206000200160009054906101000a900473ffffffffffffffffffffffffffffffffffffffff1673ffffffffffffffffffffffffffffffffffffffff160361054657600191505061055f565b808061055190610d61565b9150506104be565b50600090505b919050565b6004805461057190610cd2565b80601f016020809104026020016040519081016040528092919081815260200182805461059d90610cd2565b80156105ea5780601f106105bf576101008083540402835291602001916105ea565b820191906000526020600020905b8154815290600101906020018083116105cd57829003601f168201915b505050505081565b600280546105ff90610cd2565b80601f016020809104026020016040519081016040528092919081815260200182805461062b90610cd2565b80156106785780601f1061064d57610100808354040283529160200191610678565b820191906000526020600020905b81548152906001019060200180831161065b57829003601f168201915b505050505081565b60035481565b6000819080600181540180825580915050600190039060005260206000200160009091909190916101000a81548173ffffffffffffffffffffffffffffffffffffffff021916908373ffffffffffffffffffffffffffffffffffffffff16021790555050565b60005b6000805490508110156107de578173ffffffffffffffffffffffffffffffffffffffff166000828154811061072757610726610d03565b5b9060005260206000200160009054906101000a900473ffffffffffffffffffffffffffffffffffffffff1673ffffffffffffffffffffffffffffffffffffffff16036107cb57826000828154811061078257610781610d03565b5b9060005260206000200160006101000a81548173ffffffffffffffffffffffffffffffffffffffff021916908373ffffffffffffffffffffffffffffffffffffffff1602179055505b80806107d690610d61565b9150506106ef565b505050565b6060600280546107f290610cd2565b80601f016020809104026020016040519081016040528092919081815260200182805461081e90610cd2565b801561086b5780601f106108405761010080835404028352916020019161086b565b820191906000526020600020905b81548152906001019060200180831161084e57829003601f168201915b5050505050905090565b606060008054806020026020016040519081016040528092919081815260200182805480156108f957602002820191906000526020600020905b8160009054906101000a900473ffffffffffffffffffffffffffffffffffffffff1673ffffffffffffffffffffffffffffffffffffffff16815260200190600101908083116108af575b5050505050905090565b6000600354905090565b600080828154811061092257610921610d03565b5b9060005260206000200160009054906101000a900473ffffffffffffffffffffffffffffffffffffffff169050919050565b600080fd5b6000819050919050565b61096c81610959565b811461097757600080fd5b50565b60008135905061098981610963565b92915050565b6000602082840312156109a5576109a4610954565b5b60006109b38482850161097a565b91505092915050565b600073ffffffffffffffffffffffffffffffffffffffff82169050919050565b60006109e7826109bc565b9050919050565b6109f7816109dc565b82525050565b6000602082019050610a1260008301846109ee565b92915050565b600081519050919050565b600082825260208201905092915050565b60005b83811015610a52578082015181840152602081019050610a37565b60008484015250505050565b6000601f19601f8301169050919050565b6000610a7a82610a18565b610a848185610a23565b9350610a94818560208601610a34565b610a9d81610a5e565b840191505092915050565b60006020820190508181036000830152610ac28184610a6f565b905092915050565b610ad3816109dc565b8114610ade57600080fd5b50565b600081359050610af081610aca565b92915050565b600060208284031215610b0c57610b0b610954565b5b6000610b1a84828501610ae1565b91505092915050565b60008115159050919050565b610b3881610b23565b82525050565b6000602082019050610b536000830184610b2f565b92915050565b610b6281610959565b82525050565b6000602082019050610b7d6000830184610b59565b92915050565b60008060408385031215610b9a57610b99610954565b5b6000610ba885828601610ae1565b9250506020610bb985828601610ae1565b9150509250929050565b600081519050919050565b600082825260208201905092915050565b6000819050602082019050919050565b610bf8816109dc565b82525050565b6000610c0a8383610bef565b60208301905092915050565b6000602082019050919050565b6000610c2e82610bc3565b610c388185610bce565b9350610c4383610bdf565b8060005b83811015610c74578151610c5b8882610bfe565b9750610c6683610c16565b925050600181019050610c47565b5085935050505092915050565b60006020820190508181036000830152610c9b8184610c23565b905092915050565b7f4e487b7100000000000000000000000000000000000000000000000000000000600052602260045260246000fd5b60006002820490506001821680610cea57607f821691505b602082108103610cfd57610cfc610ca3565b5b50919050565b7f4e487b7100000000000000000000000000000000000000000000000000000000600052603260045260246000fd5b7f4e487b7100000000000000000000000000000000000000000000000000000000600052601160045260246000fd5b6000610d6c82610959565b91507fffffffffffffffffffffffffffffffffffffffffffffffffffffffffffffffff8203610d9e57610d9d610d32565b5b60018201905091905056fea264697066735822122055441f3422eb4d326f9626df74a9238192494b85f7653653de497bf52399cb7f64736f6c634300081100336080604052633b9aca0060005534801561001857600080fd5b50604051610992380380610992833981810160405281019061003a91906100e4565b80600160006101000a81548173ffffffffffffffffffffffffffffffffffffffff021916908373ffffffffffffffffffffffffffffffffffffffff16021790555050610111565b600080fd5b600073ffffffffffffffffffffffffffffffffffffffff82169050919050565b60006100b182610086565b9050919050565b6100c1816100a6565b81146100cc57600080fd5b50565b6000815190506100de816100b8565b92915050565b6000602082840312156100fa576100f9610081565b5b6000610108848285016100cf565b91505092915050565b610872806101206000396000f3fe608060405234801561001057600080fd5b50600436106100885760003560e01c8063410d59cc1161005b578063410d59cc14610111578063564b28a01461012f578063893d20e81461014d5780639f37092a1461016b57610088565b806327346b421461008d5780633112a97b146100a95780633129e773146100c557806337df00c9146100f5575b600080fd5b6100a760048036038101906100a291906104ea565b610187565b005b6100c360048036038101906100be919061052a565b61027e565b005b6100df60048036038101906100da919061058d565b6102e4565b6040516100ec91906105c9565b60405180910390f35b61010f600480360381019061010a919061058d565b61032c565b005b610119610347565b60405161012691906106a2565b60405180910390f35b6101376103d5565b60405161014491906106d3565b60405180910390f35b6101556103de565b60405161016291906105c9565b60405180910390f35b610185600480360381019061018091906106ee565b610408565b005b60005b600280549050811015610279578273ffffffffffffffffffffffffffffffffffffffff16600282815481106101c2576101c161072e565b5b9060005260206000200160009054906101000a900473ffffffffffffffffffffffffffffffffffffffff1673ffffffffffffffffffffffffffffffffffffffff160361026657816002828154811061021d5761021c61072e565b5b9060005260206000200160006101000a81548173ffffffffffffffffffffffffffffffffffffffff021916908373ffffffffffffffffffffffffffffffffffffffff1602179055505b80806102719061078c565b91505061018a565b505050565b6002819080600181540180825580915050600190039060005260206000200160009091909190916101000a81548173ffffffffffffffffffffffffffffffffffffffff021916908373ffffffffffffffffffffffffffffffffffffffff16021790555050565b6000600282815481106102fa576102f961072e565b5b9060005260206000200160009054906101000a900473ffffffffffffffffffffffffffffffffffffffff169050919050565b8060008082825461033d91906107d4565b9250508190555050565b606060028054806020026020016040519081016040528092919081815260200182805480156103cb57602002820191906000526020600020905b8160009054906101000a900473ffffffffffffffffffffffffffffffffffffffff1673ffffffffffffffffffffffffffffffffffffffff1681526020019060010190808311610381575b5050505050905090565b60008054905090565b6000600160009054906101000a900473ffffffffffffffffffffffffffffffffffffffff16905090565b806000808282546104199190610808565b925050819055506002829080600181540180825580915050600190039060005260206000200160009091909190916101000a81548173ffffffffffffffffffffffffffffffffffffffff021916908373ffffffffffffffffffffffffffffffffffffffff1602179055505050565b600080fd5b600073ffffffffffffffffffffffffffffffffffffffff82169050919050565b60006104b78261048c565b9050919050565b6104c7816104ac565b81146104d257600080fd5b50565b6000813590506104e4816104be565b92915050565b6000806040838503121561050157610500610487565b5b600061050f858286016104d5565b9250506020610520858286016104d5565b9150509250929050565b6000602082840312156105405761053f610487565b5b600061054e848285016104d5565b91505092915050565b6000819050919050565b61056a81610557565b811461057557600080fd5b50565b60008135905061058781610561565b92915050565b6000602082840312156105a3576105a2610487565b5b60006105b184828501610578565b91505092915050565b6105c3816104ac565b82525050565b60006020820190506105de60008301846105ba565b92915050565b600081519050919050565b600082825260208201905092915050565b6000819050602082019050919050565b610619816104ac565b82525050565b600061062b8383610610565b60208301905092915050565b6000602082019050919050565b600061064f826105e4565b61065981856105ef565b935061066483610600565b8060005b8381101561069557815161067c888261061f565b975061068783610637565b925050600181019050610668565b5085935050505092915050565b600060208201905081810360008301526106bc8184610644565b905092915050565b6106cd81610557565b82525050565b60006020820190506106e860008301846106c4565b92915050565b6000806040838503121561070557610704610487565b5b6000610713858286016104d5565b925050602061072485828601610578565b9150509250929050565b7f4e487b7100000000000000000000000000000000000000000000000000000000600052603260045260246000fd5b7f4e487b7100000000000000000000000000000000000000000000000000000000600052601160045260246000fd5b600061079782610557565b91507fffffffffffffffffffffffffffffffffffffffffffffffffffffffffffffffff82036107c9576107c861075d565b5b600182019050919050565b60006107df82610557565b91506107ea83610557565b92508282019050808211156108025761080161075d565b5b92915050565b600061081382610557565b915061081e83610557565b92508282039050818111156108365761083561075d565b5b9291505056fea2646970667358221220ddb2189d9065b3211110b1266fa6718fbb1ddda5c54b1a3e0817433c73f22d4c64736f6c63430008110033a264697066735822122086caf72085fe46af4a3f70ded835af01cf4076e69a7b27f6ca08de861845d25064736f6c63430008110033",
  "devdoc": {
    "kind": "dev",
    "methods": {},
    "version": 1
  },
  "userdoc": {
    "kind": "user",
    "methods": {},
    "version": 1
  },
  "storageLayout": {
    "storage": [
      {
        "astId": 190,
        "contract": "contracts/GameStore.sol:GameStore",
        "label": "storeOriginalItems",
        "offset": 0,
        "slot": "0",
        "type": "t_array(t_address)dyn_storage"
      },
      {
        "astId": 193,
        "contract": "contracts/GameStore.sol:GameStore",
        "label": "storeCustomItems",
        "offset": 0,
        "slot": "1",
        "type": "t_array(t_address)dyn_storage"
      },
      {
        "astId": 197,
        "contract": "contracts/GameStore.sol:GameStore",
        "label": "Wallets",
        "offset": 0,
        "slot": "2",
        "type": "t_mapping(t_string_memory_ptr,t_address)"
      },
      {
        "astId": 201,
        "contract": "contracts/GameStore.sol:GameStore",
        "label": "listedStoreItemsToToken",
        "offset": 0,
        "slot": "3",
        "type": "t_mapping(t_address,t_uint256)"
      },
      {
        "astId": 205,
        "contract": "contracts/GameStore.sol:GameStore",
        "label": "listedUserMintedItemsToToken",
        "offset": 0,
        "slot": "4",
        "type": "t_mapping(t_address,t_uint256)"
      },
      {
        "astId": 209,
        "contract": "contracts/GameStore.sol:GameStore",
        "label": "listedUserTradeItemsToItems",
        "offset": 0,
        "slot": "5",
        "type": "t_array(t_struct(Trade)187_storage)dyn_storage"
      }
    ],
    "types": {
      "t_address": {
        "encoding": "inplace",
        "label": "address",
        "numberOfBytes": "20"
      },
      "t_array(t_address)dyn_storage": {
        "base": "t_address",
        "encoding": "dynamic_array",
        "label": "address[]",
        "numberOfBytes": "32"
      },
      "t_array(t_struct(Trade)187_storage)dyn_storage": {
        "base": "t_struct(Trade)187_storage",
        "encoding": "dynamic_array",
        "label": "struct GameStore.Trade[]",
        "numberOfBytes": "32"
      },
      "t_mapping(t_address,t_uint256)": {
        "encoding": "mapping",
        "key": "t_address",
        "label": "mapping(address => uint256)",
        "numberOfBytes": "32",
        "value": "t_uint256"
      },
      "t_mapping(t_string_memory_ptr,t_address)": {
        "encoding": "mapping",
        "key": "t_string_memory_ptr",
        "label": "mapping(string => address)",
        "numberOfBytes": "32",
        "value": "t_address"
      },
      "t_string_memory_ptr": {
        "encoding": "bytes",
        "label": "string",
        "numberOfBytes": "32"
      },
      "t_struct(Trade)187_storage": {
        "encoding": "inplace",
        "label": "struct GameStore.Trade",
        "members": [
          {
            "astId": 182,
            "contract": "contracts/GameStore.sol:GameStore",
            "label": "trader",
            "offset": 0,
            "slot": "0",
            "type": "t_address"
          },
          {
            "astId": 184,
            "contract": "contracts/GameStore.sol:GameStore",
            "label": "item",
            "offset": 0,
            "slot": "1",
            "type": "t_address"
          },
          {
            "astId": 186,
            "contract": "contracts/GameStore.sol:GameStore",
            "label": "itemNeeded",
            "offset": 0,
            "slot": "2",
            "type": "t_address"
          }
        ],
        "numberOfBytes": "96"
      },
      "t_uint256": {
        "encoding": "inplace",
        "label": "uint256",
        "numberOfBytes": "32"
      }
    }
  }
}