{
  "address": "0x5f664A258Dd17513858648eC8A55988D46D87ecE",
  "abi": [
    {
      "inputs": [],
      "stateMutability": "nonpayable",
      "type": "constructor"
    },
    {
      "inputs": [
        {
          "internalType": "string",
          "name": "",
          "type": "string"
        }
      ],
      "name": "Wallets",
      "outputs": [
        {
          "internalType": "address",
          "name": "",
          "type": "address"
        }
      ],
      "stateMutability": "view",
      "type": "function"
    },
    {
      "inputs": [
        {
          "internalType": "string",
          "name": "name",
          "type": "string"
        }
      ],
      "name": "createWallet",
      "outputs": [],
      "stateMutability": "nonpayable",
      "type": "function"
    },
    {
      "inputs": [
        {
          "internalType": "uint256",
          "name": "",
          "type": "uint256"
        }
      ],
      "name": "gameItems",
      "outputs": [
        {
          "internalType": "address",
          "name": "",
          "type": "address"
        }
      ],
      "stateMutability": "view",
      "type": "function"
    },
    {
      "inputs": [
        {
          "internalType": "string",
          "name": "index",
          "type": "string"
        }
      ],
      "name": "getWallet",
      "outputs": [
        {
          "internalType": "address",
          "name": "",
          "type": "address"
        }
      ],
      "stateMutability": "view",
      "type": "function"
    },
    {
      "inputs": [],
      "name": "owner",
      "outputs": [
        {
          "internalType": "address",
          "name": "",
          "type": "address"
        }
      ],
      "stateMutability": "view",
      "type": "function"
    },
    {
      "inputs": [
        {
          "internalType": "uint256",
          "name": "",
          "type": "uint256"
        }
      ],
      "name": "tradeItem",
      "outputs": [
        {
          "internalType": "address",
          "name": "",
          "type": "address"
        }
      ],
      "stateMutability": "view",
      "type": "function"
    }
  ],
  "transactionHash": "0x9a58af535dd82ee9655c6a9d59d3e7362bba2b33129b200a0c22fe9189ecd571",
  "args": [],
  "numDeployments": 5,
  "solcInputHash": "a6e7d88f3fa35b65d9e5442c1f9f72f1",
  "bytecode": "0x60a060405234801561001057600080fd5b503373ffffffffffffffffffffffffffffffffffffffff1660808173ffffffffffffffffffffffffffffffffffffffff16815250506080516109d7610060600039600061027301526109d76000f3fe608060405234801561001057600080fd5b50600436106100625760003560e01c80630e1020e814610067578063430074c2146100975780637404f1d2146100c75780638da5cb5b146100e357806390b16bf914610101578063a4e2df6614610131575b600080fd5b610081600480360381019061007c9190610483565b610161565b60405161008e919061050d565b60405180910390f35b6100b160048036038101906100ac919061055e565b6101aa565b6040516100be919061050d565b60405180910390f35b6100e160048036038101906100dc9190610483565b6101e9565b005b6100eb610271565b6040516100f8919061050d565b60405180910390f35b61011b6004803603810190610116919061055e565b610295565b604051610128919061050d565b60405180910390f35b61014b60048036038101906101469190610483565b6102d4565b604051610158919061050d565b60405180910390f35b6002818051602081018201805184825260208301602085012081835280955050505050506000915054906101000a900473ffffffffffffffffffffffffffffffffffffffff1681565b600081815481106101ba57600080fd5b906000526020600020016000915054906101000a900473ffffffffffffffffffffffffffffffffffffffff1681565b6040516101f59061031c565b604051809103906000f080158015610211573d6000803e3d6000fd5b5060028260405161022291906105fc565b908152602001604051809103902060006101000a81548173ffffffffffffffffffffffffffffffffffffffff021916908373ffffffffffffffffffffffffffffffffffffffff16021790555050565b7f000000000000000000000000000000000000000000000000000000000000000081565b600181815481106102a557600080fd5b906000526020600020016000915054906101000a900473ffffffffffffffffffffffffffffffffffffffff1681565b60006002826040516102e691906105fc565b908152602001604051809103902060009054906101000a900473ffffffffffffffffffffffffffffffffffffffff169050919050565b61038e8061061483390190565b6000604051905090565b600080fd5b600080fd5b600080fd5b600080fd5b6000601f19601f8301169050919050565b7f4e487b7100000000000000000000000000000000000000000000000000000000600052604160045260246000fd5b61039082610347565b810181811067ffffffffffffffff821117156103af576103ae610358565b5b80604052505050565b60006103c2610329565b90506103ce8282610387565b919050565b600067ffffffffffffffff8211156103ee576103ed610358565b5b6103f782610347565b9050602081019050919050565b82818337600083830152505050565b6000610426610421846103d3565b6103b8565b90508281526020810184848401111561044257610441610342565b5b61044d848285610404565b509392505050565b600082601f83011261046a5761046961033d565b5b813561047a848260208601610413565b91505092915050565b60006020828403121561049957610498610333565b5b600082013567ffffffffffffffff8111156104b7576104b6610338565b5b6104c384828501610455565b91505092915050565b600073ffffffffffffffffffffffffffffffffffffffff82169050919050565b60006104f7826104cc565b9050919050565b610507816104ec565b82525050565b600060208201905061052260008301846104fe565b92915050565b6000819050919050565b61053b81610528565b811461054657600080fd5b50565b60008135905061055881610532565b92915050565b60006020828403121561057457610573610333565b5b600061058284828501610549565b91505092915050565b600081519050919050565b600081905092915050565b60005b838110156105bf5780820151818401526020810190506105a4565b60008484015250505050565b60006105d68261058b565b6105e08185610596565b93506105f08185602086016105a1565b80840191505092915050565b600061060882846105cb565b91508190509291505056fe6080604052633b9aca0060005534801561001857600080fd5b5033600160006101000a81548173ffffffffffffffffffffffffffffffffffffffff021916908373ffffffffffffffffffffffffffffffffffffffff160217905550610325806100696000396000f3fe608060405234801561001057600080fd5b506004361061004c5760003560e01c80633129e7731461005157806337df00c914610081578063564b28a01461009d578063893d20e8146100bb575b600080fd5b61006b600480360381019061006691906101aa565b6100d9565b6040516100789190610218565b60405180910390f35b61009b600480360381019061009691906101aa565b610121565b005b6100a561013c565b6040516100b29190610242565b60405180910390f35b6100c3610145565b6040516100d09190610218565b60405180910390f35b6000600282815481106100ef576100ee61025d565b5b9060005260206000200160009054906101000a900473ffffffffffffffffffffffffffffffffffffffff169050919050565b8060008082825461013291906102bb565b9250508190555050565b60008054905090565b6000600160009054906101000a900473ffffffffffffffffffffffffffffffffffffffff16905090565b600080fd5b6000819050919050565b61018781610174565b811461019257600080fd5b50565b6000813590506101a48161017e565b92915050565b6000602082840312156101c0576101bf61016f565b5b60006101ce84828501610195565b91505092915050565b600073ffffffffffffffffffffffffffffffffffffffff82169050919050565b6000610202826101d7565b9050919050565b610212816101f7565b82525050565b600060208201905061022d6000830184610209565b92915050565b61023c81610174565b82525050565b60006020820190506102576000830184610233565b92915050565b7f4e487b7100000000000000000000000000000000000000000000000000000000600052603260045260246000fd5b7f4e487b7100000000000000000000000000000000000000000000000000000000600052601160045260246000fd5b60006102c682610174565b91506102d183610174565b92508282019050808211156102e9576102e861028c565b5b9291505056fea2646970667358221220e537fd849a9fad96e38432928d5846413bda3e451649333e78feee72d6c5f9c364736f6c63430008110033a26469706673582212207edebc9f5e2603b4f4b0cb1606e8969d53c0b84cb791f5883cfde934a1dfd55c64736f6c63430008110033",
  "devdoc": {
    "kind": "dev",
    "methods": {},
    "version": 1
  },
  "userdoc": {
    "kind": "user",
    "methods": {},
    "version": 1
  },
  "storageLayout": {
    "storage": [
      {
        "astId": 8,
        "contract": "contracts/GameStore.sol:GameStore",
        "label": "gameItems",
        "offset": 0,
        "slot": "0",
        "type": "t_array(t_address)dyn_storage"
      },
      {
        "astId": 11,
        "contract": "contracts/GameStore.sol:GameStore",
        "label": "tradeItem",
        "offset": 0,
        "slot": "1",
        "type": "t_array(t_address)dyn_storage"
      },
      {
        "astId": 15,
        "contract": "contracts/GameStore.sol:GameStore",
        "label": "Wallets",
        "offset": 0,
        "slot": "2",
        "type": "t_mapping(t_string_memory_ptr,t_address)"
      }
    ],
    "types": {
      "t_address": {
        "encoding": "inplace",
        "label": "address",
        "numberOfBytes": "20"
      },
      "t_array(t_address)dyn_storage": {
        "base": "t_address",
        "encoding": "dynamic_array",
        "label": "address[]",
        "numberOfBytes": "32"
      },
      "t_mapping(t_string_memory_ptr,t_address)": {
        "encoding": "mapping",
        "key": "t_string_memory_ptr",
        "label": "mapping(string => address)",
        "numberOfBytes": "32",
        "value": "t_address"
      },
      "t_string_memory_ptr": {
        "encoding": "bytes",
        "label": "string",
        "numberOfBytes": "32"
      }
    }
  }
}