{
  "address": "0x32503F79A3a1b72d7414b81cb71D245BfB0fC27e",
  "abi": [
    {
      "inputs": [],
      "stateMutability": "nonpayable",
      "type": "constructor"
    },
    {
      "inputs": [],
      "name": "GameStore_NotOwner",
      "type": "error"
    },
    {
      "inputs": [
        {
          "internalType": "string",
          "name": "",
          "type": "string"
        }
      ],
      "name": "Wallets",
      "outputs": [
        {
          "internalType": "address",
          "name": "",
          "type": "address"
        }
      ],
      "stateMutability": "view",
      "type": "function"
    },
    {
      "inputs": [
        {
          "internalType": "string",
          "name": "name",
          "type": "string"
        },
        {
          "internalType": "address",
          "name": "gameItem",
          "type": "address"
        }
      ],
      "name": "buyItem",
      "outputs": [],
      "stateMutability": "nonpayable",
      "type": "function"
    },
    {
      "inputs": [
        {
          "internalType": "string",
          "name": "walletName",
          "type": "string"
        },
        {
          "internalType": "string",
          "name": "_name",
          "type": "string"
        },
        {
          "internalType": "string",
          "name": "_typeOf",
          "type": "string"
        },
        {
          "internalType": "uint256",
          "name": "_level",
          "type": "uint256"
        }
      ],
      "name": "createCustomItems",
      "outputs": [],
      "stateMutability": "nonpayable",
      "type": "function"
    },
    {
      "inputs": [
        {
          "internalType": "string",
          "name": "_name",
          "type": "string"
        },
        {
          "internalType": "string",
          "name": "_typeOf",
          "type": "string"
        },
        {
          "internalType": "uint256",
          "name": "_level",
          "type": "uint256"
        },
        {
          "internalType": "uint256",
          "name": "token",
          "type": "uint256"
        }
      ],
      "name": "createItem",
      "outputs": [],
      "stateMutability": "nonpayable",
      "type": "function"
    },
    {
      "inputs": [
        {
          "internalType": "string",
          "name": "name",
          "type": "string"
        }
      ],
      "name": "createWallet",
      "outputs": [],
      "stateMutability": "nonpayable",
      "type": "function"
    },
    {
      "inputs": [
        {
          "internalType": "string",
          "name": "name",
          "type": "string"
        }
      ],
      "name": "getWallet",
      "outputs": [
        {
          "internalType": "address",
          "name": "",
          "type": "address"
        }
      ],
      "stateMutability": "view",
      "type": "function"
    },
    {
      "inputs": [
        {
          "internalType": "address",
          "name": "",
          "type": "address"
        }
      ],
      "name": "listedStoreItemsToToken",
      "outputs": [
        {
          "internalType": "uint256",
          "name": "",
          "type": "uint256"
        }
      ],
      "stateMutability": "view",
      "type": "function"
    },
    {
      "inputs": [
        {
          "internalType": "address",
          "name": "",
          "type": "address"
        }
      ],
      "name": "listedUserMintedItemsToToken",
      "outputs": [
        {
          "internalType": "uint256",
          "name": "",
          "type": "uint256"
        }
      ],
      "stateMutability": "view",
      "type": "function"
    },
    {
      "inputs": [
        {
          "internalType": "address",
          "name": "",
          "type": "address"
        }
      ],
      "name": "listedUserTradeItemsToItems",
      "outputs": [
        {
          "internalType": "address",
          "name": "",
          "type": "address"
        }
      ],
      "stateMutability": "view",
      "type": "function"
    },
    {
      "inputs": [
        {
          "internalType": "string",
          "name": "walletName",
          "type": "string"
        },
        {
          "internalType": "uint256",
          "name": "index",
          "type": "uint256"
        },
        {
          "internalType": "uint256",
          "name": "token",
          "type": "uint256"
        }
      ],
      "name": "listingCustomItems",
      "outputs": [],
      "stateMutability": "nonpayable",
      "type": "function"
    },
    {
      "inputs": [],
      "name": "owner",
      "outputs": [
        {
          "internalType": "address",
          "name": "",
          "type": "address"
        }
      ],
      "stateMutability": "view",
      "type": "function"
    },
    {
      "inputs": [
        {
          "internalType": "uint256",
          "name": "",
          "type": "uint256"
        }
      ],
      "name": "storeOriginalItems",
      "outputs": [
        {
          "internalType": "address",
          "name": "",
          "type": "address"
        }
      ],
      "stateMutability": "view",
      "type": "function"
    }
  ],
  "transactionHash": "0xd1d95e16be3ec891ffcea6cddb8856ebce603f77d6796dd6dba99d759c51a75c",
  "args": [],
  "numDeployments": 4,
  "solcInputHash": "43385d2ace1709580eef3b89f155e7e2",
  "bytecode": "0x60a060405234801561001057600080fd5b503373ffffffffffffffffffffffffffffffffffffffff1660808173ffffffffffffffffffffffffffffffffffffffff16815250506080516138736100676000396000818161031a01526105ec01526138736000f3fe60806040523480156200001157600080fd5b5060043610620000c45760003560e01c8063aa5df370116200007b578063aa5df37014620001b7578063c0c6927314620001ed578063c81034b11462000223578063cea1706c1462000243578063de929b411462000279578063fa01593f14620002af57620000c4565b80630e1020e814620000c95780636fc36b3814620000ff5780637404f1d2146200011f5780638da5cb5b146200013f5780639d8820c41462000161578063a4e2df661462000181575b600080fd5b620000e76004803603810190620000e19190620015a9565b620002cf565b604051620000f691906200163f565b60405180910390f35b6200011d600480360381019062000117919062001697565b62000318565b005b6200013d6004803603810190620001379190620015a9565b6200049e565b005b62000149620005ea565b6040516200015891906200163f565b60405180910390f35b6200017f600480360381019062000179919062001778565b6200060e565b005b6200019f6004803603810190620001999190620015a9565b62000a1c565b604051620001ae91906200163f565b60405180910390f35b620001d56004803603810190620001cf9190620017de565b62000c3f565b604051620001e491906200163f565b60405180910390f35b6200020b6004803603810190620002059190620017de565b62000c72565b6040516200021a919062001821565b60405180910390f35b6200024160048036038101906200023b91906200183e565b62000c8a565b005b6200026160048036038101906200025b9190620017de565b620010bf565b60405162000270919062001821565b60405180910390f35b620002976004803603810190620002919190620018b9565b620010d7565b604051620002a691906200163f565b60405180910390f35b620002cd6004803603810190620002c79190620018eb565b62001117565b005b6001818051602081018201805184825260208301602085012081835280955050505050506000915054906101000a900473ffffffffffffffffffffffffffffffffffffffff1681565b7f000000000000000000000000000000000000000000000000000000000000000073ffffffffffffffffffffffffffffffffffffffff163373ffffffffffffffffffffffffffffffffffffffff16146200039e576040517fb39a50da00000000000000000000000000000000000000000000000000000000815260040160405180910390fd5b6000848484604051620003b19062001417565b620003bf9392919062001a93565b604051809103906000f080158015620003dc573d6000803e3d6000fd5b5090506000819080600181540180825580915050600190039060005260206000200160009091909190916101000a81548173ffffffffffffffffffffffffffffffffffffffff021916908373ffffffffffffffffffffffffffffffffffffffff1602179055506305f5e1008262000454919062001b22565b600260008373ffffffffffffffffffffffffffffffffffffffff1673ffffffffffffffffffffffffffffffffffffffff168152602001908152602001600020819055505050505050565b600073ffffffffffffffffffffffffffffffffffffffff16600182604051620004c8919062001baf565b908152602001604051809103902060009054906101000a900473ffffffffffffffffffffffffffffffffffffffff1673ffffffffffffffffffffffffffffffffffffffff161462000550576040517f08c379a0000000000000000000000000000000000000000000000000000000008152600401620005479062001c18565b60405180910390fd5b336040516200055f9062001425565b6200056b91906200163f565b604051809103906000f08015801562000588573d6000803e3d6000fd5b506001826040516200059b919062001baf565b908152602001604051809103902060006101000a81548173ffffffffffffffffffffffffffffffffffffffff021916908373ffffffffffffffffffffffffffffffffffffffff16021790555050565b7f000000000000000000000000000000000000000000000000000000000000000081565b600073ffffffffffffffffffffffffffffffffffffffff1660018360405162000638919062001baf565b908152602001604051809103902060009054906101000a900473ffffffffffffffffffffffffffffffffffffffff1673ffffffffffffffffffffffffffffffffffffffff1614158015620006cc57506000600260008373ffffffffffffffffffffffffffffffffffffffff1673ffffffffffffffffffffffffffffffffffffffff1681526020019081526020016000205414155b6200070e576040517f08c379a0000000000000000000000000000000000000000000000000000000008152600401620007059062001cb0565b60405180910390fd5b600060018360405162000722919062001baf565b908152602001604051809103902060009054906101000a900473ffffffffffffffffffffffffffffffffffffffff1690503373ffffffffffffffffffffffffffffffffffffffff168173ffffffffffffffffffffffffffffffffffffffff1663893d20e86040518163ffffffff1660e01b8152600401602060405180830381865afa158015620007b6573d6000803e3d6000fd5b505050506040513d601f19601f82011682018060405250810190620007dc919062001ce9565b73ffffffffffffffffffffffffffffffffffffffff16148015620008b05750600260008373ffffffffffffffffffffffffffffffffffffffff1673ffffffffffffffffffffffffffffffffffffffff168152602001908152602001600020548173ffffffffffffffffffffffffffffffffffffffff1663564b28a06040518163ffffffff1660e01b8152600401602060405180830381865afa15801562000887573d6000803e3d6000fd5b505050506040513d601f19601f82011682018060405250810190620008ad919062001d32565b10155b620008f2576040517f08c379a0000000000000000000000000000000000000000000000000000000008152600401620008e99062001db4565b60405180910390fd5b60008290508073ffffffffffffffffffffffffffffffffffffffff16637065cb48836040518263ffffffff1660e01b81526004016200093291906200163f565b600060405180830381600087803b1580156200094d57600080fd5b505af115801562000962573d6000803e3d6000fd5b505050508173ffffffffffffffffffffffffffffffffffffffff16639f37092a82600260008773ffffffffffffffffffffffffffffffffffffffff1673ffffffffffffffffffffffffffffffffffffffff168152602001908152602001600020546040518363ffffffff1660e01b8152600401620009e292919062001dd6565b600060405180830381600087803b158015620009fd57600080fd5b505af115801562000a12573d6000803e3d6000fd5b5050505050505050565b60008073ffffffffffffffffffffffffffffffffffffffff1660018360405162000a47919062001baf565b908152602001604051809103902060009054906101000a900473ffffffffffffffffffffffffffffffffffffffff1673ffffffffffffffffffffffffffffffffffffffff160362000acf576040517f08c379a000000000000000000000000000000000000000000000000000000000815260040162000ac69062001e53565b60405180910390fd5b600060018360405162000ae3919062001baf565b908152602001604051809103902060009054906101000a900473ffffffffffffffffffffffffffffffffffffffff1690503373ffffffffffffffffffffffffffffffffffffffff168173ffffffffffffffffffffffffffffffffffffffff1663893d20e86040518163ffffffff1660e01b8152600401602060405180830381865afa15801562000b77573d6000803e3d6000fd5b505050506040513d601f19601f8201168201806040525081019062000b9d919062001ce9565b73ffffffffffffffffffffffffffffffffffffffff161462000bf6576040517f08c379a000000000000000000000000000000000000000000000000000000000815260040162000bed9062001db4565b60405180910390fd5b60018360405162000c08919062001baf565b908152602001604051809103902060009054906101000a900473ffffffffffffffffffffffffffffffffffffffff16915050919050565b60046020528060005260406000206000915054906101000a900473ffffffffffffffffffffffffffffffffffffffff1681565b60026020528060005260406000206000915090505481565b600073ffffffffffffffffffffffffffffffffffffffff1660018460405162000cb4919062001baf565b908152602001604051809103902060009054906101000a900473ffffffffffffffffffffffffffffffffffffffff1673ffffffffffffffffffffffffffffffffffffffff160362000d3c576040517f08c379a000000000000000000000000000000000000000000000000000000000815260040162000d339062001cb0565b60405180910390fd5b600060018460405162000d50919062001baf565b908152602001604051809103902060009054906101000a900473ffffffffffffffffffffffffffffffffffffffff1690503373ffffffffffffffffffffffffffffffffffffffff168173ffffffffffffffffffffffffffffffffffffffff1663893d20e86040518163ffffffff1660e01b8152600401602060405180830381865afa15801562000de4573d6000803e3d6000fd5b505050506040513d601f19601f8201168201806040525081019062000e0a919062001ce9565b73ffffffffffffffffffffffffffffffffffffffff161462000e63576040517f08c379a000000000000000000000000000000000000000000000000000000000815260040162000e5a9062001db4565b60405180910390fd5b60008173ffffffffffffffffffffffffffffffffffffffff16633129e773856040518263ffffffff1660e01b815260040162000ea0919062001821565b602060405180830381865afa15801562000ebe573d6000803e3d6000fd5b505050506040513d601f19601f8201168201806040525081019062000ee4919062001ce9565b90506000600360008373ffffffffffffffffffffffffffffffffffffffff1673ffffffffffffffffffffffffffffffffffffffff168152602001908152602001600020541462000f6b576040517f08c379a000000000000000000000000000000000000000000000000000000000815260040162000f629062001ec5565b60405180910390fd5b60405160200162000f7c9062001ee7565b604051602081830303815290604052805190602001208173ffffffffffffffffffffffffffffffffffffffff16630d8e6e2c6040518163ffffffff1660e01b8152600401600060405180830381865afa15801562000fde573d6000803e3d6000fd5b505050506040513d6000823e3d601f19601f8201168201806040525081019062001009919062001f87565b6040516020016200101b919062001fd8565b604051602081830303815290604052805190602001200362001074576040517f08c379a00000000000000000000000000000000000000000000000000000000081526004016200106b906200204c565b60405180910390fd5b82600360008373ffffffffffffffffffffffffffffffffffffffff1673ffffffffffffffffffffffffffffffffffffffff168152602001908152602001600020819055505050505050565b60036020528060005260406000206000915090505481565b60008181548110620010e857600080fd5b906000526020600020016000915054906101000a900473ffffffffffffffffffffffffffffffffffffffff1681565b600073ffffffffffffffffffffffffffffffffffffffff1660018560405162001141919062001baf565b908152602001604051809103902060009054906101000a900473ffffffffffffffffffffffffffffffffffffffff1673ffffffffffffffffffffffffffffffffffffffff1603620011c9576040517f08c379a0000000000000000000000000000000000000000000000000000000008152600401620011c09062001cb0565b60405180910390fd5b6000600185604051620011dd919062001baf565b908152602001604051809103902060009054906101000a900473ffffffffffffffffffffffffffffffffffffffff1690503373ffffffffffffffffffffffffffffffffffffffff168173ffffffffffffffffffffffffffffffffffffffff1663893d20e86040518163ffffffff1660e01b8152600401602060405180830381865afa15801562001271573d6000803e3d6000fd5b505050506040513d601f19601f8201168201806040525081019062001297919062001ce9565b73ffffffffffffffffffffffffffffffffffffffff1614620012f0576040517f08c379a0000000000000000000000000000000000000000000000000000000008152600401620012e79062001db4565b60405180910390fd5b6000848484604051620013039062001417565b6200131193929190620020be565b604051809103906000f0801580156200132e573d6000803e3d6000fd5b5090508073ffffffffffffffffffffffffffffffffffffffff16637065cb48836040518263ffffffff1660e01b81526004016200136c91906200163f565b600060405180830381600087803b1580156200138757600080fd5b505af11580156200139c573d6000803e3d6000fd5b505050508173ffffffffffffffffffffffffffffffffffffffff16633112a97b826040518263ffffffff1660e01b8152600401620013db91906200163f565b600060405180830381600087803b158015620013f657600080fd5b505af11580156200140b573d6000803e3d6000fd5b50505050505050505050565b6110da806200211f83390190565b61064580620031f983390190565b6000604051905090565b600080fd5b600080fd5b600080fd5b600080fd5b6000601f19601f8301169050919050565b7f4e487b7100000000000000000000000000000000000000000000000000000000600052604160045260246000fd5b6200149c8262001451565b810181811067ffffffffffffffff82111715620014be57620014bd62001462565b5b80604052505050565b6000620014d362001433565b9050620014e1828262001491565b919050565b600067ffffffffffffffff82111562001504576200150362001462565b5b6200150f8262001451565b9050602081019050919050565b82818337600083830152505050565b6000620015426200153c84620014e6565b620014c7565b9050828152602081018484840111156200156157620015606200144c565b5b6200156e8482856200151c565b509392505050565b600082601f8301126200158e576200158d62001447565b5b8135620015a08482602086016200152b565b91505092915050565b600060208284031215620015c257620015c16200143d565b5b600082013567ffffffffffffffff811115620015e357620015e262001442565b5b620015f18482850162001576565b91505092915050565b600073ffffffffffffffffffffffffffffffffffffffff82169050919050565b60006200162782620015fa565b9050919050565b62001639816200161a565b82525050565b60006020820190506200165660008301846200162e565b92915050565b6000819050919050565b62001671816200165c565b81146200167d57600080fd5b50565b600081359050620016918162001666565b92915050565b60008060008060808587031215620016b457620016b36200143d565b5b600085013567ffffffffffffffff811115620016d557620016d462001442565b5b620016e38782880162001576565b945050602085013567ffffffffffffffff81111562001707576200170662001442565b5b620017158782880162001576565b9350506040620017288782880162001680565b92505060606200173b8782880162001680565b91505092959194509250565b62001752816200161a565b81146200175e57600080fd5b50565b600081359050620017728162001747565b92915050565b600080604083850312156200179257620017916200143d565b5b600083013567ffffffffffffffff811115620017b357620017b262001442565b5b620017c18582860162001576565b9250506020620017d48582860162001761565b9150509250929050565b600060208284031215620017f757620017f66200143d565b5b6000620018078482850162001761565b91505092915050565b6200181b816200165c565b82525050565b600060208201905062001838600083018462001810565b92915050565b6000806000606084860312156200185a57620018596200143d565b5b600084013567ffffffffffffffff8111156200187b576200187a62001442565b5b620018898682870162001576565b93505060206200189c8682870162001680565b9250506040620018af8682870162001680565b9150509250925092565b600060208284031215620018d257620018d16200143d565b5b6000620018e28482850162001680565b91505092915050565b600080600080608085870312156200190857620019076200143d565b5b600085013567ffffffffffffffff81111562001929576200192862001442565b5b620019378782880162001576565b945050602085013567ffffffffffffffff8111156200195b576200195a62001442565b5b620019698782880162001576565b935050604085013567ffffffffffffffff8111156200198d576200198c62001442565b5b6200199b8782880162001576565b9250506060620019ae8782880162001680565b91505092959194509250565b600081519050919050565b600082825260208201905092915050565b60005b83811015620019f6578082015181840152602081019050620019d9565b60008484015250505050565b600062001a0f82620019ba565b62001a1b8185620019c5565b935062001a2d818560208601620019d6565b62001a388162001451565b840191505092915050565b7f636c617373696300000000000000000000000000000000000000000000000000600082015250565b600062001a7b600783620019c5565b915062001a888262001a43565b602082019050919050565b6000608082019050818103600083015262001aaf818662001a02565b9050818103602083015262001ac5818562001a02565b905062001ad6604083018462001810565b818103606083015262001ae98162001a6c565b9050949350505050565b7f4e487b7100000000000000000000000000000000000000000000000000000000600052601160045260246000fd5b600062001b2f826200165c565b915062001b3c836200165c565b925082820262001b4c816200165c565b9150828204841483151762001b665762001b6562001af3565b5b5092915050565b600081905092915050565b600062001b8582620019ba565b62001b91818562001b6d565b935062001ba3818560208601620019d6565b80840191505092915050565b600062001bbd828462001b78565b915081905092915050565b7f57616c6c65742065786973742121000000000000000000000000000000000000600082015250565b600062001c00600e83620019c5565b915062001c0d8262001bc8565b602082019050919050565b6000602082019050818103600083015262001c338162001bf1565b9050919050565b7f57616c6c6574206f722067616d65206974656d20646f6573206e6f742065786960008201527f7374212100000000000000000000000000000000000000000000000000000000602082015250565b600062001c98602483620019c5565b915062001ca58262001c3a565b604082019050919050565b6000602082019050818103600083015262001ccb8162001c89565b9050919050565b60008151905062001ce38162001747565b92915050565b60006020828403121562001d025762001d016200143d565b5b600062001d128482850162001cd2565b91505092915050565b60008151905062001d2c8162001666565b92915050565b60006020828403121562001d4b5762001d4a6200143d565b5b600062001d5b8482850162001d1b565b91505092915050565b7f57616c6c6574206973206e6f74206f776e656420627920796f75212121000000600082015250565b600062001d9c601d83620019c5565b915062001da98262001d64565b602082019050919050565b6000602082019050818103600083015262001dcf8162001d8d565b9050919050565b600060408201905062001ded60008301856200162e565b62001dfc602083018462001810565b9392505050565b7f57616c6c657420646f6573206e6f742065786973742121000000000000000000600082015250565b600062001e3b601783620019c5565b915062001e488262001e03565b602082019050919050565b6000602082019050818103600083015262001e6e8162001e2c565b9050919050565b7f416c7265616479206c6973746564206974656d00000000000000000000000000600082015250565b600062001ead601383620019c5565b915062001eba8262001e75565b602082019050919050565b6000602082019050818103600083015262001ee08162001e9e565b9050919050565b6000602082019050818103600083015262001f028162001a6c565b9050919050565b600062001f2062001f1a84620014e6565b620014c7565b90508281526020810184848401111562001f3f5762001f3e6200144c565b5b62001f4c848285620019d6565b509392505050565b600082601f83011262001f6c5762001f6b62001447565b5b815162001f7e84826020860162001f09565b91505092915050565b60006020828403121562001fa05762001f9f6200143d565b5b600082015167ffffffffffffffff81111562001fc15762001fc062001442565b5b62001fcf8482850162001f54565b91505092915050565b6000602082019050818103600083015262001ff4818462001a02565b905092915050565b7f4f6e6c7920437573746f6d204974656d2063616e206265206c69737465640000600082015250565b600062002034601e83620019c5565b9150620020418262001ffc565b602082019050919050565b60006020820190508181036000830152620020678162002025565b9050919050565b7f637573746f6d0000000000000000000000000000000000000000000000000000600082015250565b6000620020a6600683620019c5565b9150620020b3826200206e565b602082019050919050565b60006080820190508181036000830152620020da818662001a02565b90508181036020830152620020f0818562001a02565b905062002101604083018462001810565b8181036060830152620021148162002097565b905094935050505056fe60806040523480156200001157600080fd5b50604051620010da380380620010da83398181016040528101906200003791906200024c565b83600190816200004891906200055c565b5082600290816200005a91906200055c565b508160038190555080600490816200007391906200055c565b505050505062000643565b6000604051905090565b600080fd5b600080fd5b600080fd5b600080fd5b6000601f19601f8301169050919050565b7f4e487b7100000000000000000000000000000000000000000000000000000000600052604160045260246000fd5b620000e7826200009c565b810181811067ffffffffffffffff82111715620001095762000108620000ad565b5b80604052505050565b60006200011e6200007e565b90506200012c8282620000dc565b919050565b600067ffffffffffffffff8211156200014f576200014e620000ad565b5b6200015a826200009c565b9050602081019050919050565b60005b83811015620001875780820151818401526020810190506200016a565b60008484015250505050565b6000620001aa620001a48462000131565b62000112565b905082815260208101848484011115620001c957620001c862000097565b5b620001d684828562000167565b509392505050565b600082601f830112620001f657620001f562000092565b5b81516200020884826020860162000193565b91505092915050565b6000819050919050565b620002268162000211565b81146200023257600080fd5b50565b60008151905062000246816200021b565b92915050565b6000806000806080858703121562000269576200026862000088565b5b600085015167ffffffffffffffff8111156200028a57620002896200008d565b5b6200029887828801620001de565b945050602085015167ffffffffffffffff811115620002bc57620002bb6200008d565b5b620002ca87828801620001de565b9350506040620002dd8782880162000235565b925050606085015167ffffffffffffffff8111156200030157620003006200008d565b5b6200030f87828801620001de565b91505092959194509250565b600081519050919050565b7f4e487b7100000000000000000000000000000000000000000000000000000000600052602260045260246000fd5b600060028204905060018216806200036e57607f821691505b60208210810362000384576200038362000326565b5b50919050565b60008190508160005260206000209050919050565b60006020601f8301049050919050565b600082821b905092915050565b600060088302620003ee7fffffffffffffffffffffffffffffffffffffffffffffffffffffffffffffffff82620003af565b620003fa8683620003af565b95508019841693508086168417925050509392505050565b6000819050919050565b60006200043d62000437620004318462000211565b62000412565b62000211565b9050919050565b6000819050919050565b62000459836200041c565b62000471620004688262000444565b848454620003bc565b825550505050565b600090565b6200048862000479565b620004958184846200044e565b505050565b5b81811015620004bd57620004b16000826200047e565b6001810190506200049b565b5050565b601f8211156200050c57620004d6816200038a565b620004e1846200039f565b81016020851015620004f1578190505b6200050962000500856200039f565b8301826200049a565b50505b505050565b600082821c905092915050565b6000620005316000198460080262000511565b1980831691505092915050565b60006200054c83836200051e565b9150826002028217905092915050565b62000567826200031b565b67ffffffffffffffff811115620005835762000582620000ad565b5b6200058f825462000355565b6200059c828285620004c1565b600060209050601f831160018114620005d45760008415620005bf578287015190505b620005cb85826200053e565b8655506200063b565b601f198416620005e4866200038a565b60005b828110156200060e57848901518255600182019150602085019450602081019050620005e7565b868310156200062e57848901516200062a601f8916826200051e565b8355505b6001600288020188555050505b505050505050565b610a8780620006536000396000f3fe608060405234801561001057600080fd5b50600436106100a95760003560e01c806357fc69d51161007157806357fc69d5146101565780636fd5ae15146101745780637065cb481461019257806393ba0678146101ae578063963cb784146101ca578063a5985e8c146101e8576100a9565b8063025e7c27146100ae57806306fdde03146100de5780630d8e6e2c146100fc57806317d7de7c1461011a57806354fd4d5014610138575b600080fd5b6100c860048036038101906100c3919061074d565b610206565b6040516100d591906107bb565b60405180910390f35b6100e6610245565b6040516100f39190610866565b60405180910390f35b6101046102d3565b6040516101119190610866565b60405180910390f35b610122610365565b60405161012f9190610866565b60405180910390f35b6101406103f7565b60405161014d9190610866565b60405180910390f35b61015e610485565b60405161016b9190610866565b60405180910390f35b61017c610513565b6040516101899190610897565b60405180910390f35b6101ac60048036038101906101a791906108de565b610519565b005b6101c860048036038101906101c3919061090b565b61057f565b005b6101d2610676565b6040516101df9190610866565b60405180910390f35b6101f0610708565b6040516101fd9190610897565b60405180910390f35b6000818154811061021657600080fd5b906000526020600020016000915054906101000a900473ffffffffffffffffffffffffffffffffffffffff1681565b600180546102529061097a565b80601f016020809104026020016040519081016040528092919081815260200182805461027e9061097a565b80156102cb5780601f106102a0576101008083540402835291602001916102cb565b820191906000526020600020905b8154815290600101906020018083116102ae57829003601f168201915b505050505081565b6060600480546102e29061097a565b80601f016020809104026020016040519081016040528092919081815260200182805461030e9061097a565b801561035b5780601f106103305761010080835404028352916020019161035b565b820191906000526020600020905b81548152906001019060200180831161033e57829003601f168201915b5050505050905090565b6060600180546103749061097a565b80601f01602080910402602001604051908101604052809291908181526020018280546103a09061097a565b80156103ed5780601f106103c2576101008083540402835291602001916103ed565b820191906000526020600020905b8154815290600101906020018083116103d057829003601f168201915b5050505050905090565b600480546104049061097a565b80601f01602080910402602001604051908101604052809291908181526020018280546104309061097a565b801561047d5780601f106104525761010080835404028352916020019161047d565b820191906000526020600020905b81548152906001019060200180831161046057829003601f168201915b505050505081565b600280546104929061097a565b80601f01602080910402602001604051908101604052809291908181526020018280546104be9061097a565b801561050b5780601f106104e05761010080835404028352916020019161050b565b820191906000526020600020905b8154815290600101906020018083116104ee57829003601f168201915b505050505081565b60035481565b6000819080600181540180825580915050600190039060005260206000200160009091909190916101000a81548173ffffffffffffffffffffffffffffffffffffffff021916908373ffffffffffffffffffffffffffffffffffffffff16021790555050565b60005b600080549050811015610671578173ffffffffffffffffffffffffffffffffffffffff16600082815481106105ba576105b96109ab565b5b9060005260206000200160009054906101000a900473ffffffffffffffffffffffffffffffffffffffff1673ffffffffffffffffffffffffffffffffffffffff160361065e578260008281548110610615576106146109ab565b5b9060005260206000200160006101000a81548173ffffffffffffffffffffffffffffffffffffffff021916908373ffffffffffffffffffffffffffffffffffffffff1602179055505b808061066990610a09565b915050610582565b505050565b6060600280546106859061097a565b80601f01602080910402602001604051908101604052809291908181526020018280546106b19061097a565b80156106fe5780601f106106d3576101008083540402835291602001916106fe565b820191906000526020600020905b8154815290600101906020018083116106e157829003601f168201915b5050505050905090565b6000600354905090565b600080fd5b6000819050919050565b61072a81610717565b811461073557600080fd5b50565b60008135905061074781610721565b92915050565b60006020828403121561076357610762610712565b5b600061077184828501610738565b91505092915050565b600073ffffffffffffffffffffffffffffffffffffffff82169050919050565b60006107a58261077a565b9050919050565b6107b58161079a565b82525050565b60006020820190506107d060008301846107ac565b92915050565b600081519050919050565b600082825260208201905092915050565b60005b838110156108105780820151818401526020810190506107f5565b60008484015250505050565b6000601f19601f8301169050919050565b6000610838826107d6565b61084281856107e1565b93506108528185602086016107f2565b61085b8161081c565b840191505092915050565b60006020820190508181036000830152610880818461082d565b905092915050565b61089181610717565b82525050565b60006020820190506108ac6000830184610888565b92915050565b6108bb8161079a565b81146108c657600080fd5b50565b6000813590506108d8816108b2565b92915050565b6000602082840312156108f4576108f3610712565b5b6000610902848285016108c9565b91505092915050565b6000806040838503121561092257610921610712565b5b6000610930858286016108c9565b9250506020610941858286016108c9565b9150509250929050565b7f4e487b7100000000000000000000000000000000000000000000000000000000600052602260045260246000fd5b6000600282049050600182168061099257607f821691505b6020821081036109a5576109a461094b565b5b50919050565b7f4e487b7100000000000000000000000000000000000000000000000000000000600052603260045260246000fd5b7f4e487b7100000000000000000000000000000000000000000000000000000000600052601160045260246000fd5b6000610a1482610717565b91507fffffffffffffffffffffffffffffffffffffffffffffffffffffffffffffffff8203610a4657610a456109da565b5b60018201905091905056fea26469706673582212205159a04027f1a87ea846ef638a9482ed8577bed603148cd60d36e148c4f9bab664736f6c634300081100336080604052633b9aca0060005534801561001857600080fd5b50604051610645380380610645833981810160405281019061003a91906100e4565b80600160006101000a81548173ffffffffffffffffffffffffffffffffffffffff021916908373ffffffffffffffffffffffffffffffffffffffff16021790555050610111565b600080fd5b600073ffffffffffffffffffffffffffffffffffffffff82169050919050565b60006100b182610086565b9050919050565b6100c1816100a6565b81146100cc57600080fd5b50565b6000815190506100de816100b8565b92915050565b6000602082840312156100fa576100f9610081565b5b6000610108848285016100cf565b91505092915050565b610525806101206000396000f3fe608060405234801561001057600080fd5b50600436106100625760003560e01c80633112a97b146100675780633129e7731461008357806337df00c9146100b3578063564b28a0146100cf578063893d20e8146100ed5780639f37092a1461010b575b600080fd5b610081600480360381019061007c9190610305565b610127565b005b61009d60048036038101906100989190610368565b61018d565b6040516100aa91906103a4565b60405180910390f35b6100cd60048036038101906100c89190610368565b6101d5565b005b6100d76101f0565b6040516100e491906103ce565b60405180910390f35b6100f56101f9565b60405161010291906103a4565b60405180910390f35b610125600480360381019061012091906103e9565b610223565b005b6002819080600181540180825580915050600190039060005260206000200160009091909190916101000a81548173ffffffffffffffffffffffffffffffffffffffff021916908373ffffffffffffffffffffffffffffffffffffffff16021790555050565b6000600282815481106101a3576101a2610429565b5b9060005260206000200160009054906101000a900473ffffffffffffffffffffffffffffffffffffffff169050919050565b806000808282546101e69190610487565b9250508190555050565b60008054905090565b6000600160009054906101000a900473ffffffffffffffffffffffffffffffffffffffff16905090565b8060008082825461023491906104bb565b925050819055506002829080600181540180825580915050600190039060005260206000200160009091909190916101000a81548173ffffffffffffffffffffffffffffffffffffffff021916908373ffffffffffffffffffffffffffffffffffffffff1602179055505050565b600080fd5b600073ffffffffffffffffffffffffffffffffffffffff82169050919050565b60006102d2826102a7565b9050919050565b6102e2816102c7565b81146102ed57600080fd5b50565b6000813590506102ff816102d9565b92915050565b60006020828403121561031b5761031a6102a2565b5b6000610329848285016102f0565b91505092915050565b6000819050919050565b61034581610332565b811461035057600080fd5b50565b6000813590506103628161033c565b92915050565b60006020828403121561037e5761037d6102a2565b5b600061038c84828501610353565b91505092915050565b61039e816102c7565b82525050565b60006020820190506103b96000830184610395565b92915050565b6103c881610332565b82525050565b60006020820190506103e360008301846103bf565b92915050565b60008060408385031215610400576103ff6102a2565b5b600061040e858286016102f0565b925050602061041f85828601610353565b9150509250929050565b7f4e487b7100000000000000000000000000000000000000000000000000000000600052603260045260246000fd5b7f4e487b7100000000000000000000000000000000000000000000000000000000600052601160045260246000fd5b600061049282610332565b915061049d83610332565b92508282019050808211156104b5576104b4610458565b5b92915050565b60006104c682610332565b91506104d183610332565b92508282039050818111156104e9576104e8610458565b5b9291505056fea26469706673582212209a66e979d67a8193b366a527b142afcbb4063d67e1548e7ca1b22f98c722897964736f6c63430008110033a264697066735822122038095f90595562aa9781239655c98bd78e5b88728794d35f25c089b54a947b7d64736f6c63430008110033",
  "devdoc": {
    "kind": "dev",
    "methods": {},
    "version": 1
  },
  "userdoc": {
    "kind": "user",
    "methods": {},
    "version": 1
  },
  "storageLayout": {
    "storage": [
      {
        "astId": 130,
        "contract": "contracts/GameStore.sol:GameStore",
        "label": "storeOriginalItems",
        "offset": 0,
        "slot": "0",
        "type": "t_array(t_address)dyn_storage"
      },
      {
        "astId": 134,
        "contract": "contracts/GameStore.sol:GameStore",
        "label": "Wallets",
        "offset": 0,
        "slot": "1",
        "type": "t_mapping(t_string_memory_ptr,t_address)"
      },
      {
        "astId": 138,
        "contract": "contracts/GameStore.sol:GameStore",
        "label": "listedStoreItemsToToken",
        "offset": 0,
        "slot": "2",
        "type": "t_mapping(t_address,t_uint256)"
      },
      {
        "astId": 142,
        "contract": "contracts/GameStore.sol:GameStore",
        "label": "listedUserMintedItemsToToken",
        "offset": 0,
        "slot": "3",
        "type": "t_mapping(t_address,t_uint256)"
      },
      {
        "astId": 146,
        "contract": "contracts/GameStore.sol:GameStore",
        "label": "listedUserTradeItemsToItems",
        "offset": 0,
        "slot": "4",
        "type": "t_mapping(t_address,t_address)"
      }
    ],
    "types": {
      "t_address": {
        "encoding": "inplace",
        "label": "address",
        "numberOfBytes": "20"
      },
      "t_array(t_address)dyn_storage": {
        "base": "t_address",
        "encoding": "dynamic_array",
        "label": "address[]",
        "numberOfBytes": "32"
      },
      "t_mapping(t_address,t_address)": {
        "encoding": "mapping",
        "key": "t_address",
        "label": "mapping(address => address)",
        "numberOfBytes": "32",
        "value": "t_address"
      },
      "t_mapping(t_address,t_uint256)": {
        "encoding": "mapping",
        "key": "t_address",
        "label": "mapping(address => uint256)",
        "numberOfBytes": "32",
        "value": "t_uint256"
      },
      "t_mapping(t_string_memory_ptr,t_address)": {
        "encoding": "mapping",
        "key": "t_string_memory_ptr",
        "label": "mapping(string => address)",
        "numberOfBytes": "32",
        "value": "t_address"
      },
      "t_string_memory_ptr": {
        "encoding": "bytes",
        "label": "string",
        "numberOfBytes": "32"
      },
      "t_uint256": {
        "encoding": "inplace",
        "label": "uint256",
        "numberOfBytes": "32"
      }
    }
  }
}