{
  "address": "0x44dFD72F95b71916C4877C78821249c77BF525a8",
  "abi": [
    {
      "inputs": [],
      "stateMutability": "nonpayable",
      "type": "constructor"
    },
    {
      "inputs": [],
      "name": "GameStore_NotOwner",
      "type": "error"
    },
    {
      "inputs": [
        {
          "internalType": "string",
          "name": "",
          "type": "string"
        }
      ],
      "name": "Wallets",
      "outputs": [
        {
          "internalType": "address",
          "name": "",
          "type": "address"
        }
      ],
      "stateMutability": "view",
      "type": "function"
    },
    {
      "inputs": [
        {
          "internalType": "string",
          "name": "name",
          "type": "string"
        },
        {
          "internalType": "address",
          "name": "gameItem",
          "type": "address"
        }
      ],
      "name": "buyItem",
      "outputs": [],
      "stateMutability": "nonpayable",
      "type": "function"
    },
    {
      "inputs": [
        {
          "internalType": "string",
          "name": "walletName",
          "type": "string"
        },
        {
          "internalType": "address",
          "name": "customItem",
          "type": "address"
        }
      ],
      "name": "buyingListedItems",
      "outputs": [],
      "stateMutability": "nonpayable",
      "type": "function"
    },
    {
      "inputs": [
        {
          "internalType": "string",
          "name": "walletName",
          "type": "string"
        },
        {
          "internalType": "string",
          "name": "_name",
          "type": "string"
        },
        {
          "internalType": "string",
          "name": "_typeOf",
          "type": "string"
        },
        {
          "internalType": "uint256",
          "name": "_level",
          "type": "uint256"
        }
      ],
      "name": "createCustomItems",
      "outputs": [],
      "stateMutability": "nonpayable",
      "type": "function"
    },
    {
      "inputs": [
        {
          "internalType": "string",
          "name": "_name",
          "type": "string"
        },
        {
          "internalType": "string",
          "name": "_typeOf",
          "type": "string"
        },
        {
          "internalType": "uint256",
          "name": "_level",
          "type": "uint256"
        },
        {
          "internalType": "uint256",
          "name": "token",
          "type": "uint256"
        }
      ],
      "name": "createItem",
      "outputs": [],
      "stateMutability": "nonpayable",
      "type": "function"
    },
    {
      "inputs": [
        {
          "internalType": "string",
          "name": "name",
          "type": "string"
        }
      ],
      "name": "createWallet",
      "outputs": [],
      "stateMutability": "nonpayable",
      "type": "function"
    },
    {
      "inputs": [
        {
          "internalType": "string",
          "name": "name",
          "type": "string"
        }
      ],
      "name": "getWallet",
      "outputs": [
        {
          "internalType": "address",
          "name": "",
          "type": "address"
        }
      ],
      "stateMutability": "view",
      "type": "function"
    },
    {
      "inputs": [
        {
          "internalType": "address",
          "name": "",
          "type": "address"
        }
      ],
      "name": "listedStoreItemsToToken",
      "outputs": [
        {
          "internalType": "uint256",
          "name": "",
          "type": "uint256"
        }
      ],
      "stateMutability": "view",
      "type": "function"
    },
    {
      "inputs": [
        {
          "internalType": "address",
          "name": "",
          "type": "address"
        }
      ],
      "name": "listedUserMintedItemsToToken",
      "outputs": [
        {
          "internalType": "uint256",
          "name": "",
          "type": "uint256"
        }
      ],
      "stateMutability": "view",
      "type": "function"
    },
    {
      "inputs": [
        {
          "internalType": "uint256",
          "name": "",
          "type": "uint256"
        }
      ],
      "name": "listedUserTradeItemsToItems",
      "outputs": [
        {
          "internalType": "address",
          "name": "trader",
          "type": "address"
        },
        {
          "internalType": "address",
          "name": "item",
          "type": "address"
        },
        {
          "internalType": "address",
          "name": "itemNeeded",
          "type": "address"
        }
      ],
      "stateMutability": "view",
      "type": "function"
    },
    {
      "inputs": [
        {
          "internalType": "string",
          "name": "walletName",
          "type": "string"
        },
        {
          "internalType": "uint256",
          "name": "index",
          "type": "uint256"
        },
        {
          "internalType": "uint256",
          "name": "token",
          "type": "uint256"
        }
      ],
      "name": "listingCustomItems",
      "outputs": [],
      "stateMutability": "nonpayable",
      "type": "function"
    },
    {
      "inputs": [
        {
          "internalType": "string",
          "name": "walletName",
          "type": "string"
        },
        {
          "internalType": "uint256",
          "name": "index",
          "type": "uint256"
        },
        {
          "internalType": "address",
          "name": "tradableItem",
          "type": "address"
        }
      ],
      "name": "listingTradeItems",
      "outputs": [],
      "stateMutability": "nonpayable",
      "type": "function"
    },
    {
      "inputs": [],
      "name": "owner",
      "outputs": [
        {
          "internalType": "address",
          "name": "",
          "type": "address"
        }
      ],
      "stateMutability": "view",
      "type": "function"
    },
    {
      "inputs": [
        {
          "internalType": "uint256",
          "name": "",
          "type": "uint256"
        }
      ],
      "name": "storeCustomItems",
      "outputs": [
        {
          "internalType": "address",
          "name": "",
          "type": "address"
        }
      ],
      "stateMutability": "view",
      "type": "function"
    },
    {
      "inputs": [
        {
          "internalType": "uint256",
          "name": "",
          "type": "uint256"
        }
      ],
      "name": "storeOriginalItems",
      "outputs": [
        {
          "internalType": "address",
          "name": "",
          "type": "address"
        }
      ],
      "stateMutability": "view",
      "type": "function"
    },
    {
      "inputs": [
        {
          "internalType": "string",
          "name": "tradeAcceptorWalletName",
          "type": "string"
        },
        {
          "internalType": "uint256",
          "name": "index",
          "type": "uint256"
        }
      ],
      "name": "tradeItem",
      "outputs": [],
      "stateMutability": "nonpayable",
      "type": "function"
    }
  ],
  "transactionHash": "0x19373e57ce2b708dd0a41dd15ea601c361ea1db80e9af6db32c1e54fcf8c8b28",
  "args": [],
  "numDeployments": 6,
  "solcInputHash": "fdf7a1e95f0305b06794016a52803063",
  "bytecode": "0x60a060405234801561001057600080fd5b503373ffffffffffffffffffffffffffffffffffffffff1660808173ffffffffffffffffffffffffffffffffffffffff1681525050608051614ef761006760003960008181610d8e01526110a00152614ef76000f3fe60806040523480156200001157600080fd5b5060043610620001185760003560e01c8063a4e2df6611620000a5578063cea1706c116200006f578063cea1706c146200030f578063da90e7821462000345578063de929b411462000365578063fa01593f146200039b5762000118565b8063a4e2df66146200024b578063c0c692731462000281578063c81034b114620002b7578063cd0178e614620002d75762000118565b806371e2288311620000e757806371e2288314620001b35780637404f1d214620001e95780638da5cb5b14620002095780639d8820c4146200022b5762000118565b80630e1020e8146200011d5780635742cc7514620001535780635a8a1c5014620001735780636fc36b381462000193575b600080fd5b6200013b6004803603810190620001359190620025d5565b620003bb565b6040516200014a91906200266b565b60405180910390f35b6200017160048036038101906200016b9190620026c3565b62000404565b005b6200019160048036038101906200018b91906200275a565b620009c4565b005b620001b16004803603810190620001ab9190620027d5565b62000d8c565b005b620001d16004803603810190620001cb919062002885565b62000f12565b604051620001e091906200266b565b60405180910390f35b620002076004803603810190620002019190620025d5565b62000f52565b005b620002136200109e565b6040516200022291906200266b565b60405180910390f35b620002496004803603810190620002439190620028b7565b620010c2565b005b620002696004803603810190620002639190620025d5565b620014d0565b6040516200027891906200266b565b60405180910390f35b6200029f60048036038101906200029991906200291d565b620016f3565b604051620002ae919062002960565b60405180910390f35b620002d56004803603810190620002cf91906200297d565b6200170b565b005b620002f56004803603810190620002ef919062002885565b62001acc565b6040516200030693929190620029f8565b60405180910390f35b6200032d60048036038101906200032791906200291d565b62001b67565b6040516200033c919062002960565b60405180910390f35b6200036360048036038101906200035d9190620028b7565b62001b7f565b005b6200038360048036038101906200037d919062002885565b620020a0565b6040516200039291906200266b565b60405180910390f35b620003b96004803603810190620003b3919062002a35565b620020e0565b005b6002818051602081018201805184825260208301602085012081835280955050505050506000915054906101000a900473ffffffffffffffffffffffffffffffffffffffff1681565b600073ffffffffffffffffffffffffffffffffffffffff166002836040516200042e919062002b7d565b908152602001604051809103902060009054906101000a900473ffffffffffffffffffffffffffffffffffffffff1673ffffffffffffffffffffffffffffffffffffffff1603620004b6576040517f08c379a0000000000000000000000000000000000000000000000000000000008152600401620004ad9062002c1d565b60405180910390fd5b6000600283604051620004ca919062002b7d565b908152602001604051809103902060009054906101000a900473ffffffffffffffffffffffffffffffffffffffff1690503373ffffffffffffffffffffffffffffffffffffffff168173ffffffffffffffffffffffffffffffffffffffff1663893d20e86040518163ffffffff1660e01b8152600401602060405180830381865afa1580156200055e573d6000803e3d6000fd5b505050506040513d601f19601f8201168201806040525081019062000584919062002c56565b73ffffffffffffffffffffffffffffffffffffffff1614620005dd576040517f08c379a0000000000000000000000000000000000000000000000000000000008152600401620005d49062002cd8565b60405180910390fd5b600060058381548110620005f657620005f562002cfa565b5b90600052602060002090600302016040518060600160405290816000820160009054906101000a900473ffffffffffffffffffffffffffffffffffffffff1673ffffffffffffffffffffffffffffffffffffffff1673ffffffffffffffffffffffffffffffffffffffff1681526020016001820160009054906101000a900473ffffffffffffffffffffffffffffffffffffffff1673ffffffffffffffffffffffffffffffffffffffff1673ffffffffffffffffffffffffffffffffffffffff1681526020016002820160009054906101000a900473ffffffffffffffffffffffffffffffffffffffff1673ffffffffffffffffffffffffffffffffffffffff1673ffffffffffffffffffffffffffffffffffffffff168152505090506000816000015190506000826020015190506000836040015190508073ffffffffffffffffffffffffffffffffffffffff16632f54bf6e866040518263ffffffff1660e01b81526004016200076991906200266b565b602060405180830381865afa15801562000787573d6000803e3d6000fd5b505050506040513d601f19601f82011682018060405250810190620007ad919062002d66565b620007ef576040517f08c379a0000000000000000000000000000000000000000000000000000000008152600401620007e69062002de8565b60405180910390fd5b8173ffffffffffffffffffffffffffffffffffffffff166393ba06788686600001516040518363ffffffff1660e01b81526004016200083092919062002e0a565b600060405180830381600087803b1580156200084b57600080fd5b505af115801562000860573d6000803e3d6000fd5b505050508073ffffffffffffffffffffffffffffffffffffffff166393ba06788560000151876040518363ffffffff1660e01b8152600401620008a592919062002e0a565b600060405180830381600087803b158015620008c057600080fd5b505af1158015620008d5573d6000803e3d6000fd5b505050508473ffffffffffffffffffffffffffffffffffffffff166327346b4282846040518363ffffffff1660e01b81526004016200091692919062002e0a565b600060405180830381600087803b1580156200093157600080fd5b505af115801562000946573d6000803e3d6000fd5b505050508273ffffffffffffffffffffffffffffffffffffffff166327346b4283836040518363ffffffff1660e01b81526004016200098792919062002e0a565b600060405180830381600087803b158015620009a257600080fd5b505af1158015620009b7573d6000803e3d6000fd5b5050505050505050505050565b600073ffffffffffffffffffffffffffffffffffffffff16600284604051620009ee919062002b7d565b908152602001604051809103902060009054906101000a900473ffffffffffffffffffffffffffffffffffffffff1673ffffffffffffffffffffffffffffffffffffffff160362000a76576040517f08c379a000000000000000000000000000000000000000000000000000000000815260040162000a6d9062002c1d565b60405180910390fd5b600060028460405162000a8a919062002b7d565b908152602001604051809103902060009054906101000a900473ffffffffffffffffffffffffffffffffffffffff1690503373ffffffffffffffffffffffffffffffffffffffff168173ffffffffffffffffffffffffffffffffffffffff1663893d20e86040518163ffffffff1660e01b8152600401602060405180830381865afa15801562000b1e573d6000803e3d6000fd5b505050506040513d601f19601f8201168201806040525081019062000b44919062002c56565b73ffffffffffffffffffffffffffffffffffffffff161462000b9d576040517f08c379a000000000000000000000000000000000000000000000000000000000815260040162000b949062002cd8565b60405180910390fd5b60008173ffffffffffffffffffffffffffffffffffffffff16633129e773856040518263ffffffff1660e01b815260040162000bda919062002960565b602060405180830381865afa15801562000bf8573d6000803e3d6000fd5b505050506040513d601f19601f8201168201806040525081019062000c1e919062002c56565b9050600060405180606001604052808473ffffffffffffffffffffffffffffffffffffffff1681526020018373ffffffffffffffffffffffffffffffffffffffff1681526020018573ffffffffffffffffffffffffffffffffffffffff168152509050600581908060018154018082558091505060019003906000526020600020906003020160009091909190915060008201518160000160006101000a81548173ffffffffffffffffffffffffffffffffffffffff021916908373ffffffffffffffffffffffffffffffffffffffff16021790555060208201518160010160006101000a81548173ffffffffffffffffffffffffffffffffffffffff021916908373ffffffffffffffffffffffffffffffffffffffff16021790555060408201518160020160006101000a81548173ffffffffffffffffffffffffffffffffffffffff021916908373ffffffffffffffffffffffffffffffffffffffff1602179055505050505050505050565b7f000000000000000000000000000000000000000000000000000000000000000073ffffffffffffffffffffffffffffffffffffffff163373ffffffffffffffffffffffffffffffffffffffff161462000e12576040517fb39a50da00000000000000000000000000000000000000000000000000000000815260040160405180910390fd5b600084848460405162000e259062002443565b62000e339392919062002ec8565b604051809103906000f08015801562000e50573d6000803e3d6000fd5b5090506000819080600181540180825580915050600190039060005260206000200160009091909190916101000a81548173ffffffffffffffffffffffffffffffffffffffff021916908373ffffffffffffffffffffffffffffffffffffffff1602179055506305f5e1008262000ec8919062002f57565b600360008373ffffffffffffffffffffffffffffffffffffffff1673ffffffffffffffffffffffffffffffffffffffff168152602001908152602001600020819055505050505050565b6001818154811062000f2357600080fd5b906000526020600020016000915054906101000a900473ffffffffffffffffffffffffffffffffffffffff1681565b600073ffffffffffffffffffffffffffffffffffffffff1660028260405162000f7c919062002b7d565b908152602001604051809103902060009054906101000a900473ffffffffffffffffffffffffffffffffffffffff1673ffffffffffffffffffffffffffffffffffffffff161462001004576040517f08c379a000000000000000000000000000000000000000000000000000000000815260040162000ffb9062002ff2565b60405180910390fd5b33604051620010139062002451565b6200101f91906200266b565b604051809103906000f0801580156200103c573d6000803e3d6000fd5b506002826040516200104f919062002b7d565b908152602001604051809103902060006101000a81548173ffffffffffffffffffffffffffffffffffffffff021916908373ffffffffffffffffffffffffffffffffffffffff16021790555050565b7f000000000000000000000000000000000000000000000000000000000000000081565b600073ffffffffffffffffffffffffffffffffffffffff16600283604051620010ec919062002b7d565b908152602001604051809103902060009054906101000a900473ffffffffffffffffffffffffffffffffffffffff1673ffffffffffffffffffffffffffffffffffffffff16141580156200118057506000600360008373ffffffffffffffffffffffffffffffffffffffff1673ffffffffffffffffffffffffffffffffffffffff1681526020019081526020016000205414155b620011c2576040517f08c379a0000000000000000000000000000000000000000000000000000000008152600401620011b99062002c1d565b60405180910390fd5b6000600283604051620011d6919062002b7d565b908152602001604051809103902060009054906101000a900473ffffffffffffffffffffffffffffffffffffffff1690503373ffffffffffffffffffffffffffffffffffffffff168173ffffffffffffffffffffffffffffffffffffffff1663893d20e86040518163ffffffff1660e01b8152600401602060405180830381865afa1580156200126a573d6000803e3d6000fd5b505050506040513d601f19601f8201168201806040525081019062001290919062002c56565b73ffffffffffffffffffffffffffffffffffffffff16148015620013645750600360008373ffffffffffffffffffffffffffffffffffffffff1673ffffffffffffffffffffffffffffffffffffffff168152602001908152602001600020548173ffffffffffffffffffffffffffffffffffffffff1663564b28a06040518163ffffffff1660e01b8152600401602060405180830381865afa1580156200133b573d6000803e3d6000fd5b505050506040513d601f19601f820116820180604052508101906200136191906200302b565b10155b620013a6576040517f08c379a00000000000000000000000000000000000000000000000000000000081526004016200139d9062002cd8565b60405180910390fd5b60008290508073ffffffffffffffffffffffffffffffffffffffff16637065cb48836040518263ffffffff1660e01b8152600401620013e691906200266b565b600060405180830381600087803b1580156200140157600080fd5b505af115801562001416573d6000803e3d6000fd5b505050508173ffffffffffffffffffffffffffffffffffffffff16639f37092a82600360008773ffffffffffffffffffffffffffffffffffffffff1673ffffffffffffffffffffffffffffffffffffffff168152602001908152602001600020546040518363ffffffff1660e01b8152600401620014969291906200305d565b600060405180830381600087803b158015620014b157600080fd5b505af1158015620014c6573d6000803e3d6000fd5b5050505050505050565b60008073ffffffffffffffffffffffffffffffffffffffff16600283604051620014fb919062002b7d565b908152602001604051809103902060009054906101000a900473ffffffffffffffffffffffffffffffffffffffff1673ffffffffffffffffffffffffffffffffffffffff160362001583576040517f08c379a00000000000000000000000000000000000000000000000000000000081526004016200157a90620030da565b60405180910390fd5b600060028360405162001597919062002b7d565b908152602001604051809103902060009054906101000a900473ffffffffffffffffffffffffffffffffffffffff1690503373ffffffffffffffffffffffffffffffffffffffff168173ffffffffffffffffffffffffffffffffffffffff1663893d20e86040518163ffffffff1660e01b8152600401602060405180830381865afa1580156200162b573d6000803e3d6000fd5b505050506040513d601f19601f8201168201806040525081019062001651919062002c56565b73ffffffffffffffffffffffffffffffffffffffff1614620016aa576040517f08c379a0000000000000000000000000000000000000000000000000000000008152600401620016a19062002cd8565b60405180910390fd5b600283604051620016bc919062002b7d565b908152602001604051809103902060009054906101000a900473ffffffffffffffffffffffffffffffffffffffff16915050919050565b60036020528060005260406000206000915090505481565b600073ffffffffffffffffffffffffffffffffffffffff1660028460405162001735919062002b7d565b908152602001604051809103902060009054906101000a900473ffffffffffffffffffffffffffffffffffffffff1673ffffffffffffffffffffffffffffffffffffffff1603620017bd576040517f08c379a0000000000000000000000000000000000000000000000000000000008152600401620017b49062002c1d565b60405180910390fd5b6000600284604051620017d1919062002b7d565b908152602001604051809103902060009054906101000a900473ffffffffffffffffffffffffffffffffffffffff1690503373ffffffffffffffffffffffffffffffffffffffff168173ffffffffffffffffffffffffffffffffffffffff1663893d20e86040518163ffffffff1660e01b8152600401602060405180830381865afa15801562001865573d6000803e3d6000fd5b505050506040513d601f19601f820116820180604052508101906200188b919062002c56565b73ffffffffffffffffffffffffffffffffffffffff1614620018e4576040517f08c379a0000000000000000000000000000000000000000000000000000000008152600401620018db9062002cd8565b60405180910390fd5b60008173ffffffffffffffffffffffffffffffffffffffff16633129e773856040518263ffffffff1660e01b815260040162001921919062002960565b602060405180830381865afa1580156200193f573d6000803e3d6000fd5b505050506040513d601f19601f8201168201806040525081019062001965919062002c56565b90506040516020016200197890620030fc565b604051602081830303815290604052805190602001208173ffffffffffffffffffffffffffffffffffffffff16630d8e6e2c6040518163ffffffff1660e01b8152600401600060405180830381865afa158015620019da573d6000803e3d6000fd5b505050506040513d6000823e3d601f19601f8201168201806040525081019062001a0591906200319c565b60405160200162001a179190620031ed565b604051602081830303815290604052805190602001200362001a70576040517f08c379a000000000000000000000000000000000000000000000000000000000815260040162001a679062003261565b60405180910390fd5b6305f5e1008362001a82919062002f57565b600460008373ffffffffffffffffffffffffffffffffffffffff1673ffffffffffffffffffffffffffffffffffffffff168152602001908152602001600020819055505050505050565b6005818154811062001add57600080fd5b90600052602060002090600302016000915090508060000160009054906101000a900473ffffffffffffffffffffffffffffffffffffffff16908060010160009054906101000a900473ffffffffffffffffffffffffffffffffffffffff16908060020160009054906101000a900473ffffffffffffffffffffffffffffffffffffffff16905083565b60046020528060005260406000206000915090505481565b600073ffffffffffffffffffffffffffffffffffffffff1660028360405162001ba9919062002b7d565b908152602001604051809103902060009054906101000a900473ffffffffffffffffffffffffffffffffffffffff1673ffffffffffffffffffffffffffffffffffffffff160362001c31576040517f08c379a000000000000000000000000000000000000000000000000000000000815260040162001c289062002c1d565b60405180910390fd5b600060028360405162001c45919062002b7d565b908152602001604051809103902060009054906101000a900473ffffffffffffffffffffffffffffffffffffffff1690503373ffffffffffffffffffffffffffffffffffffffff168173ffffffffffffffffffffffffffffffffffffffff1663893d20e86040518163ffffffff1660e01b8152600401602060405180830381865afa15801562001cd9573d6000803e3d6000fd5b505050506040513d601f19601f8201168201806040525081019062001cff919062002c56565b73ffffffffffffffffffffffffffffffffffffffff1614801562001dd35750600460008373ffffffffffffffffffffffffffffffffffffffff1673ffffffffffffffffffffffffffffffffffffffff168152602001908152602001600020548173ffffffffffffffffffffffffffffffffffffffff1663564b28a06040518163ffffffff1660e01b8152600401602060405180830381865afa15801562001daa573d6000803e3d6000fd5b505050506040513d601f19601f8201168201806040525081019062001dd091906200302b565b10155b62001e15576040517f08c379a000000000000000000000000000000000000000000000000000000000815260040162001e0c90620032f9565b60405180910390fd5b60008290508073ffffffffffffffffffffffffffffffffffffffff1663025e7c2760006040518263ffffffff1660e01b815260040162001e56919062003368565b602060405180830381865afa15801562001e74573d6000803e3d6000fd5b505050506040513d601f19601f8201168201806040525081019062001e9a919062002c56565b73ffffffffffffffffffffffffffffffffffffffff168273ffffffffffffffffffffffffffffffffffffffff1663893d20e86040518163ffffffff1660e01b8152600401602060405180830381865afa15801562001efc573d6000803e3d6000fd5b505050506040513d601f19601f8201168201806040525081019062001f22919062002c56565b73ffffffffffffffffffffffffffffffffffffffff160362001f7b576040517f08c379a000000000000000000000000000000000000000000000000000000000815260040162001f7290620033fb565b60405180910390fd5b8073ffffffffffffffffffffffffffffffffffffffff16637065cb48836040518263ffffffff1660e01b815260040162001fb691906200266b565b600060405180830381600087803b15801562001fd157600080fd5b505af115801562001fe6573d6000803e3d6000fd5b505050508173ffffffffffffffffffffffffffffffffffffffff16639f37092a82600460008773ffffffffffffffffffffffffffffffffffffffff1673ffffffffffffffffffffffffffffffffffffffff168152602001908152602001600020546040518363ffffffff1660e01b8152600401620020669291906200305d565b600060405180830381600087803b1580156200208157600080fd5b505af115801562002096573d6000803e3d6000fd5b5050505050505050565b60008181548110620020b157600080fd5b906000526020600020016000915054906101000a900473ffffffffffffffffffffffffffffffffffffffff1681565b600073ffffffffffffffffffffffffffffffffffffffff166002856040516200210a919062002b7d565b908152602001604051809103902060009054906101000a900473ffffffffffffffffffffffffffffffffffffffff1673ffffffffffffffffffffffffffffffffffffffff160362002192576040517f08c379a0000000000000000000000000000000000000000000000000000000008152600401620021899062002c1d565b60405180910390fd5b6000600285604051620021a6919062002b7d565b908152602001604051809103902060009054906101000a900473ffffffffffffffffffffffffffffffffffffffff1690503373ffffffffffffffffffffffffffffffffffffffff168173ffffffffffffffffffffffffffffffffffffffff1663893d20e86040518163ffffffff1660e01b8152600401602060405180830381865afa1580156200223a573d6000803e3d6000fd5b505050506040513d601f19601f8201168201806040525081019062002260919062002c56565b73ffffffffffffffffffffffffffffffffffffffff1614620022b9576040517f08c379a0000000000000000000000000000000000000000000000000000000008152600401620022b09062002cd8565b60405180910390fd5b6000848484604051620022cc9062002443565b620022da939291906200346d565b604051809103906000f080158015620022f7573d6000803e3d6000fd5b5090506001819080600181540180825580915050600190039060005260206000200160009091909190916101000a81548173ffffffffffffffffffffffffffffffffffffffff021916908373ffffffffffffffffffffffffffffffffffffffff1602179055508073ffffffffffffffffffffffffffffffffffffffff16637065cb48836040518263ffffffff1660e01b81526004016200239891906200266b565b600060405180830381600087803b158015620023b357600080fd5b505af1158015620023c8573d6000803e3d6000fd5b505050508173ffffffffffffffffffffffffffffffffffffffff16633112a97b826040518263ffffffff1660e01b81526004016200240791906200266b565b600060405180830381600087803b1580156200242257600080fd5b505af115801562002437573d6000803e3d6000fd5b50505050505050505050565b6111f980620034ce83390190565b6107fb80620046c783390190565b6000604051905090565b600080fd5b600080fd5b600080fd5b600080fd5b6000601f19601f8301169050919050565b7f4e487b7100000000000000000000000000000000000000000000000000000000600052604160045260246000fd5b620024c8826200247d565b810181811067ffffffffffffffff82111715620024ea57620024e96200248e565b5b80604052505050565b6000620024ff6200245f565b90506200250d8282620024bd565b919050565b600067ffffffffffffffff82111562002530576200252f6200248e565b5b6200253b826200247d565b9050602081019050919050565b82818337600083830152505050565b60006200256e620025688462002512565b620024f3565b9050828152602081018484840111156200258d576200258c62002478565b5b6200259a84828562002548565b509392505050565b600082601f830112620025ba57620025b962002473565b5b8135620025cc84826020860162002557565b91505092915050565b600060208284031215620025ee57620025ed62002469565b5b600082013567ffffffffffffffff8111156200260f576200260e6200246e565b5b6200261d84828501620025a2565b91505092915050565b600073ffffffffffffffffffffffffffffffffffffffff82169050919050565b6000620026538262002626565b9050919050565b620026658162002646565b82525050565b60006020820190506200268260008301846200265a565b92915050565b6000819050919050565b6200269d8162002688565b8114620026a957600080fd5b50565b600081359050620026bd8162002692565b92915050565b60008060408385031215620026dd57620026dc62002469565b5b600083013567ffffffffffffffff811115620026fe57620026fd6200246e565b5b6200270c85828601620025a2565b92505060206200271f85828601620026ac565b9150509250929050565b620027348162002646565b81146200274057600080fd5b50565b600081359050620027548162002729565b92915050565b60008060006060848603121562002776576200277562002469565b5b600084013567ffffffffffffffff8111156200279757620027966200246e565b5b620027a586828701620025a2565b9350506020620027b886828701620026ac565b9250506040620027cb8682870162002743565b9150509250925092565b60008060008060808587031215620027f257620027f162002469565b5b600085013567ffffffffffffffff8111156200281357620028126200246e565b5b6200282187828801620025a2565b945050602085013567ffffffffffffffff8111156200284557620028446200246e565b5b6200285387828801620025a2565b93505060406200286687828801620026ac565b92505060606200287987828801620026ac565b91505092959194509250565b6000602082840312156200289e576200289d62002469565b5b6000620028ae84828501620026ac565b91505092915050565b60008060408385031215620028d157620028d062002469565b5b600083013567ffffffffffffffff811115620028f257620028f16200246e565b5b6200290085828601620025a2565b9250506020620029138582860162002743565b9150509250929050565b60006020828403121562002936576200293562002469565b5b6000620029468482850162002743565b91505092915050565b6200295a8162002688565b82525050565b60006020820190506200297760008301846200294f565b92915050565b60008060006060848603121562002999576200299862002469565b5b600084013567ffffffffffffffff811115620029ba57620029b96200246e565b5b620029c886828701620025a2565b9350506020620029db86828701620026ac565b9250506040620029ee86828701620026ac565b9150509250925092565b600060608201905062002a0f60008301866200265a565b62002a1e60208301856200265a565b62002a2d60408301846200265a565b949350505050565b6000806000806080858703121562002a525762002a5162002469565b5b600085013567ffffffffffffffff81111562002a735762002a726200246e565b5b62002a8187828801620025a2565b945050602085013567ffffffffffffffff81111562002aa55762002aa46200246e565b5b62002ab387828801620025a2565b935050604085013567ffffffffffffffff81111562002ad75762002ad66200246e565b5b62002ae587828801620025a2565b925050606062002af887828801620026ac565b91505092959194509250565b600081519050919050565b600081905092915050565b60005b8381101562002b3a57808201518184015260208101905062002b1d565b60008484015250505050565b600062002b538262002b04565b62002b5f818562002b0f565b935062002b7181856020860162002b1a565b80840191505092915050565b600062002b8b828462002b46565b915081905092915050565b600082825260208201905092915050565b7f57616c6c6574206f722067616d65206974656d20646f6573206e6f742065786960008201527f7374212100000000000000000000000000000000000000000000000000000000602082015250565b600062002c0560248362002b96565b915062002c128262002ba7565b604082019050919050565b6000602082019050818103600083015262002c388162002bf6565b9050919050565b60008151905062002c508162002729565b92915050565b60006020828403121562002c6f5762002c6e62002469565b5b600062002c7f8482850162002c3f565b91505092915050565b7f57616c6c6574206973206e6f74206f776e656420627920796f75212121000000600082015250565b600062002cc0601d8362002b96565b915062002ccd8262002c88565b602082019050919050565b6000602082019050818103600083015262002cf38162002cb1565b9050919050565b7f4e487b7100000000000000000000000000000000000000000000000000000000600052603260045260246000fd5b60008115159050919050565b62002d408162002d29565b811462002d4c57600080fd5b50565b60008151905062002d608162002d35565b92915050565b60006020828403121562002d7f5762002d7e62002469565b5b600062002d8f8482850162002d4f565b91505092915050565b7f596f7520646f6e27742068617665207265717569726564206974656d21212121600082015250565b600062002dd060208362002b96565b915062002ddd8262002d98565b602082019050919050565b6000602082019050818103600083015262002e038162002dc1565b9050919050565b600060408201905062002e2160008301856200265a565b62002e3060208301846200265a565b9392505050565b600062002e448262002b04565b62002e50818562002b96565b935062002e6281856020860162002b1a565b62002e6d816200247d565b840191505092915050565b7f636c617373696300000000000000000000000000000000000000000000000000600082015250565b600062002eb060078362002b96565b915062002ebd8262002e78565b602082019050919050565b6000608082019050818103600083015262002ee4818662002e37565b9050818103602083015262002efa818562002e37565b905062002f0b60408301846200294f565b818103606083015262002f1e8162002ea1565b9050949350505050565b7f4e487b7100000000000000000000000000000000000000000000000000000000600052601160045260246000fd5b600062002f648262002688565b915062002f718362002688565b925082820262002f818162002688565b9150828204841483151762002f9b5762002f9a62002f28565b5b5092915050565b7f57616c6c65742065786973742121000000000000000000000000000000000000600082015250565b600062002fda600e8362002b96565b915062002fe78262002fa2565b602082019050919050565b600060208201905081810360008301526200300d8162002fcb565b9050919050565b600081519050620030258162002692565b92915050565b60006020828403121562003044576200304362002469565b5b6000620030548482850162003014565b91505092915050565b60006040820190506200307460008301856200265a565b6200308360208301846200294f565b9392505050565b7f57616c6c657420646f6573206e6f742065786973742121000000000000000000600082015250565b6000620030c260178362002b96565b9150620030cf826200308a565b602082019050919050565b60006020820190508181036000830152620030f581620030b3565b9050919050565b60006020820190508181036000830152620031178162002ea1565b9050919050565b6000620031356200312f8462002512565b620024f3565b90508281526020810184848401111562003154576200315362002478565b5b6200316184828562002b1a565b509392505050565b600082601f83011262003181576200318062002473565b5b8151620031938482602086016200311e565b91505092915050565b600060208284031215620031b557620031b462002469565b5b600082015167ffffffffffffffff811115620031d657620031d56200246e565b5b620031e48482850162003169565b91505092915050565b6000602082019050818103600083015262003209818462002e37565b905092915050565b7f4f6e6c7920437573746f6d204974656d2063616e206265206c69737465640000600082015250565b600062003249601e8362002b96565b9150620032568262003211565b602082019050919050565b600060208201905081810360008301526200327c816200323a565b9050919050565b7f57616c6c6574206973206e6f74206f776e656420627920796f75206f7220796f60008201527f7520646f6e2774206861766520656e6f75676820746f6b656e73212121000000602082015250565b6000620032e1603d8362002b96565b9150620032ee8262003283565b604082019050919050565b600060208201905081810360008301526200331481620032d2565b9050919050565b6000819050919050565b6000819050919050565b6000620033506200334a62003344846200331b565b62003325565b62002688565b9050919050565b62003362816200332f565b82525050565b60006020820190506200337f600083018462003357565b92915050565b7f4974656d2043726561746f722063616e6e6f742062757920637573746f6d206960008201527f74656d2121210000000000000000000000000000000000000000000000000000602082015250565b6000620033e360268362002b96565b9150620033f08262003385565b604082019050919050565b600060208201905081810360008301526200341681620033d4565b9050919050565b7f637573746f6d0000000000000000000000000000000000000000000000000000600082015250565b60006200345560068362002b96565b915062003462826200341d565b602082019050919050565b6000608082019050818103600083015262003489818662002e37565b905081810360208301526200349f818562002e37565b9050620034b060408301846200294f565b8181036060830152620034c38162003446565b905094935050505056fe60806040523480156200001157600080fd5b50604051620011f9380380620011f983398181016040528101906200003791906200024c565b83600190816200004891906200055c565b5082600290816200005a91906200055c565b508160038190555080600490816200007391906200055c565b505050505062000643565b6000604051905090565b600080fd5b600080fd5b600080fd5b600080fd5b6000601f19601f8301169050919050565b7f4e487b7100000000000000000000000000000000000000000000000000000000600052604160045260246000fd5b620000e7826200009c565b810181811067ffffffffffffffff82111715620001095762000108620000ad565b5b80604052505050565b60006200011e6200007e565b90506200012c8282620000dc565b919050565b600067ffffffffffffffff8211156200014f576200014e620000ad565b5b6200015a826200009c565b9050602081019050919050565b60005b83811015620001875780820151818401526020810190506200016a565b60008484015250505050565b6000620001aa620001a48462000131565b62000112565b905082815260208101848484011115620001c957620001c862000097565b5b620001d684828562000167565b509392505050565b600082601f830112620001f657620001f562000092565b5b81516200020884826020860162000193565b91505092915050565b6000819050919050565b620002268162000211565b81146200023257600080fd5b50565b60008151905062000246816200021b565b92915050565b6000806000806080858703121562000269576200026862000088565b5b600085015167ffffffffffffffff8111156200028a57620002896200008d565b5b6200029887828801620001de565b945050602085015167ffffffffffffffff811115620002bc57620002bb6200008d565b5b620002ca87828801620001de565b9350506040620002dd8782880162000235565b925050606085015167ffffffffffffffff8111156200030157620003006200008d565b5b6200030f87828801620001de565b91505092959194509250565b600081519050919050565b7f4e487b7100000000000000000000000000000000000000000000000000000000600052602260045260246000fd5b600060028204905060018216806200036e57607f821691505b60208210810362000384576200038362000326565b5b50919050565b60008190508160005260206000209050919050565b60006020601f8301049050919050565b600082821b905092915050565b600060088302620003ee7fffffffffffffffffffffffffffffffffffffffffffffffffffffffffffffffff82620003af565b620003fa8683620003af565b95508019841693508086168417925050509392505050565b6000819050919050565b60006200043d62000437620004318462000211565b62000412565b62000211565b9050919050565b6000819050919050565b62000459836200041c565b62000471620004688262000444565b848454620003bc565b825550505050565b600090565b6200048862000479565b620004958184846200044e565b505050565b5b81811015620004bd57620004b16000826200047e565b6001810190506200049b565b5050565b601f8211156200050c57620004d6816200038a565b620004e1846200039f565b81016020851015620004f1578190505b6200050962000500856200039f565b8301826200049a565b50505b505050565b600082821c905092915050565b6000620005316000198460080262000511565b1980831691505092915050565b60006200054c83836200051e565b9150826002028217905092915050565b62000567826200031b565b67ffffffffffffffff811115620005835762000582620000ad565b5b6200058f825462000355565b6200059c828285620004c1565b600060209050601f831160018114620005d45760008415620005bf578287015190505b620005cb85826200053e565b8655506200063b565b601f198416620005e4866200038a565b60005b828110156200060e57848901518255600182019150602085019450602081019050620005e7565b868310156200062e57848901516200062a601f8916826200051e565b8355505b6001600288020188555050505b505050505050565b610ba680620006536000396000f3fe608060405234801561001057600080fd5b50600436106100b45760003560e01c806357fc69d51161007157806357fc69d5146101915780636fd5ae15146101af5780637065cb48146101cd57806393ba0678146101e9578063963cb78414610205578063a5985e8c14610223576100b4565b8063025e7c27146100b957806306fdde03146100e95780630d8e6e2c1461010757806317d7de7c146101255780632f54bf6e1461014357806354fd4d5014610173575b600080fd5b6100d360048036038101906100ce9190610836565b610241565b6040516100e091906108a4565b60405180910390f35b6100f1610280565b6040516100fe919061094f565b60405180910390f35b61010f61030e565b60405161011c919061094f565b60405180910390f35b61012d6103a0565b60405161013a919061094f565b60405180910390f35b61015d6004803603810190610158919061099d565b610432565b60405161016a91906109e5565b60405180910390f35b61017b6104e0565b604051610188919061094f565b60405180910390f35b61019961056e565b6040516101a6919061094f565b60405180910390f35b6101b76105fc565b6040516101c49190610a0f565b60405180910390f35b6101e760048036038101906101e2919061099d565b610602565b005b61020360048036038101906101fe9190610a2a565b610668565b005b61020d61075f565b60405161021a919061094f565b60405180910390f35b61022b6107f1565b6040516102389190610a0f565b60405180910390f35b6000818154811061025157600080fd5b906000526020600020016000915054906101000a900473ffffffffffffffffffffffffffffffffffffffff1681565b6001805461028d90610a99565b80601f01602080910402602001604051908101604052809291908181526020018280546102b990610a99565b80156103065780601f106102db57610100808354040283529160200191610306565b820191906000526020600020905b8154815290600101906020018083116102e957829003601f168201915b505050505081565b60606004805461031d90610a99565b80601f016020809104026020016040519081016040528092919081815260200182805461034990610a99565b80156103965780601f1061036b57610100808354040283529160200191610396565b820191906000526020600020905b81548152906001019060200180831161037957829003601f168201915b5050505050905090565b6060600180546103af90610a99565b80601f01602080910402602001604051908101604052809291908181526020018280546103db90610a99565b80156104285780601f106103fd57610100808354040283529160200191610428565b820191906000526020600020905b81548152906001019060200180831161040b57829003601f168201915b5050505050905090565b600080600090505b6000805490508110156104d5578273ffffffffffffffffffffffffffffffffffffffff166000828154811061047257610471610aca565b5b9060005260206000200160009054906101000a900473ffffffffffffffffffffffffffffffffffffffff1673ffffffffffffffffffffffffffffffffffffffff16036104c25760019150506104db565b80806104cd90610b28565b91505061043a565b50600090505b919050565b600480546104ed90610a99565b80601f016020809104026020016040519081016040528092919081815260200182805461051990610a99565b80156105665780601f1061053b57610100808354040283529160200191610566565b820191906000526020600020905b81548152906001019060200180831161054957829003601f168201915b505050505081565b6002805461057b90610a99565b80601f01602080910402602001604051908101604052809291908181526020018280546105a790610a99565b80156105f45780601f106105c9576101008083540402835291602001916105f4565b820191906000526020600020905b8154815290600101906020018083116105d757829003601f168201915b505050505081565b60035481565b6000819080600181540180825580915050600190039060005260206000200160009091909190916101000a81548173ffffffffffffffffffffffffffffffffffffffff021916908373ffffffffffffffffffffffffffffffffffffffff16021790555050565b60005b60008054905081101561075a578173ffffffffffffffffffffffffffffffffffffffff16600082815481106106a3576106a2610aca565b5b9060005260206000200160009054906101000a900473ffffffffffffffffffffffffffffffffffffffff1673ffffffffffffffffffffffffffffffffffffffff16036107475782600082815481106106fe576106fd610aca565b5b9060005260206000200160006101000a81548173ffffffffffffffffffffffffffffffffffffffff021916908373ffffffffffffffffffffffffffffffffffffffff1602179055505b808061075290610b28565b91505061066b565b505050565b60606002805461076e90610a99565b80601f016020809104026020016040519081016040528092919081815260200182805461079a90610a99565b80156107e75780601f106107bc576101008083540402835291602001916107e7565b820191906000526020600020905b8154815290600101906020018083116107ca57829003601f168201915b5050505050905090565b6000600354905090565b600080fd5b6000819050919050565b61081381610800565b811461081e57600080fd5b50565b6000813590506108308161080a565b92915050565b60006020828403121561084c5761084b6107fb565b5b600061085a84828501610821565b91505092915050565b600073ffffffffffffffffffffffffffffffffffffffff82169050919050565b600061088e82610863565b9050919050565b61089e81610883565b82525050565b60006020820190506108b96000830184610895565b92915050565b600081519050919050565b600082825260208201905092915050565b60005b838110156108f95780820151818401526020810190506108de565b60008484015250505050565b6000601f19601f8301169050919050565b6000610921826108bf565b61092b81856108ca565b935061093b8185602086016108db565b61094481610905565b840191505092915050565b600060208201905081810360008301526109698184610916565b905092915050565b61097a81610883565b811461098557600080fd5b50565b60008135905061099781610971565b92915050565b6000602082840312156109b3576109b26107fb565b5b60006109c184828501610988565b91505092915050565b60008115159050919050565b6109df816109ca565b82525050565b60006020820190506109fa60008301846109d6565b92915050565b610a0981610800565b82525050565b6000602082019050610a246000830184610a00565b92915050565b60008060408385031215610a4157610a406107fb565b5b6000610a4f85828601610988565b9250506020610a6085828601610988565b9150509250929050565b7f4e487b7100000000000000000000000000000000000000000000000000000000600052602260045260246000fd5b60006002820490506001821680610ab157607f821691505b602082108103610ac457610ac3610a6a565b5b50919050565b7f4e487b7100000000000000000000000000000000000000000000000000000000600052603260045260246000fd5b7f4e487b7100000000000000000000000000000000000000000000000000000000600052601160045260246000fd5b6000610b3382610800565b91507fffffffffffffffffffffffffffffffffffffffffffffffffffffffffffffffff8203610b6557610b64610af9565b5b60018201905091905056fea26469706673582212205e7b101d9e31aa9bb7a1fb9885f5a2ed3ac361cb21d4c42b5545dd50d9092aa064736f6c634300081100336080604052633b9aca0060005534801561001857600080fd5b506040516107fb3803806107fb833981810160405281019061003a91906100e4565b80600160006101000a81548173ffffffffffffffffffffffffffffffffffffffff021916908373ffffffffffffffffffffffffffffffffffffffff16021790555050610111565b600080fd5b600073ffffffffffffffffffffffffffffffffffffffff82169050919050565b60006100b182610086565b9050919050565b6100c1816100a6565b81146100cc57600080fd5b50565b6000815190506100de816100b8565b92915050565b6000602082840312156100fa576100f9610081565b5b6000610108848285016100cf565b91505092915050565b6106db806101206000396000f3fe608060405234801561001057600080fd5b506004361061007d5760003560e01c806337df00c91161005b57806337df00c9146100ea578063564b28a014610106578063893d20e8146101245780639f37092a146101425761007d565b806327346b42146100825780633112a97b1461009e5780633129e773146100ba575b600080fd5b61009c60048036038101906100979190610433565b61015e565b005b6100b860048036038101906100b39190610473565b610255565b005b6100d460048036038101906100cf91906104d6565b6102bb565b6040516100e19190610512565b60405180910390f35b61010460048036038101906100ff91906104d6565b610303565b005b61010e61031e565b60405161011b919061053c565b60405180910390f35b61012c610327565b6040516101399190610512565b60405180910390f35b61015c60048036038101906101579190610557565b610351565b005b60005b600280549050811015610250578273ffffffffffffffffffffffffffffffffffffffff166002828154811061019957610198610597565b5b9060005260206000200160009054906101000a900473ffffffffffffffffffffffffffffffffffffffff1673ffffffffffffffffffffffffffffffffffffffff160361023d5781600282815481106101f4576101f3610597565b5b9060005260206000200160006101000a81548173ffffffffffffffffffffffffffffffffffffffff021916908373ffffffffffffffffffffffffffffffffffffffff1602179055505b8080610248906105f5565b915050610161565b505050565b6002819080600181540180825580915050600190039060005260206000200160009091909190916101000a81548173ffffffffffffffffffffffffffffffffffffffff021916908373ffffffffffffffffffffffffffffffffffffffff16021790555050565b6000600282815481106102d1576102d0610597565b5b9060005260206000200160009054906101000a900473ffffffffffffffffffffffffffffffffffffffff169050919050565b80600080828254610314919061063d565b9250508190555050565b60008054905090565b6000600160009054906101000a900473ffffffffffffffffffffffffffffffffffffffff16905090565b806000808282546103629190610671565b925050819055506002829080600181540180825580915050600190039060005260206000200160009091909190916101000a81548173ffffffffffffffffffffffffffffffffffffffff021916908373ffffffffffffffffffffffffffffffffffffffff1602179055505050565b600080fd5b600073ffffffffffffffffffffffffffffffffffffffff82169050919050565b6000610400826103d5565b9050919050565b610410816103f5565b811461041b57600080fd5b50565b60008135905061042d81610407565b92915050565b6000806040838503121561044a576104496103d0565b5b60006104588582860161041e565b92505060206104698582860161041e565b9150509250929050565b600060208284031215610489576104886103d0565b5b60006104978482850161041e565b91505092915050565b6000819050919050565b6104b3816104a0565b81146104be57600080fd5b50565b6000813590506104d0816104aa565b92915050565b6000602082840312156104ec576104eb6103d0565b5b60006104fa848285016104c1565b91505092915050565b61050c816103f5565b82525050565b60006020820190506105276000830184610503565b92915050565b610536816104a0565b82525050565b6000602082019050610551600083018461052d565b92915050565b6000806040838503121561056e5761056d6103d0565b5b600061057c8582860161041e565b925050602061058d858286016104c1565b9150509250929050565b7f4e487b7100000000000000000000000000000000000000000000000000000000600052603260045260246000fd5b7f4e487b7100000000000000000000000000000000000000000000000000000000600052601160045260246000fd5b6000610600826104a0565b91507fffffffffffffffffffffffffffffffffffffffffffffffffffffffffffffffff8203610632576106316105c6565b5b600182019050919050565b6000610648826104a0565b9150610653836104a0565b925082820190508082111561066b5761066a6105c6565b5b92915050565b600061067c826104a0565b9150610687836104a0565b925082820390508181111561069f5761069e6105c6565b5b9291505056fea2646970667358221220f46cc472c7df1650a8fc732e150d81657931d59da8bc3737eaf65162be2c070d64736f6c63430008110033a26469706673582212205dbca0d63dd96ee3e15591a01d099709a24fac64e1651b11f0c7628934a8bbc964736f6c63430008110033",
  "devdoc": {
    "kind": "dev",
    "methods": {},
    "version": 1
  },
  "userdoc": {
    "kind": "user",
    "methods": {},
    "version": 1
  },
  "storageLayout": {
    "storage": [
      {
        "astId": 215,
        "contract": "contracts/GameStore.sol:GameStore",
        "label": "storeOriginalItems",
        "offset": 0,
        "slot": "0",
        "type": "t_array(t_address)dyn_storage"
      },
      {
        "astId": 218,
        "contract": "contracts/GameStore.sol:GameStore",
        "label": "storeCustomItems",
        "offset": 0,
        "slot": "1",
        "type": "t_array(t_address)dyn_storage"
      },
      {
        "astId": 222,
        "contract": "contracts/GameStore.sol:GameStore",
        "label": "Wallets",
        "offset": 0,
        "slot": "2",
        "type": "t_mapping(t_string_memory_ptr,t_address)"
      },
      {
        "astId": 226,
        "contract": "contracts/GameStore.sol:GameStore",
        "label": "listedStoreItemsToToken",
        "offset": 0,
        "slot": "3",
        "type": "t_mapping(t_address,t_uint256)"
      },
      {
        "astId": 230,
        "contract": "contracts/GameStore.sol:GameStore",
        "label": "listedUserMintedItemsToToken",
        "offset": 0,
        "slot": "4",
        "type": "t_mapping(t_address,t_uint256)"
      },
      {
        "astId": 234,
        "contract": "contracts/GameStore.sol:GameStore",
        "label": "listedUserTradeItemsToItems",
        "offset": 0,
        "slot": "5",
        "type": "t_array(t_struct(Trade)212_storage)dyn_storage"
      }
    ],
    "types": {
      "t_address": {
        "encoding": "inplace",
        "label": "address",
        "numberOfBytes": "20"
      },
      "t_array(t_address)dyn_storage": {
        "base": "t_address",
        "encoding": "dynamic_array",
        "label": "address[]",
        "numberOfBytes": "32"
      },
      "t_array(t_struct(Trade)212_storage)dyn_storage": {
        "base": "t_struct(Trade)212_storage",
        "encoding": "dynamic_array",
        "label": "struct GameStore.Trade[]",
        "numberOfBytes": "32"
      },
      "t_mapping(t_address,t_uint256)": {
        "encoding": "mapping",
        "key": "t_address",
        "label": "mapping(address => uint256)",
        "numberOfBytes": "32",
        "value": "t_uint256"
      },
      "t_mapping(t_string_memory_ptr,t_address)": {
        "encoding": "mapping",
        "key": "t_string_memory_ptr",
        "label": "mapping(string => address)",
        "numberOfBytes": "32",
        "value": "t_address"
      },
      "t_string_memory_ptr": {
        "encoding": "bytes",
        "label": "string",
        "numberOfBytes": "32"
      },
      "t_struct(Trade)212_storage": {
        "encoding": "inplace",
        "label": "struct GameStore.Trade",
        "members": [
          {
            "astId": 207,
            "contract": "contracts/GameStore.sol:GameStore",
            "label": "trader",
            "offset": 0,
            "slot": "0",
            "type": "t_address"
          },
          {
            "astId": 209,
            "contract": "contracts/GameStore.sol:GameStore",
            "label": "item",
            "offset": 0,
            "slot": "1",
            "type": "t_address"
          },
          {
            "astId": 211,
            "contract": "contracts/GameStore.sol:GameStore",
            "label": "itemNeeded",
            "offset": 0,
            "slot": "2",
            "type": "t_address"
          }
        ],
        "numberOfBytes": "96"
      },
      "t_uint256": {
        "encoding": "inplace",
        "label": "uint256",
        "numberOfBytes": "32"
      }
    }
  }
}