{
  "address": "0xe55E74dB94C233359B483F4ccCcDcDe24f8E00D6",
  "abi": [
    {
      "inputs": [],
      "stateMutability": "nonpayable",
      "type": "constructor"
    },
    {
      "inputs": [],
      "name": "GameStore_NotOwner",
      "type": "error"
    },
    {
      "inputs": [
        {
          "internalType": "string",
          "name": "",
          "type": "string"
        }
      ],
      "name": "Wallets",
      "outputs": [
        {
          "internalType": "address",
          "name": "",
          "type": "address"
        }
      ],
      "stateMutability": "view",
      "type": "function"
    },
    {
      "inputs": [
        {
          "internalType": "string",
          "name": "walletName",
          "type": "string"
        },
        {
          "internalType": "address",
          "name": "customItem",
          "type": "address"
        }
      ],
      "name": "buyCustomItems",
      "outputs": [],
      "stateMutability": "nonpayable",
      "type": "function"
    },
    {
      "inputs": [
        {
          "internalType": "string",
          "name": "name",
          "type": "string"
        },
        {
          "internalType": "address",
          "name": "gameItem",
          "type": "address"
        }
      ],
      "name": "buyOriginalItem",
      "outputs": [],
      "stateMutability": "nonpayable",
      "type": "function"
    },
    {
      "inputs": [
        {
          "internalType": "string",
          "name": "walletName",
          "type": "string"
        },
        {
          "internalType": "string",
          "name": "_name",
          "type": "string"
        },
        {
          "internalType": "string",
          "name": "_typeOf",
          "type": "string"
        },
        {
          "internalType": "uint256",
          "name": "_level",
          "type": "uint256"
        }
      ],
      "name": "createCustomItems",
      "outputs": [],
      "stateMutability": "nonpayable",
      "type": "function"
    },
    {
      "inputs": [
        {
          "internalType": "string",
          "name": "_name",
          "type": "string"
        },
        {
          "internalType": "string",
          "name": "_typeOf",
          "type": "string"
        },
        {
          "internalType": "uint256",
          "name": "_level",
          "type": "uint256"
        },
        {
          "internalType": "uint256",
          "name": "token",
          "type": "uint256"
        }
      ],
      "name": "createItem",
      "outputs": [],
      "stateMutability": "nonpayable",
      "type": "function"
    },
    {
      "inputs": [
        {
          "internalType": "string",
          "name": "name",
          "type": "string"
        }
      ],
      "name": "createWallet",
      "outputs": [],
      "stateMutability": "nonpayable",
      "type": "function"
    },
    {
      "inputs": [
        {
          "internalType": "string",
          "name": "name",
          "type": "string"
        }
      ],
      "name": "getWallet",
      "outputs": [
        {
          "internalType": "address",
          "name": "",
          "type": "address"
        }
      ],
      "stateMutability": "view",
      "type": "function"
    },
    {
      "inputs": [
        {
          "internalType": "address",
          "name": "",
          "type": "address"
        }
      ],
      "name": "listedStoreItemsToToken",
      "outputs": [
        {
          "internalType": "uint256",
          "name": "",
          "type": "uint256"
        }
      ],
      "stateMutability": "view",
      "type": "function"
    },
    {
      "inputs": [
        {
          "internalType": "address",
          "name": "",
          "type": "address"
        }
      ],
      "name": "listedUserMintedItemsToToken",
      "outputs": [
        {
          "internalType": "uint256",
          "name": "",
          "type": "uint256"
        }
      ],
      "stateMutability": "view",
      "type": "function"
    },
    {
      "inputs": [
        {
          "internalType": "uint256",
          "name": "",
          "type": "uint256"
        }
      ],
      "name": "listedUserTradeItemsToItems",
      "outputs": [
        {
          "internalType": "address",
          "name": "trader",
          "type": "address"
        },
        {
          "internalType": "address",
          "name": "item",
          "type": "address"
        },
        {
          "internalType": "address",
          "name": "itemNeeded",
          "type": "address"
        }
      ],
      "stateMutability": "view",
      "type": "function"
    },
    {
      "inputs": [
        {
          "internalType": "string",
          "name": "walletName",
          "type": "string"
        },
        {
          "internalType": "uint256",
          "name": "index",
          "type": "uint256"
        },
        {
          "internalType": "uint256",
          "name": "token",
          "type": "uint256"
        }
      ],
      "name": "listingCustomItems",
      "outputs": [],
      "stateMutability": "nonpayable",
      "type": "function"
    },
    {
      "inputs": [
        {
          "internalType": "string",
          "name": "walletName",
          "type": "string"
        },
        {
          "internalType": "uint256",
          "name": "index",
          "type": "uint256"
        },
        {
          "internalType": "address",
          "name": "tradableItem",
          "type": "address"
        }
      ],
      "name": "listingTradeItems",
      "outputs": [],
      "stateMutability": "nonpayable",
      "type": "function"
    },
    {
      "inputs": [],
      "name": "owner",
      "outputs": [
        {
          "internalType": "address",
          "name": "",
          "type": "address"
        }
      ],
      "stateMutability": "view",
      "type": "function"
    },
    {
      "inputs": [
        {
          "internalType": "uint256",
          "name": "",
          "type": "uint256"
        }
      ],
      "name": "storeCustomItems",
      "outputs": [
        {
          "internalType": "address",
          "name": "",
          "type": "address"
        }
      ],
      "stateMutability": "view",
      "type": "function"
    },
    {
      "inputs": [
        {
          "internalType": "uint256",
          "name": "",
          "type": "uint256"
        }
      ],
      "name": "storeOriginalItems",
      "outputs": [
        {
          "internalType": "address",
          "name": "",
          "type": "address"
        }
      ],
      "stateMutability": "view",
      "type": "function"
    },
    {
      "inputs": [
        {
          "internalType": "string",
          "name": "tradeAcceptorWalletName",
          "type": "string"
        },
        {
          "internalType": "uint256",
          "name": "index",
          "type": "uint256"
        }
      ],
      "name": "tradeItem",
      "outputs": [],
      "stateMutability": "nonpayable",
      "type": "function"
    }
  ],
  "transactionHash": "0xfe5554d2fd9b8f4dcdb37ff62940961d1aee3b30ccfa27852d830e9a666d86b7",
  "args": [],
  "numDeployments": 1,
  "solcInputHash": "5b0d528920f2e13c186e2ff508632852",
  "bytecode": "0x60a060405234801561001057600080fd5b503373ffffffffffffffffffffffffffffffffffffffff1660808173ffffffffffffffffffffffffffffffffffffffff16815250506080516158e46100676000396000818161161c015261192e01526158e46000f3fe60806040523480156200001157600080fd5b5060043610620001185760003560e01c80639f99fc3011620000a5578063cd0178e6116200006f578063cd0178e614620002f7578063cea1706c146200032f578063de929b411462000365578063fa01593f146200039b5762000118565b80639f99fc30146200024b578063a4e2df66146200026b578063c0c6927314620002a1578063c81034b114620002d75762000118565b80636fc36b3811620000e75780636fc36b3814620001b357806371e2288314620001d35780637404f1d214620002095780638da5cb5b14620002295762000118565b8063033ddeb2146200011d5780630e1020e8146200013d5780635742cc7514620001735780635a8a1c501462000193575b600080fd5b6200013b600480360381019062000135919062002bed565b620003bb565b005b6200015b600480360381019062000155919062002c53565b620007c9565b6040516200016a919062002cb5565b60405180910390f35b6200019160048036038101906200018b919062002d0d565b62000812565b005b620001b16004803603810190620001ab919062002d73565b62001252565b005b620001d16004803603810190620001cb919062002dee565b6200161a565b005b620001f16004803603810190620001eb919062002e9e565b620017a0565b60405162000200919062002cb5565b60405180910390f35b62000227600480360381019062000221919062002c53565b620017e0565b005b620002336200192c565b60405162000242919062002cb5565b60405180910390f35b62000269600480360381019062000263919062002bed565b62001950565b005b62000289600480360381019062000283919062002c53565b62001fa4565b60405162000298919062002cb5565b60405180910390f35b620002bf6004803603810190620002b9919062002ed0565b620021c7565b604051620002ce919062002f13565b60405180910390f35b620002f56004803603810190620002ef919062002f30565b620021df565b005b6200031560048036038101906200030f919062002e9e565b620025a0565b604051620003269392919062002fab565b60405180910390f35b6200034d600480360381019062000347919062002ed0565b6200263b565b6040516200035c919062002f13565b60405180910390f35b6200038360048036038101906200037d919062002e9e565b62002653565b60405162000392919062002cb5565b60405180910390f35b620003b96004803603810190620003b3919062002fe8565b62002693565b005b600073ffffffffffffffffffffffffffffffffffffffff16600283604051620003e5919062003130565b908152602001604051809103902060009054906101000a900473ffffffffffffffffffffffffffffffffffffffff1673ffffffffffffffffffffffffffffffffffffffff16141580156200047957506000600360008373ffffffffffffffffffffffffffffffffffffffff1673ffffffffffffffffffffffffffffffffffffffff1681526020019081526020016000205414155b620004bb576040517f08c379a0000000000000000000000000000000000000000000000000000000008152600401620004b290620031d0565b60405180910390fd5b6000600283604051620004cf919062003130565b908152602001604051809103902060009054906101000a900473ffffffffffffffffffffffffffffffffffffffff1690503373ffffffffffffffffffffffffffffffffffffffff168173ffffffffffffffffffffffffffffffffffffffff1663893d20e86040518163ffffffff1660e01b8152600401602060405180830381865afa15801562000563573d6000803e3d6000fd5b505050506040513d601f19601f8201168201806040525081019062000589919062003209565b73ffffffffffffffffffffffffffffffffffffffff161480156200065d5750600360008373ffffffffffffffffffffffffffffffffffffffff1673ffffffffffffffffffffffffffffffffffffffff168152602001908152602001600020548173ffffffffffffffffffffffffffffffffffffffff1663564b28a06040518163ffffffff1660e01b8152600401602060405180830381865afa15801562000634573d6000803e3d6000fd5b505050506040513d601f19601f820116820180604052508101906200065a919062003252565b10155b6200069f576040517f08c379a00000000000000000000000000000000000000000000000000000000081526004016200069690620032d4565b60405180910390fd5b60008290508073ffffffffffffffffffffffffffffffffffffffff16637065cb48836040518263ffffffff1660e01b8152600401620006df919062002cb5565b600060405180830381600087803b158015620006fa57600080fd5b505af11580156200070f573d6000803e3d6000fd5b505050508173ffffffffffffffffffffffffffffffffffffffff16639f37092a82600360008773ffffffffffffffffffffffffffffffffffffffff1673ffffffffffffffffffffffffffffffffffffffff168152602001908152602001600020546040518363ffffffff1660e01b81526004016200078f929190620032f6565b600060405180830381600087803b158015620007aa57600080fd5b505af1158015620007bf573d6000803e3d6000fd5b5050505050505050565b6002818051602081018201805184825260208301602085012081835280955050505050506000915054906101000a900473ffffffffffffffffffffffffffffffffffffffff1681565b600073ffffffffffffffffffffffffffffffffffffffff166002836040516200083c919062003130565b908152602001604051809103902060009054906101000a900473ffffffffffffffffffffffffffffffffffffffff1673ffffffffffffffffffffffffffffffffffffffff1603620008c4576040517f08c379a0000000000000000000000000000000000000000000000000000000008152600401620008bb90620031d0565b60405180910390fd5b6000600283604051620008d8919062003130565b908152602001604051809103902060009054906101000a900473ffffffffffffffffffffffffffffffffffffffff1690503373ffffffffffffffffffffffffffffffffffffffff168173ffffffffffffffffffffffffffffffffffffffff1663893d20e86040518163ffffffff1660e01b8152600401602060405180830381865afa1580156200096c573d6000803e3d6000fd5b505050506040513d601f19601f8201168201806040525081019062000992919062003209565b73ffffffffffffffffffffffffffffffffffffffff1614620009eb576040517f08c379a0000000000000000000000000000000000000000000000000000000008152600401620009e290620032d4565b60405180910390fd5b60006005838154811062000a045762000a0362003323565b5b90600052602060002090600302016040518060600160405290816000820160009054906101000a900473ffffffffffffffffffffffffffffffffffffffff1673ffffffffffffffffffffffffffffffffffffffff1673ffffffffffffffffffffffffffffffffffffffff1681526020016001820160009054906101000a900473ffffffffffffffffffffffffffffffffffffffff1673ffffffffffffffffffffffffffffffffffffffff1673ffffffffffffffffffffffffffffffffffffffff1681526020016002820160009054906101000a900473ffffffffffffffffffffffffffffffffffffffff1673ffffffffffffffffffffffffffffffffffffffff1673ffffffffffffffffffffffffffffffffffffffff168152505090506000816000015190506000826020015190506000836040015190508073ffffffffffffffffffffffffffffffffffffffff16632f54bf6e866040518263ffffffff1660e01b815260040162000b77919062002cb5565b602060405180830381865afa15801562000b95573d6000803e3d6000fd5b505050506040513d601f19601f8201168201806040525081019062000bbb91906200338f565b62000bfd576040517f08c379a000000000000000000000000000000000000000000000000000000000815260040162000bf49062003411565b60405180910390fd5b8173ffffffffffffffffffffffffffffffffffffffff166393ba06788686600001516040518363ffffffff1660e01b815260040162000c3e92919062003433565b600060405180830381600087803b15801562000c5957600080fd5b505af115801562000c6e573d6000803e3d6000fd5b505050508073ffffffffffffffffffffffffffffffffffffffff166393ba06788560000151876040518363ffffffff1660e01b815260040162000cb392919062003433565b600060405180830381600087803b15801562000cce57600080fd5b505af115801562000ce3573d6000803e3d6000fd5b505050508473ffffffffffffffffffffffffffffffffffffffff166327346b4282846040518363ffffffff1660e01b815260040162000d2492919062003433565b600060405180830381600087803b15801562000d3f57600080fd5b505af115801562000d54573d6000803e3d6000fd5b505050508273ffffffffffffffffffffffffffffffffffffffff166327346b4283836040518363ffffffff1660e01b815260040162000d9592919062003433565b600060405180830381600087803b15801562000db057600080fd5b505af115801562000dc5573d6000803e3d6000fd5b5050505060006005878154811062000de25762000de162003323565b5b90600052602060002090600302016040518060600160405290816000820160009054906101000a900473ffffffffffffffffffffffffffffffffffffffff1673ffffffffffffffffffffffffffffffffffffffff1673ffffffffffffffffffffffffffffffffffffffff1681526020016001820160009054906101000a900473ffffffffffffffffffffffffffffffffffffffff1673ffffffffffffffffffffffffffffffffffffffff1673ffffffffffffffffffffffffffffffffffffffff1681526020016002820160009054906101000a900473ffffffffffffffffffffffffffffffffffffffff1673ffffffffffffffffffffffffffffffffffffffff1673ffffffffffffffffffffffffffffffffffffffff168152505090506005600160058054905062000f1591906200348f565b8154811062000f295762000f2862003323565b5b90600052602060002090600302016005888154811062000f4e5762000f4d62003323565b5b90600052602060002090600302016000820160009054906101000a900473ffffffffffffffffffffffffffffffffffffffff168160000160006101000a81548173ffffffffffffffffffffffffffffffffffffffff021916908373ffffffffffffffffffffffffffffffffffffffff1602179055506001820160009054906101000a900473ffffffffffffffffffffffffffffffffffffffff168160010160006101000a81548173ffffffffffffffffffffffffffffffffffffffff021916908373ffffffffffffffffffffffffffffffffffffffff1602179055506002820160009054906101000a900473ffffffffffffffffffffffffffffffffffffffff168160020160006101000a81548173ffffffffffffffffffffffffffffffffffffffff021916908373ffffffffffffffffffffffffffffffffffffffff1602179055509050508060056001600580549050620010ab91906200348f565b81548110620010bf57620010be62003323565b5b906000526020600020906003020160008201518160000160006101000a81548173ffffffffffffffffffffffffffffffffffffffff021916908373ffffffffffffffffffffffffffffffffffffffff16021790555060208201518160010160006101000a81548173ffffffffffffffffffffffffffffffffffffffff021916908373ffffffffffffffffffffffffffffffffffffffff16021790555060408201518160020160006101000a81548173ffffffffffffffffffffffffffffffffffffffff021916908373ffffffffffffffffffffffffffffffffffffffff1602179055509050506005805480620011ba57620011b9620034ca565b5b6001900381819060005260206000209060030201600080820160006101000a81549073ffffffffffffffffffffffffffffffffffffffff02191690556001820160006101000a81549073ffffffffffffffffffffffffffffffffffffffff02191690556002820160006101000a81549073ffffffffffffffffffffffffffffffffffffffff0219169055505090555050505050505050565b600073ffffffffffffffffffffffffffffffffffffffff166002846040516200127c919062003130565b908152602001604051809103902060009054906101000a900473ffffffffffffffffffffffffffffffffffffffff1673ffffffffffffffffffffffffffffffffffffffff160362001304576040517f08c379a0000000000000000000000000000000000000000000000000000000008152600401620012fb90620031d0565b60405180910390fd5b600060028460405162001318919062003130565b908152602001604051809103902060009054906101000a900473ffffffffffffffffffffffffffffffffffffffff1690503373ffffffffffffffffffffffffffffffffffffffff168173ffffffffffffffffffffffffffffffffffffffff1663893d20e86040518163ffffffff1660e01b8152600401602060405180830381865afa158015620013ac573d6000803e3d6000fd5b505050506040513d601f19601f82011682018060405250810190620013d2919062003209565b73ffffffffffffffffffffffffffffffffffffffff16146200142b576040517f08c379a00000000000000000000000000000000000000000000000000000000081526004016200142290620032d4565b60405180910390fd5b60008173ffffffffffffffffffffffffffffffffffffffff16633129e773856040518263ffffffff1660e01b815260040162001468919062002f13565b602060405180830381865afa15801562001486573d6000803e3d6000fd5b505050506040513d601f19601f82011682018060405250810190620014ac919062003209565b9050600060405180606001604052808473ffffffffffffffffffffffffffffffffffffffff1681526020018373ffffffffffffffffffffffffffffffffffffffff1681526020018573ffffffffffffffffffffffffffffffffffffffff168152509050600581908060018154018082558091505060019003906000526020600020906003020160009091909190915060008201518160000160006101000a81548173ffffffffffffffffffffffffffffffffffffffff021916908373ffffffffffffffffffffffffffffffffffffffff16021790555060208201518160010160006101000a81548173ffffffffffffffffffffffffffffffffffffffff021916908373ffffffffffffffffffffffffffffffffffffffff16021790555060408201518160020160006101000a81548173ffffffffffffffffffffffffffffffffffffffff021916908373ffffffffffffffffffffffffffffffffffffffff1602179055505050505050505050565b7f000000000000000000000000000000000000000000000000000000000000000073ffffffffffffffffffffffffffffffffffffffff163373ffffffffffffffffffffffffffffffffffffffff1614620016a0576040517fb39a50da00000000000000000000000000000000000000000000000000000000815260040160405180910390fd5b6000848484604051620016b390620029f6565b620016c1939291906200358a565b604051809103906000f080158015620016de573d6000803e3d6000fd5b5090506000819080600181540180825580915050600190039060005260206000200160009091909190916101000a81548173ffffffffffffffffffffffffffffffffffffffff021916908373ffffffffffffffffffffffffffffffffffffffff1602179055506305f5e10082620017569190620035ea565b600360008373ffffffffffffffffffffffffffffffffffffffff1673ffffffffffffffffffffffffffffffffffffffff168152602001908152602001600020819055505050505050565b60018181548110620017b157600080fd5b906000526020600020016000915054906101000a900473ffffffffffffffffffffffffffffffffffffffff1681565b600073ffffffffffffffffffffffffffffffffffffffff166002826040516200180a919062003130565b908152602001604051809103902060009054906101000a900473ffffffffffffffffffffffffffffffffffffffff1673ffffffffffffffffffffffffffffffffffffffff161462001892576040517f08c379a0000000000000000000000000000000000000000000000000000000008152600401620018899062003685565b60405180910390fd5b33604051620018a19062002a04565b620018ad919062002cb5565b604051809103906000f080158015620018ca573d6000803e3d6000fd5b50600282604051620018dd919062003130565b908152602001604051809103902060006101000a81548173ffffffffffffffffffffffffffffffffffffffff021916908373ffffffffffffffffffffffffffffffffffffffff16021790555050565b7f000000000000000000000000000000000000000000000000000000000000000081565b600073ffffffffffffffffffffffffffffffffffffffff166002836040516200197a919062003130565b908152602001604051809103902060009054906101000a900473ffffffffffffffffffffffffffffffffffffffff1673ffffffffffffffffffffffffffffffffffffffff160362001a02576040517f08c379a0000000000000000000000000000000000000000000000000000000008152600401620019f990620031d0565b60405180910390fd5b600060028360405162001a16919062003130565b908152602001604051809103902060009054906101000a900473ffffffffffffffffffffffffffffffffffffffff1690503373ffffffffffffffffffffffffffffffffffffffff168173ffffffffffffffffffffffffffffffffffffffff1663893d20e86040518163ffffffff1660e01b8152600401602060405180830381865afa15801562001aaa573d6000803e3d6000fd5b505050506040513d601f19601f8201168201806040525081019062001ad0919062003209565b73ffffffffffffffffffffffffffffffffffffffff1614801562001ba45750600460008373ffffffffffffffffffffffffffffffffffffffff1673ffffffffffffffffffffffffffffffffffffffff168152602001908152602001600020548173ffffffffffffffffffffffffffffffffffffffff1663564b28a06040518163ffffffff1660e01b8152600401602060405180830381865afa15801562001b7b573d6000803e3d6000fd5b505050506040513d601f19601f8201168201806040525081019062001ba1919062003252565b10155b62001be6576040517f08c379a000000000000000000000000000000000000000000000000000000000815260040162001bdd906200371d565b60405180910390fd5b60008290508073ffffffffffffffffffffffffffffffffffffffff1663025e7c2760006040518263ffffffff1660e01b815260040162001c2791906200378c565b602060405180830381865afa15801562001c45573d6000803e3d6000fd5b505050506040513d601f19601f8201168201806040525081019062001c6b919062003209565b73ffffffffffffffffffffffffffffffffffffffff168273ffffffffffffffffffffffffffffffffffffffff1663893d20e86040518163ffffffff1660e01b8152600401602060405180830381865afa15801562001ccd573d6000803e3d6000fd5b505050506040513d601f19601f8201168201806040525081019062001cf3919062003209565b73ffffffffffffffffffffffffffffffffffffffff160362001d4c576040517f08c379a000000000000000000000000000000000000000000000000000000000815260040162001d43906200381f565b60405180910390fd5b8073ffffffffffffffffffffffffffffffffffffffff16637065cb48836040518263ffffffff1660e01b815260040162001d87919062002cb5565b600060405180830381600087803b15801562001da257600080fd5b505af115801562001db7573d6000803e3d6000fd5b505050508173ffffffffffffffffffffffffffffffffffffffff16639f37092a82600460008773ffffffffffffffffffffffffffffffffffffffff1673ffffffffffffffffffffffffffffffffffffffff168152602001908152602001600020546040518363ffffffff1660e01b815260040162001e37929190620032f6565b600060405180830381600087803b15801562001e5257600080fd5b505af115801562001e67573d6000803e3d6000fd5b5050505060008173ffffffffffffffffffffffffffffffffffffffff1663c41a360a60006040518263ffffffff1660e01b815260040162001ea991906200378c565b602060405180830381865afa15801562001ec7573d6000803e3d6000fd5b505050506040513d601f19601f8201168201806040525081019062001eed919062003209565b90508073ffffffffffffffffffffffffffffffffffffffff166337df00c9600460008773ffffffffffffffffffffffffffffffffffffffff1673ffffffffffffffffffffffffffffffffffffffff168152602001908152602001600020546040518263ffffffff1660e01b815260040162001f69919062002f13565b600060405180830381600087803b15801562001f8457600080fd5b505af115801562001f99573d6000803e3d6000fd5b505050505050505050565b60008073ffffffffffffffffffffffffffffffffffffffff1660028360405162001fcf919062003130565b908152602001604051809103902060009054906101000a900473ffffffffffffffffffffffffffffffffffffffff1673ffffffffffffffffffffffffffffffffffffffff160362002057576040517f08c379a00000000000000000000000000000000000000000000000000000000081526004016200204e9062003891565b60405180910390fd5b60006002836040516200206b919062003130565b908152602001604051809103902060009054906101000a900473ffffffffffffffffffffffffffffffffffffffff1690503373ffffffffffffffffffffffffffffffffffffffff168173ffffffffffffffffffffffffffffffffffffffff1663893d20e86040518163ffffffff1660e01b8152600401602060405180830381865afa158015620020ff573d6000803e3d6000fd5b505050506040513d601f19601f8201168201806040525081019062002125919062003209565b73ffffffffffffffffffffffffffffffffffffffff16146200217e576040517f08c379a00000000000000000000000000000000000000000000000000000000081526004016200217590620032d4565b60405180910390fd5b60028360405162002190919062003130565b908152602001604051809103902060009054906101000a900473ffffffffffffffffffffffffffffffffffffffff16915050919050565b60036020528060005260406000206000915090505481565b600073ffffffffffffffffffffffffffffffffffffffff1660028460405162002209919062003130565b908152602001604051809103902060009054906101000a900473ffffffffffffffffffffffffffffffffffffffff1673ffffffffffffffffffffffffffffffffffffffff160362002291576040517f08c379a00000000000000000000000000000000000000000000000000000000081526004016200228890620031d0565b60405180910390fd5b6000600284604051620022a5919062003130565b908152602001604051809103902060009054906101000a900473ffffffffffffffffffffffffffffffffffffffff1690503373ffffffffffffffffffffffffffffffffffffffff168173ffffffffffffffffffffffffffffffffffffffff1663893d20e86040518163ffffffff1660e01b8152600401602060405180830381865afa15801562002339573d6000803e3d6000fd5b505050506040513d601f19601f820116820180604052508101906200235f919062003209565b73ffffffffffffffffffffffffffffffffffffffff1614620023b8576040517f08c379a0000000000000000000000000000000000000000000000000000000008152600401620023af90620032d4565b60405180910390fd5b60008173ffffffffffffffffffffffffffffffffffffffff16633129e773856040518263ffffffff1660e01b8152600401620023f5919062002f13565b602060405180830381865afa15801562002413573d6000803e3d6000fd5b505050506040513d601f19601f8201168201806040525081019062002439919062003209565b90506040516020016200244c90620038b3565b604051602081830303815290604052805190602001208173ffffffffffffffffffffffffffffffffffffffff16630d8e6e2c6040518163ffffffff1660e01b8152600401600060405180830381865afa158015620024ae573d6000803e3d6000fd5b505050506040513d6000823e3d601f19601f82011682018060405250810190620024d9919062003953565b604051602001620024eb9190620039a4565b604051602081830303815290604052805190602001200362002544576040517f08c379a00000000000000000000000000000000000000000000000000000000081526004016200253b9062003a18565b60405180910390fd5b6305f5e10083620025569190620035ea565b600460008373ffffffffffffffffffffffffffffffffffffffff1673ffffffffffffffffffffffffffffffffffffffff168152602001908152602001600020819055505050505050565b60058181548110620025b157600080fd5b90600052602060002090600302016000915090508060000160009054906101000a900473ffffffffffffffffffffffffffffffffffffffff16908060010160009054906101000a900473ffffffffffffffffffffffffffffffffffffffff16908060020160009054906101000a900473ffffffffffffffffffffffffffffffffffffffff16905083565b60046020528060005260406000206000915090505481565b600081815481106200266457600080fd5b906000526020600020016000915054906101000a900473ffffffffffffffffffffffffffffffffffffffff1681565b600073ffffffffffffffffffffffffffffffffffffffff16600285604051620026bd919062003130565b908152602001604051809103902060009054906101000a900473ffffffffffffffffffffffffffffffffffffffff1673ffffffffffffffffffffffffffffffffffffffff160362002745576040517f08c379a00000000000000000000000000000000000000000000000000000000081526004016200273c90620031d0565b60405180910390fd5b600060028560405162002759919062003130565b908152602001604051809103902060009054906101000a900473ffffffffffffffffffffffffffffffffffffffff1690503373ffffffffffffffffffffffffffffffffffffffff168173ffffffffffffffffffffffffffffffffffffffff1663893d20e86040518163ffffffff1660e01b8152600401602060405180830381865afa158015620027ed573d6000803e3d6000fd5b505050506040513d601f19601f8201168201806040525081019062002813919062003209565b73ffffffffffffffffffffffffffffffffffffffff16146200286c576040517f08c379a00000000000000000000000000000000000000000000000000000000081526004016200286390620032d4565b60405180910390fd5b60008484846040516200287f90620029f6565b6200288d9392919062003a8a565b604051809103906000f080158015620028aa573d6000803e3d6000fd5b5090506001819080600181540180825580915050600190039060005260206000200160009091909190916101000a81548173ffffffffffffffffffffffffffffffffffffffff021916908373ffffffffffffffffffffffffffffffffffffffff1602179055508073ffffffffffffffffffffffffffffffffffffffff16637065cb48836040518263ffffffff1660e01b81526004016200294b919062002cb5565b600060405180830381600087803b1580156200296657600080fd5b505af11580156200297b573d6000803e3d6000fd5b505050508173ffffffffffffffffffffffffffffffffffffffff16633112a97b826040518263ffffffff1660e01b8152600401620029ba919062002cb5565b600060405180830381600087803b158015620029d557600080fd5b505af1158015620029ea573d6000803e3d6000fd5b50505050505050505050565b6114328062003aeb83390190565b6109928062004f1d83390190565b6000604051905090565b600080fd5b600080fd5b600080fd5b600080fd5b6000601f19601f8301169050919050565b7f4e487b7100000000000000000000000000000000000000000000000000000000600052604160045260246000fd5b62002a7b8262002a30565b810181811067ffffffffffffffff8211171562002a9d5762002a9c62002a41565b5b80604052505050565b600062002ab262002a12565b905062002ac0828262002a70565b919050565b600067ffffffffffffffff82111562002ae35762002ae262002a41565b5b62002aee8262002a30565b9050602081019050919050565b82818337600083830152505050565b600062002b2162002b1b8462002ac5565b62002aa6565b90508281526020810184848401111562002b405762002b3f62002a2b565b5b62002b4d84828562002afb565b509392505050565b600082601f83011262002b6d5762002b6c62002a26565b5b813562002b7f84826020860162002b0a565b91505092915050565b600073ffffffffffffffffffffffffffffffffffffffff82169050919050565b600062002bb58262002b88565b9050919050565b62002bc78162002ba8565b811462002bd357600080fd5b50565b60008135905062002be78162002bbc565b92915050565b6000806040838503121562002c075762002c0662002a1c565b5b600083013567ffffffffffffffff81111562002c285762002c2762002a21565b5b62002c368582860162002b55565b925050602062002c498582860162002bd6565b9150509250929050565b60006020828403121562002c6c5762002c6b62002a1c565b5b600082013567ffffffffffffffff81111562002c8d5762002c8c62002a21565b5b62002c9b8482850162002b55565b91505092915050565b62002caf8162002ba8565b82525050565b600060208201905062002ccc600083018462002ca4565b92915050565b6000819050919050565b62002ce78162002cd2565b811462002cf357600080fd5b50565b60008135905062002d078162002cdc565b92915050565b6000806040838503121562002d275762002d2662002a1c565b5b600083013567ffffffffffffffff81111562002d485762002d4762002a21565b5b62002d568582860162002b55565b925050602062002d698582860162002cf6565b9150509250929050565b60008060006060848603121562002d8f5762002d8e62002a1c565b5b600084013567ffffffffffffffff81111562002db05762002daf62002a21565b5b62002dbe8682870162002b55565b935050602062002dd18682870162002cf6565b925050604062002de48682870162002bd6565b9150509250925092565b6000806000806080858703121562002e0b5762002e0a62002a1c565b5b600085013567ffffffffffffffff81111562002e2c5762002e2b62002a21565b5b62002e3a8782880162002b55565b945050602085013567ffffffffffffffff81111562002e5e5762002e5d62002a21565b5b62002e6c8782880162002b55565b935050604062002e7f8782880162002cf6565b925050606062002e928782880162002cf6565b91505092959194509250565b60006020828403121562002eb75762002eb662002a1c565b5b600062002ec78482850162002cf6565b91505092915050565b60006020828403121562002ee95762002ee862002a1c565b5b600062002ef98482850162002bd6565b91505092915050565b62002f0d8162002cd2565b82525050565b600060208201905062002f2a600083018462002f02565b92915050565b60008060006060848603121562002f4c5762002f4b62002a1c565b5b600084013567ffffffffffffffff81111562002f6d5762002f6c62002a21565b5b62002f7b8682870162002b55565b935050602062002f8e8682870162002cf6565b925050604062002fa18682870162002cf6565b9150509250925092565b600060608201905062002fc2600083018662002ca4565b62002fd1602083018562002ca4565b62002fe0604083018462002ca4565b949350505050565b6000806000806080858703121562003005576200300462002a1c565b5b600085013567ffffffffffffffff81111562003026576200302562002a21565b5b620030348782880162002b55565b945050602085013567ffffffffffffffff81111562003058576200305762002a21565b5b620030668782880162002b55565b935050604085013567ffffffffffffffff8111156200308a576200308962002a21565b5b620030988782880162002b55565b9250506060620030ab8782880162002cf6565b91505092959194509250565b600081519050919050565b600081905092915050565b60005b83811015620030ed578082015181840152602081019050620030d0565b60008484015250505050565b60006200310682620030b7565b620031128185620030c2565b935062003124818560208601620030cd565b80840191505092915050565b60006200313e8284620030f9565b915081905092915050565b600082825260208201905092915050565b7f57616c6c6574206f722067616d65206974656d20646f6573206e6f742065786960008201527f7374212100000000000000000000000000000000000000000000000000000000602082015250565b6000620031b860248362003149565b9150620031c5826200315a565b604082019050919050565b60006020820190508181036000830152620031eb81620031a9565b9050919050565b600081519050620032038162002bbc565b92915050565b60006020828403121562003222576200322162002a1c565b5b60006200323284828501620031f2565b91505092915050565b6000815190506200324c8162002cdc565b92915050565b6000602082840312156200326b576200326a62002a1c565b5b60006200327b848285016200323b565b91505092915050565b7f57616c6c6574206973206e6f74206f776e656420627920796f75212121000000600082015250565b6000620032bc601d8362003149565b9150620032c98262003284565b602082019050919050565b60006020820190508181036000830152620032ef81620032ad565b9050919050565b60006040820190506200330d600083018562002ca4565b6200331c602083018462002f02565b9392505050565b7f4e487b7100000000000000000000000000000000000000000000000000000000600052603260045260246000fd5b60008115159050919050565b620033698162003352565b81146200337557600080fd5b50565b60008151905062003389816200335e565b92915050565b600060208284031215620033a857620033a762002a1c565b5b6000620033b88482850162003378565b91505092915050565b7f596f7520646f6e27742068617665207265717569726564206974656d21212121600082015250565b6000620033f960208362003149565b91506200340682620033c1565b602082019050919050565b600060208201905081810360008301526200342c81620033ea565b9050919050565b60006040820190506200344a600083018562002ca4565b62003459602083018462002ca4565b9392505050565b7f4e487b7100000000000000000000000000000000000000000000000000000000600052601160045260246000fd5b60006200349c8262002cd2565b9150620034a98362002cd2565b9250828203905081811115620034c457620034c362003460565b5b92915050565b7f4e487b7100000000000000000000000000000000000000000000000000000000600052603160045260246000fd5b60006200350682620030b7565b62003512818562003149565b935062003524818560208601620030cd565b6200352f8162002a30565b840191505092915050565b7f636c617373696300000000000000000000000000000000000000000000000000600082015250565b60006200357260078362003149565b91506200357f826200353a565b602082019050919050565b60006080820190508181036000830152620035a68186620034f9565b90508181036020830152620035bc8185620034f9565b9050620035cd604083018462002f02565b8181036060830152620035e08162003563565b9050949350505050565b6000620035f78262002cd2565b9150620036048362002cd2565b9250828202620036148162002cd2565b915082820484148315176200362e576200362d62003460565b5b5092915050565b7f57616c6c65742065786973742121000000000000000000000000000000000000600082015250565b60006200366d600e8362003149565b91506200367a8262003635565b602082019050919050565b60006020820190508181036000830152620036a0816200365e565b9050919050565b7f57616c6c6574206973206e6f74206f776e656420627920796f75206f7220796f60008201527f7520646f6e2774206861766520656e6f75676820746f6b656e73212121000000602082015250565b600062003705603d8362003149565b91506200371282620036a7565b604082019050919050565b600060208201905081810360008301526200373881620036f6565b9050919050565b6000819050919050565b6000819050919050565b6000620037746200376e62003768846200373f565b62003749565b62002cd2565b9050919050565b620037868162003753565b82525050565b6000602082019050620037a360008301846200377b565b92915050565b7f4974656d2043726561746f722063616e6e6f742062757920637573746f6d206960008201527f74656d2121210000000000000000000000000000000000000000000000000000602082015250565b60006200380760268362003149565b91506200381482620037a9565b604082019050919050565b600060208201905081810360008301526200383a81620037f8565b9050919050565b7f57616c6c657420646f6573206e6f742065786973742121000000000000000000600082015250565b60006200387960178362003149565b9150620038868262003841565b602082019050919050565b60006020820190508181036000830152620038ac816200386a565b9050919050565b60006020820190508181036000830152620038ce8162003563565b9050919050565b6000620038ec620038e68462002ac5565b62002aa6565b9050828152602081018484840111156200390b576200390a62002a2b565b5b62003918848285620030cd565b509392505050565b600082601f83011262003938576200393762002a26565b5b81516200394a848260208601620038d5565b91505092915050565b6000602082840312156200396c576200396b62002a1c565b5b600082015167ffffffffffffffff8111156200398d576200398c62002a21565b5b6200399b8482850162003920565b91505092915050565b60006020820190508181036000830152620039c08184620034f9565b905092915050565b7f4f6e6c7920437573746f6d204974656d2063616e206265206c69737465640000600082015250565b600062003a00601e8362003149565b915062003a0d82620039c8565b602082019050919050565b6000602082019050818103600083015262003a3381620039f1565b9050919050565b7f637573746f6d0000000000000000000000000000000000000000000000000000600082015250565b600062003a7260068362003149565b915062003a7f8262003a3a565b602082019050919050565b6000608082019050818103600083015262003aa68186620034f9565b9050818103602083015262003abc8185620034f9565b905062003acd604083018462002f02565b818103606083015262003ae08162003a63565b905094935050505056fe60806040523480156200001157600080fd5b50604051620014323803806200143283398181016040528101906200003791906200024c565b83600190816200004891906200055c565b5082600290816200005a91906200055c565b508160038190555080600490816200007391906200055c565b505050505062000643565b6000604051905090565b600080fd5b600080fd5b600080fd5b600080fd5b6000601f19601f8301169050919050565b7f4e487b7100000000000000000000000000000000000000000000000000000000600052604160045260246000fd5b620000e7826200009c565b810181811067ffffffffffffffff82111715620001095762000108620000ad565b5b80604052505050565b60006200011e6200007e565b90506200012c8282620000dc565b919050565b600067ffffffffffffffff8211156200014f576200014e620000ad565b5b6200015a826200009c565b9050602081019050919050565b60005b83811015620001875780820151818401526020810190506200016a565b60008484015250505050565b6000620001aa620001a48462000131565b62000112565b905082815260208101848484011115620001c957620001c862000097565b5b620001d684828562000167565b509392505050565b600082601f830112620001f657620001f562000092565b5b81516200020884826020860162000193565b91505092915050565b6000819050919050565b620002268162000211565b81146200023257600080fd5b50565b60008151905062000246816200021b565b92915050565b6000806000806080858703121562000269576200026862000088565b5b600085015167ffffffffffffffff8111156200028a57620002896200008d565b5b6200029887828801620001de565b945050602085015167ffffffffffffffff811115620002bc57620002bb6200008d565b5b620002ca87828801620001de565b9350506040620002dd8782880162000235565b925050606085015167ffffffffffffffff8111156200030157620003006200008d565b5b6200030f87828801620001de565b91505092959194509250565b600081519050919050565b7f4e487b7100000000000000000000000000000000000000000000000000000000600052602260045260246000fd5b600060028204905060018216806200036e57607f821691505b60208210810362000384576200038362000326565b5b50919050565b60008190508160005260206000209050919050565b60006020601f8301049050919050565b600082821b905092915050565b600060088302620003ee7fffffffffffffffffffffffffffffffffffffffffffffffffffffffffffffffff82620003af565b620003fa8683620003af565b95508019841693508086168417925050509392505050565b6000819050919050565b60006200043d62000437620004318462000211565b62000412565b62000211565b9050919050565b6000819050919050565b62000459836200041c565b62000471620004688262000444565b848454620003bc565b825550505050565b600090565b6200048862000479565b620004958184846200044e565b505050565b5b81811015620004bd57620004b16000826200047e565b6001810190506200049b565b5050565b601f8211156200050c57620004d6816200038a565b620004e1846200039f565b81016020851015620004f1578190505b6200050962000500856200039f565b8301826200049a565b50505b505050565b600082821c905092915050565b6000620005316000198460080262000511565b1980831691505092915050565b60006200054c83836200051e565b9150826002028217905092915050565b62000567826200031b565b67ffffffffffffffff811115620005835762000582620000ad565b5b6200058f825462000355565b6200059c828285620004c1565b600060209050601f831160018114620005d45760008415620005bf578287015190505b620005cb85826200053e565b8655506200063b565b601f198416620005e4866200038a565b60005b828110156200060e57848901518255600182019150602085019450602081019050620005e7565b868310156200062e57848901516200062a601f8916826200051e565b8355505b6001600288020188555050505b505050505050565b610ddf80620006536000396000f3fe608060405234801561001057600080fd5b50600436106100ea5760003560e01c80636fd5ae151161008c578063963cb78411610066578063963cb7841461023b578063a0e67e2b14610259578063a5985e8c14610277578063c41a360a14610295576100ea565b80636fd5ae15146101e55780637065cb481461020357806393ba06781461021f576100ea565b806317d7de7c116100c857806317d7de7c1461015b5780632f54bf6e1461017957806354fd4d50146101a957806357fc69d5146101c7576100ea565b8063025e7c27146100ef57806306fdde031461011f5780630d8e6e2c1461013d575b600080fd5b6101096004803603810190610104919061098f565b6102c5565b60405161011691906109fd565b60405180910390f35b610127610304565b6040516101349190610aa8565b60405180910390f35b610145610392565b6040516101529190610aa8565b60405180910390f35b610163610424565b6040516101709190610aa8565b60405180910390f35b610193600480360381019061018e9190610af6565b6104b6565b6040516101a09190610b3e565b60405180910390f35b6101b1610564565b6040516101be9190610aa8565b60405180910390f35b6101cf6105f2565b6040516101dc9190610aa8565b60405180910390f35b6101ed610680565b6040516101fa9190610b68565b60405180910390f35b61021d60048036038101906102189190610af6565b610686565b005b61023960048036038101906102349190610b83565b6106ec565b005b6102436107e3565b6040516102509190610aa8565b60405180910390f35b610261610875565b60405161026e9190610c81565b60405180910390f35b61027f610903565b60405161028c9190610b68565b60405180910390f35b6102af60048036038101906102aa919061098f565b61090d565b6040516102bc91906109fd565b60405180910390f35b600081815481106102d557600080fd5b906000526020600020016000915054906101000a900473ffffffffffffffffffffffffffffffffffffffff1681565b6001805461031190610cd2565b80601f016020809104026020016040519081016040528092919081815260200182805461033d90610cd2565b801561038a5780601f1061035f5761010080835404028352916020019161038a565b820191906000526020600020905b81548152906001019060200180831161036d57829003601f168201915b505050505081565b6060600480546103a190610cd2565b80601f01602080910402602001604051908101604052809291908181526020018280546103cd90610cd2565b801561041a5780601f106103ef5761010080835404028352916020019161041a565b820191906000526020600020905b8154815290600101906020018083116103fd57829003601f168201915b5050505050905090565b60606001805461043390610cd2565b80601f016020809104026020016040519081016040528092919081815260200182805461045f90610cd2565b80156104ac5780601f10610481576101008083540402835291602001916104ac565b820191906000526020600020905b81548152906001019060200180831161048f57829003601f168201915b5050505050905090565b600080600090505b600080549050811015610559578273ffffffffffffffffffffffffffffffffffffffff16600082815481106104f6576104f5610d03565b5b9060005260206000200160009054906101000a900473ffffffffffffffffffffffffffffffffffffffff1673ffffffffffffffffffffffffffffffffffffffff160361054657600191505061055f565b808061055190610d61565b9150506104be565b50600090505b919050565b6004805461057190610cd2565b80601f016020809104026020016040519081016040528092919081815260200182805461059d90610cd2565b80156105ea5780601f106105bf576101008083540402835291602001916105ea565b820191906000526020600020905b8154815290600101906020018083116105cd57829003601f168201915b505050505081565b600280546105ff90610cd2565b80601f016020809104026020016040519081016040528092919081815260200182805461062b90610cd2565b80156106785780601f1061064d57610100808354040283529160200191610678565b820191906000526020600020905b81548152906001019060200180831161065b57829003601f168201915b505050505081565b60035481565b6000819080600181540180825580915050600190039060005260206000200160009091909190916101000a81548173ffffffffffffffffffffffffffffffffffffffff021916908373ffffffffffffffffffffffffffffffffffffffff16021790555050565b60005b6000805490508110156107de578173ffffffffffffffffffffffffffffffffffffffff166000828154811061072757610726610d03565b5b9060005260206000200160009054906101000a900473ffffffffffffffffffffffffffffffffffffffff1673ffffffffffffffffffffffffffffffffffffffff16036107cb57826000828154811061078257610781610d03565b5b9060005260206000200160006101000a81548173ffffffffffffffffffffffffffffffffffffffff021916908373ffffffffffffffffffffffffffffffffffffffff1602179055505b80806107d690610d61565b9150506106ef565b505050565b6060600280546107f290610cd2565b80601f016020809104026020016040519081016040528092919081815260200182805461081e90610cd2565b801561086b5780601f106108405761010080835404028352916020019161086b565b820191906000526020600020905b81548152906001019060200180831161084e57829003601f168201915b5050505050905090565b606060008054806020026020016040519081016040528092919081815260200182805480156108f957602002820191906000526020600020905b8160009054906101000a900473ffffffffffffffffffffffffffffffffffffffff1673ffffffffffffffffffffffffffffffffffffffff16815260200190600101908083116108af575b5050505050905090565b6000600354905090565b600080828154811061092257610921610d03565b5b9060005260206000200160009054906101000a900473ffffffffffffffffffffffffffffffffffffffff169050919050565b600080fd5b6000819050919050565b61096c81610959565b811461097757600080fd5b50565b60008135905061098981610963565b92915050565b6000602082840312156109a5576109a4610954565b5b60006109b38482850161097a565b91505092915050565b600073ffffffffffffffffffffffffffffffffffffffff82169050919050565b60006109e7826109bc565b9050919050565b6109f7816109dc565b82525050565b6000602082019050610a1260008301846109ee565b92915050565b600081519050919050565b600082825260208201905092915050565b60005b83811015610a52578082015181840152602081019050610a37565b60008484015250505050565b6000601f19601f8301169050919050565b6000610a7a82610a18565b610a848185610a23565b9350610a94818560208601610a34565b610a9d81610a5e565b840191505092915050565b60006020820190508181036000830152610ac28184610a6f565b905092915050565b610ad3816109dc565b8114610ade57600080fd5b50565b600081359050610af081610aca565b92915050565b600060208284031215610b0c57610b0b610954565b5b6000610b1a84828501610ae1565b91505092915050565b60008115159050919050565b610b3881610b23565b82525050565b6000602082019050610b536000830184610b2f565b92915050565b610b6281610959565b82525050565b6000602082019050610b7d6000830184610b59565b92915050565b60008060408385031215610b9a57610b99610954565b5b6000610ba885828601610ae1565b9250506020610bb985828601610ae1565b9150509250929050565b600081519050919050565b600082825260208201905092915050565b6000819050602082019050919050565b610bf8816109dc565b82525050565b6000610c0a8383610bef565b60208301905092915050565b6000602082019050919050565b6000610c2e82610bc3565b610c388185610bce565b9350610c4383610bdf565b8060005b83811015610c74578151610c5b8882610bfe565b9750610c6683610c16565b925050600181019050610c47565b5085935050505092915050565b60006020820190508181036000830152610c9b8184610c23565b905092915050565b7f4e487b7100000000000000000000000000000000000000000000000000000000600052602260045260246000fd5b60006002820490506001821680610cea57607f821691505b602082108103610cfd57610cfc610ca3565b5b50919050565b7f4e487b7100000000000000000000000000000000000000000000000000000000600052603260045260246000fd5b7f4e487b7100000000000000000000000000000000000000000000000000000000600052601160045260246000fd5b6000610d6c82610959565b91507fffffffffffffffffffffffffffffffffffffffffffffffffffffffffffffffff8203610d9e57610d9d610d32565b5b60018201905091905056fea264697066735822122055441f3422eb4d326f9626df74a9238192494b85f7653653de497bf52399cb7f64736f6c634300081100336080604052633b9aca0060005534801561001857600080fd5b50604051610992380380610992833981810160405281019061003a91906100e4565b80600160006101000a81548173ffffffffffffffffffffffffffffffffffffffff021916908373ffffffffffffffffffffffffffffffffffffffff16021790555050610111565b600080fd5b600073ffffffffffffffffffffffffffffffffffffffff82169050919050565b60006100b182610086565b9050919050565b6100c1816100a6565b81146100cc57600080fd5b50565b6000815190506100de816100b8565b92915050565b6000602082840312156100fa576100f9610081565b5b6000610108848285016100cf565b91505092915050565b610872806101206000396000f3fe608060405234801561001057600080fd5b50600436106100885760003560e01c8063410d59cc1161005b578063410d59cc14610111578063564b28a01461012f578063893d20e81461014d5780639f37092a1461016b57610088565b806327346b421461008d5780633112a97b146100a95780633129e773146100c557806337df00c9146100f5575b600080fd5b6100a760048036038101906100a291906104ea565b610187565b005b6100c360048036038101906100be919061052a565b61027e565b005b6100df60048036038101906100da919061058d565b6102e4565b6040516100ec91906105c9565b60405180910390f35b61010f600480360381019061010a919061058d565b61032c565b005b610119610347565b60405161012691906106a2565b60405180910390f35b6101376103d5565b60405161014491906106d3565b60405180910390f35b6101556103de565b60405161016291906105c9565b60405180910390f35b610185600480360381019061018091906106ee565b610408565b005b60005b600280549050811015610279578273ffffffffffffffffffffffffffffffffffffffff16600282815481106101c2576101c161072e565b5b9060005260206000200160009054906101000a900473ffffffffffffffffffffffffffffffffffffffff1673ffffffffffffffffffffffffffffffffffffffff160361026657816002828154811061021d5761021c61072e565b5b9060005260206000200160006101000a81548173ffffffffffffffffffffffffffffffffffffffff021916908373ffffffffffffffffffffffffffffffffffffffff1602179055505b80806102719061078c565b91505061018a565b505050565b6002819080600181540180825580915050600190039060005260206000200160009091909190916101000a81548173ffffffffffffffffffffffffffffffffffffffff021916908373ffffffffffffffffffffffffffffffffffffffff16021790555050565b6000600282815481106102fa576102f961072e565b5b9060005260206000200160009054906101000a900473ffffffffffffffffffffffffffffffffffffffff169050919050565b8060008082825461033d91906107d4565b9250508190555050565b606060028054806020026020016040519081016040528092919081815260200182805480156103cb57602002820191906000526020600020905b8160009054906101000a900473ffffffffffffffffffffffffffffffffffffffff1673ffffffffffffffffffffffffffffffffffffffff1681526020019060010190808311610381575b5050505050905090565b60008054905090565b6000600160009054906101000a900473ffffffffffffffffffffffffffffffffffffffff16905090565b806000808282546104199190610808565b925050819055506002829080600181540180825580915050600190039060005260206000200160009091909190916101000a81548173ffffffffffffffffffffffffffffffffffffffff021916908373ffffffffffffffffffffffffffffffffffffffff1602179055505050565b600080fd5b600073ffffffffffffffffffffffffffffffffffffffff82169050919050565b60006104b78261048c565b9050919050565b6104c7816104ac565b81146104d257600080fd5b50565b6000813590506104e4816104be565b92915050565b6000806040838503121561050157610500610487565b5b600061050f858286016104d5565b9250506020610520858286016104d5565b9150509250929050565b6000602082840312156105405761053f610487565b5b600061054e848285016104d5565b91505092915050565b6000819050919050565b61056a81610557565b811461057557600080fd5b50565b60008135905061058781610561565b92915050565b6000602082840312156105a3576105a2610487565b5b60006105b184828501610578565b91505092915050565b6105c3816104ac565b82525050565b60006020820190506105de60008301846105ba565b92915050565b600081519050919050565b600082825260208201905092915050565b6000819050602082019050919050565b610619816104ac565b82525050565b600061062b8383610610565b60208301905092915050565b6000602082019050919050565b600061064f826105e4565b61065981856105ef565b935061066483610600565b8060005b8381101561069557815161067c888261061f565b975061068783610637565b925050600181019050610668565b5085935050505092915050565b600060208201905081810360008301526106bc8184610644565b905092915050565b6106cd81610557565b82525050565b60006020820190506106e860008301846106c4565b92915050565b6000806040838503121561070557610704610487565b5b6000610713858286016104d5565b925050602061072485828601610578565b9150509250929050565b7f4e487b7100000000000000000000000000000000000000000000000000000000600052603260045260246000fd5b7f4e487b7100000000000000000000000000000000000000000000000000000000600052601160045260246000fd5b600061079782610557565b91507fffffffffffffffffffffffffffffffffffffffffffffffffffffffffffffffff82036107c9576107c861075d565b5b600182019050919050565b60006107df82610557565b91506107ea83610557565b92508282019050808211156108025761080161075d565b5b92915050565b600061081382610557565b915061081e83610557565b92508282039050818111156108365761083561075d565b5b9291505056fea2646970667358221220ddb2189d9065b3211110b1266fa6718fbb1ddda5c54b1a3e0817433c73f22d4c64736f6c63430008110033a26469706673582212205028f707d1f68b3bda88b58171382403aafedf358ce2f21443456a24483d5f5664736f6c63430008110033",
  "devdoc": {
    "kind": "dev",
    "methods": {},
    "version": 1
  },
  "userdoc": {
    "kind": "user",
    "methods": {},
    "version": 1
  },
  "storageLayout": {
    "storage": [
      {
        "astId": 236,
        "contract": "contracts/GameStore.sol:GameStore",
        "label": "storeOriginalItems",
        "offset": 0,
        "slot": "0",
        "type": "t_array(t_address)dyn_storage"
      },
      {
        "astId": 239,
        "contract": "contracts/GameStore.sol:GameStore",
        "label": "storeCustomItems",
        "offset": 0,
        "slot": "1",
        "type": "t_array(t_address)dyn_storage"
      },
      {
        "astId": 243,
        "contract": "contracts/GameStore.sol:GameStore",
        "label": "Wallets",
        "offset": 0,
        "slot": "2",
        "type": "t_mapping(t_string_memory_ptr,t_address)"
      },
      {
        "astId": 247,
        "contract": "contracts/GameStore.sol:GameStore",
        "label": "listedStoreItemsToToken",
        "offset": 0,
        "slot": "3",
        "type": "t_mapping(t_address,t_uint256)"
      },
      {
        "astId": 251,
        "contract": "contracts/GameStore.sol:GameStore",
        "label": "listedUserMintedItemsToToken",
        "offset": 0,
        "slot": "4",
        "type": "t_mapping(t_address,t_uint256)"
      },
      {
        "astId": 255,
        "contract": "contracts/GameStore.sol:GameStore",
        "label": "listedUserTradeItemsToItems",
        "offset": 0,
        "slot": "5",
        "type": "t_array(t_struct(Trade)233_storage)dyn_storage"
      }
    ],
    "types": {
      "t_address": {
        "encoding": "inplace",
        "label": "address",
        "numberOfBytes": "20"
      },
      "t_array(t_address)dyn_storage": {
        "base": "t_address",
        "encoding": "dynamic_array",
        "label": "address[]",
        "numberOfBytes": "32"
      },
      "t_array(t_struct(Trade)233_storage)dyn_storage": {
        "base": "t_struct(Trade)233_storage",
        "encoding": "dynamic_array",
        "label": "struct GameStore.Trade[]",
        "numberOfBytes": "32"
      },
      "t_mapping(t_address,t_uint256)": {
        "encoding": "mapping",
        "key": "t_address",
        "label": "mapping(address => uint256)",
        "numberOfBytes": "32",
        "value": "t_uint256"
      },
      "t_mapping(t_string_memory_ptr,t_address)": {
        "encoding": "mapping",
        "key": "t_string_memory_ptr",
        "label": "mapping(string => address)",
        "numberOfBytes": "32",
        "value": "t_address"
      },
      "t_string_memory_ptr": {
        "encoding": "bytes",
        "label": "string",
        "numberOfBytes": "32"
      },
      "t_struct(Trade)233_storage": {
        "encoding": "inplace",
        "label": "struct GameStore.Trade",
        "members": [
          {
            "astId": 228,
            "contract": "contracts/GameStore.sol:GameStore",
            "label": "trader",
            "offset": 0,
            "slot": "0",
            "type": "t_address"
          },
          {
            "astId": 230,
            "contract": "contracts/GameStore.sol:GameStore",
            "label": "item",
            "offset": 0,
            "slot": "1",
            "type": "t_address"
          },
          {
            "astId": 232,
            "contract": "contracts/GameStore.sol:GameStore",
            "label": "itemNeeded",
            "offset": 0,
            "slot": "2",
            "type": "t_address"
          }
        ],
        "numberOfBytes": "96"
      },
      "t_uint256": {
        "encoding": "inplace",
        "label": "uint256",
        "numberOfBytes": "32"
      }
    }
  }
}