{
  "address": "0x9adD52fCAB53ECaC16048706F58F0164b09a5F55",
  "abi": [
    {
      "inputs": [],
      "stateMutability": "nonpayable",
      "type": "constructor"
    },
    {
      "inputs": [],
      "name": "GameStore_NotOwner",
      "type": "error"
    },
    {
      "inputs": [
        {
          "internalType": "string",
          "name": "",
          "type": "string"
        }
      ],
      "name": "Wallets",
      "outputs": [
        {
          "internalType": "address",
          "name": "",
          "type": "address"
        }
      ],
      "stateMutability": "view",
      "type": "function"
    },
    {
      "inputs": [
        {
          "internalType": "string",
          "name": "name",
          "type": "string"
        },
        {
          "internalType": "address",
          "name": "gameItem",
          "type": "address"
        }
      ],
      "name": "buyItem",
      "outputs": [],
      "stateMutability": "nonpayable",
      "type": "function"
    },
    {
      "inputs": [
        {
          "internalType": "string",
          "name": "_name",
          "type": "string"
        },
        {
          "internalType": "string",
          "name": "_typeOf",
          "type": "string"
        },
        {
          "internalType": "uint256",
          "name": "_level",
          "type": "uint256"
        },
        {
          "internalType": "uint256",
          "name": "token",
          "type": "uint256"
        }
      ],
      "name": "createItem",
      "outputs": [],
      "stateMutability": "nonpayable",
      "type": "function"
    },
    {
      "inputs": [
        {
          "internalType": "string",
          "name": "name",
          "type": "string"
        }
      ],
      "name": "createWallet",
      "outputs": [],
      "stateMutability": "nonpayable",
      "type": "function"
    },
    {
      "inputs": [
        {
          "internalType": "string",
          "name": "name",
          "type": "string"
        }
      ],
      "name": "getWallet",
      "outputs": [
        {
          "internalType": "address",
          "name": "",
          "type": "address"
        }
      ],
      "stateMutability": "view",
      "type": "function"
    },
    {
      "inputs": [
        {
          "internalType": "address",
          "name": "",
          "type": "address"
        }
      ],
      "name": "listedStoreItemsToToken",
      "outputs": [
        {
          "internalType": "uint256",
          "name": "",
          "type": "uint256"
        }
      ],
      "stateMutability": "view",
      "type": "function"
    },
    {
      "inputs": [
        {
          "internalType": "address",
          "name": "",
          "type": "address"
        }
      ],
      "name": "listedUserMintedItemsToToken",
      "outputs": [
        {
          "internalType": "uint256",
          "name": "",
          "type": "uint256"
        }
      ],
      "stateMutability": "view",
      "type": "function"
    },
    {
      "inputs": [
        {
          "internalType": "address",
          "name": "",
          "type": "address"
        }
      ],
      "name": "listedUserTradeItemsToItems",
      "outputs": [
        {
          "internalType": "address",
          "name": "",
          "type": "address"
        }
      ],
      "stateMutability": "view",
      "type": "function"
    },
    {
      "inputs": [],
      "name": "owner",
      "outputs": [
        {
          "internalType": "address",
          "name": "",
          "type": "address"
        }
      ],
      "stateMutability": "view",
      "type": "function"
    },
    {
      "inputs": [
        {
          "internalType": "uint256",
          "name": "",
          "type": "uint256"
        }
      ],
      "name": "storeOriginalItems",
      "outputs": [
        {
          "internalType": "address",
          "name": "",
          "type": "address"
        }
      ],
      "stateMutability": "view",
      "type": "function"
    }
  ],
  "transactionHash": "0x3dcd42a6fbb5a014fc75eafa82305e9e6911d593d3eb19996f35581b3f652949",
  "args": [],
  "numDeployments": 1,
  "solcInputHash": "ced40624ed8fc67600b27d75f0127248",
  "bytecode": "0x60a060405234801561001057600080fd5b503373ffffffffffffffffffffffffffffffffffffffff1660808173ffffffffffffffffffffffffffffffffffffffff1681525050608051612c39610067600039600081816102c201526105940152612c396000f3fe60806040523480156200001157600080fd5b5060043610620000ac5760003560e01c8063a4e2df66116200006f578063a4e2df661462000169578063aa5df370146200019f578063c0c6927314620001d5578063cea1706c146200020b578063de929b41146200024157620000ac565b80630e1020e814620000b15780636fc36b3814620000e75780637404f1d214620001075780638da5cb5b14620001275780639d8820c41462000149575b600080fd5b620000cf6004803603810190620000c9919062000e1c565b62000277565b604051620000de919062000eb2565b60405180910390f35b620001056004803603810190620000ff919062000f0a565b620002c0565b005b6200012560048036038101906200011f919062000e1c565b62000446565b005b6200013162000592565b60405162000140919062000eb2565b60405180910390f35b62000167600480360381019062000161919062000feb565b620005b6565b005b62000187600480360381019062000181919062000e1c565b620009c4565b60405162000196919062000eb2565b60405180910390f35b620001bd6004803603810190620001b7919062001051565b62000be7565b604051620001cc919062000eb2565b60405180910390f35b620001f36004803603810190620001ed919062001051565b62000c1a565b60405162000202919062001094565b60405180910390f35b62000229600480360381019062000223919062001051565b62000c32565b60405162000238919062001094565b60405180910390f35b6200025f6004803603810190620002599190620010b1565b62000c4a565b6040516200026e919062000eb2565b60405180910390f35b6001818051602081018201805184825260208301602085012081835280955050505050506000915054906101000a900473ffffffffffffffffffffffffffffffffffffffff1681565b7f000000000000000000000000000000000000000000000000000000000000000073ffffffffffffffffffffffffffffffffffffffff163373ffffffffffffffffffffffffffffffffffffffff161462000346576040517fb39a50da00000000000000000000000000000000000000000000000000000000815260040160405180910390fd5b6000848484604051620003599062000c8a565b6200036793929190620011bc565b604051809103906000f08015801562000384573d6000803e3d6000fd5b5090506000819080600181540180825580915050600190039060005260206000200160009091909190916101000a81548173ffffffffffffffffffffffffffffffffffffffff021916908373ffffffffffffffffffffffffffffffffffffffff1602179055506305f5e10082620003fc91906200124b565b600260008373ffffffffffffffffffffffffffffffffffffffff1673ffffffffffffffffffffffffffffffffffffffff168152602001908152602001600020819055505050505050565b600073ffffffffffffffffffffffffffffffffffffffff16600182604051620004709190620012d8565b908152602001604051809103902060009054906101000a900473ffffffffffffffffffffffffffffffffffffffff1673ffffffffffffffffffffffffffffffffffffffff1614620004f8576040517f08c379a0000000000000000000000000000000000000000000000000000000008152600401620004ef9062001341565b60405180910390fd5b33604051620005079062000c98565b62000513919062000eb2565b604051809103906000f08015801562000530573d6000803e3d6000fd5b50600182604051620005439190620012d8565b908152602001604051809103902060006101000a81548173ffffffffffffffffffffffffffffffffffffffff021916908373ffffffffffffffffffffffffffffffffffffffff16021790555050565b7f000000000000000000000000000000000000000000000000000000000000000081565b600073ffffffffffffffffffffffffffffffffffffffff16600183604051620005e09190620012d8565b908152602001604051809103902060009054906101000a900473ffffffffffffffffffffffffffffffffffffffff1673ffffffffffffffffffffffffffffffffffffffff16141580156200067457506000600260008373ffffffffffffffffffffffffffffffffffffffff1673ffffffffffffffffffffffffffffffffffffffff1681526020019081526020016000205414155b620006b6576040517f08c379a0000000000000000000000000000000000000000000000000000000008152600401620006ad90620013d9565b60405180910390fd5b6000600183604051620006ca9190620012d8565b908152602001604051809103902060009054906101000a900473ffffffffffffffffffffffffffffffffffffffff1690503373ffffffffffffffffffffffffffffffffffffffff168173ffffffffffffffffffffffffffffffffffffffff1663893d20e86040518163ffffffff1660e01b8152600401602060405180830381865afa1580156200075e573d6000803e3d6000fd5b505050506040513d601f19601f8201168201806040525081019062000784919062001412565b73ffffffffffffffffffffffffffffffffffffffff16148015620008585750600260008373ffffffffffffffffffffffffffffffffffffffff1673ffffffffffffffffffffffffffffffffffffffff168152602001908152602001600020548173ffffffffffffffffffffffffffffffffffffffff1663564b28a06040518163ffffffff1660e01b8152600401602060405180830381865afa1580156200082f573d6000803e3d6000fd5b505050506040513d601f19601f820116820180604052508101906200085591906200145b565b10155b6200089a576040517f08c379a00000000000000000000000000000000000000000000000000000000081526004016200089190620014dd565b60405180910390fd5b60008290508073ffffffffffffffffffffffffffffffffffffffff16637065cb48836040518263ffffffff1660e01b8152600401620008da919062000eb2565b600060405180830381600087803b158015620008f557600080fd5b505af11580156200090a573d6000803e3d6000fd5b505050508173ffffffffffffffffffffffffffffffffffffffff16639f37092a82600260008773ffffffffffffffffffffffffffffffffffffffff1673ffffffffffffffffffffffffffffffffffffffff168152602001908152602001600020546040518363ffffffff1660e01b81526004016200098a929190620014ff565b600060405180830381600087803b158015620009a557600080fd5b505af1158015620009ba573d6000803e3d6000fd5b5050505050505050565b60008073ffffffffffffffffffffffffffffffffffffffff16600183604051620009ef9190620012d8565b908152602001604051809103902060009054906101000a900473ffffffffffffffffffffffffffffffffffffffff1673ffffffffffffffffffffffffffffffffffffffff160362000a77576040517f08c379a000000000000000000000000000000000000000000000000000000000815260040162000a6e906200157c565b60405180910390fd5b600060018360405162000a8b9190620012d8565b908152602001604051809103902060009054906101000a900473ffffffffffffffffffffffffffffffffffffffff1690503373ffffffffffffffffffffffffffffffffffffffff168173ffffffffffffffffffffffffffffffffffffffff1663893d20e86040518163ffffffff1660e01b8152600401602060405180830381865afa15801562000b1f573d6000803e3d6000fd5b505050506040513d601f19601f8201168201806040525081019062000b45919062001412565b73ffffffffffffffffffffffffffffffffffffffff161462000b9e576040517f08c379a000000000000000000000000000000000000000000000000000000000815260040162000b9590620014dd565b60405180910390fd5b60018360405162000bb09190620012d8565b908152602001604051809103902060009054906101000a900473ffffffffffffffffffffffffffffffffffffffff16915050919050565b60046020528060005260406000206000915054906101000a900473ffffffffffffffffffffffffffffffffffffffff1681565b60026020528060005260406000206000915090505481565b60036020528060005260406000206000915090505481565b6000818154811062000c5b57600080fd5b906000526020600020016000915054906101000a900473ffffffffffffffffffffffffffffffffffffffff1681565b6110da806200159f83390190565b61058b806200267983390190565b6000604051905090565b600080fd5b600080fd5b600080fd5b600080fd5b6000601f19601f8301169050919050565b7f4e487b7100000000000000000000000000000000000000000000000000000000600052604160045260246000fd5b62000d0f8262000cc4565b810181811067ffffffffffffffff8211171562000d315762000d3062000cd5565b5b80604052505050565b600062000d4662000ca6565b905062000d54828262000d04565b919050565b600067ffffffffffffffff82111562000d775762000d7662000cd5565b5b62000d828262000cc4565b9050602081019050919050565b82818337600083830152505050565b600062000db562000daf8462000d59565b62000d3a565b90508281526020810184848401111562000dd45762000dd362000cbf565b5b62000de184828562000d8f565b509392505050565b600082601f83011262000e015762000e0062000cba565b5b813562000e1384826020860162000d9e565b91505092915050565b60006020828403121562000e355762000e3462000cb0565b5b600082013567ffffffffffffffff81111562000e565762000e5562000cb5565b5b62000e648482850162000de9565b91505092915050565b600073ffffffffffffffffffffffffffffffffffffffff82169050919050565b600062000e9a8262000e6d565b9050919050565b62000eac8162000e8d565b82525050565b600060208201905062000ec9600083018462000ea1565b92915050565b6000819050919050565b62000ee48162000ecf565b811462000ef057600080fd5b50565b60008135905062000f048162000ed9565b92915050565b6000806000806080858703121562000f275762000f2662000cb0565b5b600085013567ffffffffffffffff81111562000f485762000f4762000cb5565b5b62000f568782880162000de9565b945050602085013567ffffffffffffffff81111562000f7a5762000f7962000cb5565b5b62000f888782880162000de9565b935050604062000f9b8782880162000ef3565b925050606062000fae8782880162000ef3565b91505092959194509250565b62000fc58162000e8d565b811462000fd157600080fd5b50565b60008135905062000fe58162000fba565b92915050565b6000806040838503121562001005576200100462000cb0565b5b600083013567ffffffffffffffff81111562001026576200102562000cb5565b5b620010348582860162000de9565b9250506020620010478582860162000fd4565b9150509250929050565b6000602082840312156200106a576200106962000cb0565b5b60006200107a8482850162000fd4565b91505092915050565b6200108e8162000ecf565b82525050565b6000602082019050620010ab600083018462001083565b92915050565b600060208284031215620010ca57620010c962000cb0565b5b6000620010da8482850162000ef3565b91505092915050565b600081519050919050565b600082825260208201905092915050565b60005b838110156200111f57808201518184015260208101905062001102565b60008484015250505050565b60006200113882620010e3565b620011448185620010ee565b935062001156818560208601620010ff565b620011618162000cc4565b840191505092915050565b7f636c617373696300000000000000000000000000000000000000000000000000600082015250565b6000620011a4600783620010ee565b9150620011b1826200116c565b602082019050919050565b60006080820190508181036000830152620011d881866200112b565b90508181036020830152620011ee81856200112b565b9050620011ff604083018462001083565b8181036060830152620012128162001195565b9050949350505050565b7f4e487b7100000000000000000000000000000000000000000000000000000000600052601160045260246000fd5b6000620012588262000ecf565b9150620012658362000ecf565b9250828202620012758162000ecf565b915082820484148315176200128f576200128e6200121c565b5b5092915050565b600081905092915050565b6000620012ae82620010e3565b620012ba818562001296565b9350620012cc818560208601620010ff565b80840191505092915050565b6000620012e68284620012a1565b915081905092915050565b7f57616c6c65742065786973742121000000000000000000000000000000000000600082015250565b600062001329600e83620010ee565b91506200133682620012f1565b602082019050919050565b600060208201905081810360008301526200135c816200131a565b9050919050565b7f57616c6c6574206f722067616d65206974656d20646f6573206e6f742065786960008201527f7374212100000000000000000000000000000000000000000000000000000000602082015250565b6000620013c1602483620010ee565b9150620013ce8262001363565b604082019050919050565b60006020820190508181036000830152620013f481620013b2565b9050919050565b6000815190506200140c8162000fba565b92915050565b6000602082840312156200142b576200142a62000cb0565b5b60006200143b84828501620013fb565b91505092915050565b600081519050620014558162000ed9565b92915050565b60006020828403121562001474576200147362000cb0565b5b6000620014848482850162001444565b91505092915050565b7f57616c6c6574206973206e6f74206f776e656420627920796f75212121000000600082015250565b6000620014c5601d83620010ee565b9150620014d2826200148d565b602082019050919050565b60006020820190508181036000830152620014f881620014b6565b9050919050565b600060408201905062001516600083018562000ea1565b62001525602083018462001083565b9392505050565b7f57616c6c657420646f6573206e6f742065786973742121000000000000000000600082015250565b600062001564601783620010ee565b915062001571826200152c565b602082019050919050565b60006020820190508181036000830152620015978162001555565b905091905056fe60806040523480156200001157600080fd5b50604051620010da380380620010da83398181016040528101906200003791906200024c565b83600190816200004891906200055c565b5082600290816200005a91906200055c565b508160038190555080600490816200007391906200055c565b505050505062000643565b6000604051905090565b600080fd5b600080fd5b600080fd5b600080fd5b6000601f19601f8301169050919050565b7f4e487b7100000000000000000000000000000000000000000000000000000000600052604160045260246000fd5b620000e7826200009c565b810181811067ffffffffffffffff82111715620001095762000108620000ad565b5b80604052505050565b60006200011e6200007e565b90506200012c8282620000dc565b919050565b600067ffffffffffffffff8211156200014f576200014e620000ad565b5b6200015a826200009c565b9050602081019050919050565b60005b83811015620001875780820151818401526020810190506200016a565b60008484015250505050565b6000620001aa620001a48462000131565b62000112565b905082815260208101848484011115620001c957620001c862000097565b5b620001d684828562000167565b509392505050565b600082601f830112620001f657620001f562000092565b5b81516200020884826020860162000193565b91505092915050565b6000819050919050565b620002268162000211565b81146200023257600080fd5b50565b60008151905062000246816200021b565b92915050565b6000806000806080858703121562000269576200026862000088565b5b600085015167ffffffffffffffff8111156200028a57620002896200008d565b5b6200029887828801620001de565b945050602085015167ffffffffffffffff811115620002bc57620002bb6200008d565b5b620002ca87828801620001de565b9350506040620002dd8782880162000235565b925050606085015167ffffffffffffffff8111156200030157620003006200008d565b5b6200030f87828801620001de565b91505092959194509250565b600081519050919050565b7f4e487b7100000000000000000000000000000000000000000000000000000000600052602260045260246000fd5b600060028204905060018216806200036e57607f821691505b60208210810362000384576200038362000326565b5b50919050565b60008190508160005260206000209050919050565b60006020601f8301049050919050565b600082821b905092915050565b600060088302620003ee7fffffffffffffffffffffffffffffffffffffffffffffffffffffffffffffffff82620003af565b620003fa8683620003af565b95508019841693508086168417925050509392505050565b6000819050919050565b60006200043d62000437620004318462000211565b62000412565b62000211565b9050919050565b6000819050919050565b62000459836200041c565b62000471620004688262000444565b848454620003bc565b825550505050565b600090565b6200048862000479565b620004958184846200044e565b505050565b5b81811015620004bd57620004b16000826200047e565b6001810190506200049b565b5050565b601f8211156200050c57620004d6816200038a565b620004e1846200039f565b81016020851015620004f1578190505b6200050962000500856200039f565b8301826200049a565b50505b505050565b600082821c905092915050565b6000620005316000198460080262000511565b1980831691505092915050565b60006200054c83836200051e565b9150826002028217905092915050565b62000567826200031b565b67ffffffffffffffff811115620005835762000582620000ad565b5b6200058f825462000355565b6200059c828285620004c1565b600060209050601f831160018114620005d45760008415620005bf578287015190505b620005cb85826200053e565b8655506200063b565b601f198416620005e4866200038a565b60005b828110156200060e57848901518255600182019150602085019450602081019050620005e7565b868310156200062e57848901516200062a601f8916826200051e565b8355505b6001600288020188555050505b505050505050565b610a8780620006536000396000f3fe608060405234801561001057600080fd5b50600436106100a95760003560e01c806357fc69d51161007157806357fc69d5146101565780636fd5ae15146101745780637065cb481461019257806393ba0678146101ae578063963cb784146101ca578063a5985e8c146101e8576100a9565b8063025e7c27146100ae57806306fdde03146100de5780630d8e6e2c146100fc57806317d7de7c1461011a57806354fd4d5014610138575b600080fd5b6100c860048036038101906100c3919061074d565b610206565b6040516100d591906107bb565b60405180910390f35b6100e6610245565b6040516100f39190610866565b60405180910390f35b6101046102d3565b6040516101119190610866565b60405180910390f35b610122610365565b60405161012f9190610866565b60405180910390f35b6101406103f7565b60405161014d9190610866565b60405180910390f35b61015e610485565b60405161016b9190610866565b60405180910390f35b61017c610513565b6040516101899190610897565b60405180910390f35b6101ac60048036038101906101a791906108de565b610519565b005b6101c860048036038101906101c3919061090b565b61057f565b005b6101d2610676565b6040516101df9190610866565b60405180910390f35b6101f0610708565b6040516101fd9190610897565b60405180910390f35b6000818154811061021657600080fd5b906000526020600020016000915054906101000a900473ffffffffffffffffffffffffffffffffffffffff1681565b600180546102529061097a565b80601f016020809104026020016040519081016040528092919081815260200182805461027e9061097a565b80156102cb5780601f106102a0576101008083540402835291602001916102cb565b820191906000526020600020905b8154815290600101906020018083116102ae57829003601f168201915b505050505081565b6060600480546102e29061097a565b80601f016020809104026020016040519081016040528092919081815260200182805461030e9061097a565b801561035b5780601f106103305761010080835404028352916020019161035b565b820191906000526020600020905b81548152906001019060200180831161033e57829003601f168201915b5050505050905090565b6060600180546103749061097a565b80601f01602080910402602001604051908101604052809291908181526020018280546103a09061097a565b80156103ed5780601f106103c2576101008083540402835291602001916103ed565b820191906000526020600020905b8154815290600101906020018083116103d057829003601f168201915b5050505050905090565b600480546104049061097a565b80601f01602080910402602001604051908101604052809291908181526020018280546104309061097a565b801561047d5780601f106104525761010080835404028352916020019161047d565b820191906000526020600020905b81548152906001019060200180831161046057829003601f168201915b505050505081565b600280546104929061097a565b80601f01602080910402602001604051908101604052809291908181526020018280546104be9061097a565b801561050b5780601f106104e05761010080835404028352916020019161050b565b820191906000526020600020905b8154815290600101906020018083116104ee57829003601f168201915b505050505081565b60035481565b6000819080600181540180825580915050600190039060005260206000200160009091909190916101000a81548173ffffffffffffffffffffffffffffffffffffffff021916908373ffffffffffffffffffffffffffffffffffffffff16021790555050565b60005b600080549050811015610671578173ffffffffffffffffffffffffffffffffffffffff16600082815481106105ba576105b96109ab565b5b9060005260206000200160009054906101000a900473ffffffffffffffffffffffffffffffffffffffff1673ffffffffffffffffffffffffffffffffffffffff160361065e578260008281548110610615576106146109ab565b5b9060005260206000200160006101000a81548173ffffffffffffffffffffffffffffffffffffffff021916908373ffffffffffffffffffffffffffffffffffffffff1602179055505b808061066990610a09565b915050610582565b505050565b6060600280546106859061097a565b80601f01602080910402602001604051908101604052809291908181526020018280546106b19061097a565b80156106fe5780601f106106d3576101008083540402835291602001916106fe565b820191906000526020600020905b8154815290600101906020018083116106e157829003601f168201915b5050505050905090565b6000600354905090565b600080fd5b6000819050919050565b61072a81610717565b811461073557600080fd5b50565b60008135905061074781610721565b92915050565b60006020828403121561076357610762610712565b5b600061077184828501610738565b91505092915050565b600073ffffffffffffffffffffffffffffffffffffffff82169050919050565b60006107a58261077a565b9050919050565b6107b58161079a565b82525050565b60006020820190506107d060008301846107ac565b92915050565b600081519050919050565b600082825260208201905092915050565b60005b838110156108105780820151818401526020810190506107f5565b60008484015250505050565b6000601f19601f8301169050919050565b6000610838826107d6565b61084281856107e1565b93506108528185602086016107f2565b61085b8161081c565b840191505092915050565b60006020820190508181036000830152610880818461082d565b905092915050565b61089181610717565b82525050565b60006020820190506108ac6000830184610888565b92915050565b6108bb8161079a565b81146108c657600080fd5b50565b6000813590506108d8816108b2565b92915050565b6000602082840312156108f4576108f3610712565b5b6000610902848285016108c9565b91505092915050565b6000806040838503121561092257610921610712565b5b6000610930858286016108c9565b9250506020610941858286016108c9565b9150509250929050565b7f4e487b7100000000000000000000000000000000000000000000000000000000600052602260045260246000fd5b6000600282049050600182168061099257607f821691505b6020821081036109a5576109a461094b565b5b50919050565b7f4e487b7100000000000000000000000000000000000000000000000000000000600052603260045260246000fd5b7f4e487b7100000000000000000000000000000000000000000000000000000000600052601160045260246000fd5b6000610a1482610717565b91507fffffffffffffffffffffffffffffffffffffffffffffffffffffffffffffffff8203610a4657610a456109da565b5b60018201905091905056fea26469706673582212205159a04027f1a87ea846ef638a9482ed8577bed603148cd60d36e148c4f9bab664736f6c634300081100336080604052633b9aca0060005534801561001857600080fd5b5060405161058b38038061058b833981810160405281019061003a91906100e4565b80600160006101000a81548173ffffffffffffffffffffffffffffffffffffffff021916908373ffffffffffffffffffffffffffffffffffffffff16021790555050610111565b600080fd5b600073ffffffffffffffffffffffffffffffffffffffff82169050919050565b60006100b182610086565b9050919050565b6100c1816100a6565b81146100cc57600080fd5b50565b6000815190506100de816100b8565b92915050565b6000602082840312156100fa576100f9610081565b5b6000610108848285016100cf565b91505092915050565b61046b806101206000396000f3fe608060405234801561001057600080fd5b50600436106100575760003560e01c80633129e7731461005c57806337df00c91461008c578063564b28a0146100a8578063893d20e8146100c65780639f37092a146100e4575b600080fd5b61007660048036038101906100719190610250565b610100565b60405161008391906102be565b60405180910390f35b6100a660048036038101906100a19190610250565b610148565b005b6100b0610163565b6040516100bd91906102e8565b60405180910390f35b6100ce61016c565b6040516100db91906102be565b60405180910390f35b6100fe60048036038101906100f9919061032f565b610196565b005b6000600282815481106101165761011561036f565b5b9060005260206000200160009054906101000a900473ffffffffffffffffffffffffffffffffffffffff169050919050565b8060008082825461015991906103cd565b9250508190555050565b60008054905090565b6000600160009054906101000a900473ffffffffffffffffffffffffffffffffffffffff16905090565b806000808282546101a79190610401565b925050819055506002829080600181540180825580915050600190039060005260206000200160009091909190916101000a81548173ffffffffffffffffffffffffffffffffffffffff021916908373ffffffffffffffffffffffffffffffffffffffff1602179055505050565b600080fd5b6000819050919050565b61022d8161021a565b811461023857600080fd5b50565b60008135905061024a81610224565b92915050565b60006020828403121561026657610265610215565b5b60006102748482850161023b565b91505092915050565b600073ffffffffffffffffffffffffffffffffffffffff82169050919050565b60006102a88261027d565b9050919050565b6102b88161029d565b82525050565b60006020820190506102d360008301846102af565b92915050565b6102e28161021a565b82525050565b60006020820190506102fd60008301846102d9565b92915050565b61030c8161029d565b811461031757600080fd5b50565b60008135905061032981610303565b92915050565b6000806040838503121561034657610345610215565b5b60006103548582860161031a565b92505060206103658582860161023b565b9150509250929050565b7f4e487b7100000000000000000000000000000000000000000000000000000000600052603260045260246000fd5b7f4e487b7100000000000000000000000000000000000000000000000000000000600052601160045260246000fd5b60006103d88261021a565b91506103e38361021a565b92508282019050808211156103fb576103fa61039e565b5b92915050565b600061040c8261021a565b91506104178361021a565b925082820390508181111561042f5761042e61039e565b5b9291505056fea2646970667358221220c062d972ab48de8fb367cb16ed2fa6673078e9a0edb49eedc0f002ce315ff80364736f6c63430008110033a2646970667358221220d0d9f9a7ec7d378fabec2482d21fe82fa7cf91f4673d20a16b2ecfddff1b006164736f6c63430008110033",
  "devdoc": {
    "kind": "dev",
    "methods": {},
    "version": 1
  },
  "userdoc": {
    "kind": "user",
    "methods": {},
    "version": 1
  },
  "storageLayout": {
    "storage": [
      {
        "astId": 176,
        "contract": "contracts/GameStore.sol:GameStore",
        "label": "storeOriginalItems",
        "offset": 0,
        "slot": "0",
        "type": "t_array(t_address)dyn_storage"
      },
      {
        "astId": 180,
        "contract": "contracts/GameStore.sol:GameStore",
        "label": "Wallets",
        "offset": 0,
        "slot": "1",
        "type": "t_mapping(t_string_memory_ptr,t_address)"
      },
      {
        "astId": 184,
        "contract": "contracts/GameStore.sol:GameStore",
        "label": "listedStoreItemsToToken",
        "offset": 0,
        "slot": "2",
        "type": "t_mapping(t_address,t_uint256)"
      },
      {
        "astId": 188,
        "contract": "contracts/GameStore.sol:GameStore",
        "label": "listedUserMintedItemsToToken",
        "offset": 0,
        "slot": "3",
        "type": "t_mapping(t_address,t_uint256)"
      },
      {
        "astId": 192,
        "contract": "contracts/GameStore.sol:GameStore",
        "label": "listedUserTradeItemsToItems",
        "offset": 0,
        "slot": "4",
        "type": "t_mapping(t_address,t_address)"
      }
    ],
    "types": {
      "t_address": {
        "encoding": "inplace",
        "label": "address",
        "numberOfBytes": "20"
      },
      "t_array(t_address)dyn_storage": {
        "base": "t_address",
        "encoding": "dynamic_array",
        "label": "address[]",
        "numberOfBytes": "32"
      },
      "t_mapping(t_address,t_address)": {
        "encoding": "mapping",
        "key": "t_address",
        "label": "mapping(address => address)",
        "numberOfBytes": "32",
        "value": "t_address"
      },
      "t_mapping(t_address,t_uint256)": {
        "encoding": "mapping",
        "key": "t_address",
        "label": "mapping(address => uint256)",
        "numberOfBytes": "32",
        "value": "t_uint256"
      },
      "t_mapping(t_string_memory_ptr,t_address)": {
        "encoding": "mapping",
        "key": "t_string_memory_ptr",
        "label": "mapping(string => address)",
        "numberOfBytes": "32",
        "value": "t_address"
      },
      "t_string_memory_ptr": {
        "encoding": "bytes",
        "label": "string",
        "numberOfBytes": "32"
      },
      "t_uint256": {
        "encoding": "inplace",
        "label": "uint256",
        "numberOfBytes": "32"
      }
    }
  }
}