{
  "address": "0x592A49de0a13533Ea8761e8311cE4b38111F69d9",
  "abi": [
    {
      "inputs": [],
      "stateMutability": "nonpayable",
      "type": "constructor"
    },
    {
      "inputs": [],
      "name": "GameStore_NotOwner",
      "type": "error"
    },
    {
      "inputs": [
        {
          "internalType": "string",
          "name": "",
          "type": "string"
        }
      ],
      "name": "Wallets",
      "outputs": [
        {
          "internalType": "address",
          "name": "",
          "type": "address"
        }
      ],
      "stateMutability": "view",
      "type": "function"
    },
    {
      "inputs": [
        {
          "internalType": "string",
          "name": "name",
          "type": "string"
        },
        {
          "internalType": "address",
          "name": "gameItem",
          "type": "address"
        }
      ],
      "name": "buyItem",
      "outputs": [],
      "stateMutability": "nonpayable",
      "type": "function"
    },
    {
      "inputs": [
        {
          "internalType": "string",
          "name": "walletName",
          "type": "string"
        },
        {
          "internalType": "string",
          "name": "_name",
          "type": "string"
        },
        {
          "internalType": "string",
          "name": "_typeOf",
          "type": "string"
        },
        {
          "internalType": "uint256",
          "name": "_level",
          "type": "uint256"
        }
      ],
      "name": "createCustomItems",
      "outputs": [],
      "stateMutability": "nonpayable",
      "type": "function"
    },
    {
      "inputs": [
        {
          "internalType": "string",
          "name": "_name",
          "type": "string"
        },
        {
          "internalType": "string",
          "name": "_typeOf",
          "type": "string"
        },
        {
          "internalType": "uint256",
          "name": "_level",
          "type": "uint256"
        },
        {
          "internalType": "uint256",
          "name": "token",
          "type": "uint256"
        }
      ],
      "name": "createItem",
      "outputs": [],
      "stateMutability": "nonpayable",
      "type": "function"
    },
    {
      "inputs": [
        {
          "internalType": "string",
          "name": "name",
          "type": "string"
        }
      ],
      "name": "createWallet",
      "outputs": [],
      "stateMutability": "nonpayable",
      "type": "function"
    },
    {
      "inputs": [
        {
          "internalType": "string",
          "name": "name",
          "type": "string"
        }
      ],
      "name": "getWallet",
      "outputs": [
        {
          "internalType": "address",
          "name": "",
          "type": "address"
        }
      ],
      "stateMutability": "view",
      "type": "function"
    },
    {
      "inputs": [
        {
          "internalType": "address",
          "name": "",
          "type": "address"
        }
      ],
      "name": "listedStoreItemsToToken",
      "outputs": [
        {
          "internalType": "uint256",
          "name": "",
          "type": "uint256"
        }
      ],
      "stateMutability": "view",
      "type": "function"
    },
    {
      "inputs": [
        {
          "internalType": "address",
          "name": "",
          "type": "address"
        }
      ],
      "name": "listedUserMintedItemsToToken",
      "outputs": [
        {
          "internalType": "uint256",
          "name": "",
          "type": "uint256"
        }
      ],
      "stateMutability": "view",
      "type": "function"
    },
    {
      "inputs": [
        {
          "internalType": "address",
          "name": "",
          "type": "address"
        }
      ],
      "name": "listedUserTradeItemsToItems",
      "outputs": [
        {
          "internalType": "address",
          "name": "",
          "type": "address"
        }
      ],
      "stateMutability": "view",
      "type": "function"
    },
    {
      "inputs": [],
      "name": "owner",
      "outputs": [
        {
          "internalType": "address",
          "name": "",
          "type": "address"
        }
      ],
      "stateMutability": "view",
      "type": "function"
    },
    {
      "inputs": [
        {
          "internalType": "uint256",
          "name": "",
          "type": "uint256"
        }
      ],
      "name": "storeOriginalItems",
      "outputs": [
        {
          "internalType": "address",
          "name": "",
          "type": "address"
        }
      ],
      "stateMutability": "view",
      "type": "function"
    }
  ],
  "transactionHash": "0x6a2698a213b3645714119ef6de251cedcf63bf4af12c6854d59209c4744513a9",
  "args": [],
  "numDeployments": 2,
  "solcInputHash": "ca9cebffa14dd2e0517ed180f179ba22",
  "bytecode": "0x60a060405234801561001057600080fd5b503373ffffffffffffffffffffffffffffffffffffffff1660808173ffffffffffffffffffffffffffffffffffffffff168152505060805161319e610067600039600081816102ee01526105c0015261319e6000f3fe60806040523480156200001157600080fd5b5060043610620000b85760003560e01c8063a4e2df66116200007b578063a4e2df661462000175578063aa5df37014620001ab578063c0c6927314620001e1578063cea1706c1462000217578063de929b41146200024d578063fa01593f146200028357620000b8565b80630e1020e814620000bd5780636fc36b3814620000f35780637404f1d214620001135780638da5cb5b14620001335780639d8820c41462000155575b600080fd5b620000db6004803603810190620000d5919062001148565b620002a3565b604051620000ea9190620011de565b60405180910390f35b6200011160048036038101906200010b919062001236565b620002ec565b005b6200013160048036038101906200012b919062001148565b62000472565b005b6200013d620005be565b6040516200014c9190620011de565b60405180910390f35b6200017360048036038101906200016d919062001317565b620005e2565b005b6200019360048036038101906200018d919062001148565b620009f0565b604051620001a29190620011de565b60405180910390f35b620001c96004803603810190620001c391906200137d565b62000c13565b604051620001d89190620011de565b60405180910390f35b620001ff6004803603810190620001f991906200137d565b62000c46565b6040516200020e9190620013c0565b60405180910390f35b6200023560048036038101906200022f91906200137d565b62000c5e565b604051620002449190620013c0565b60405180910390f35b6200026b6004803603810190620002659190620013dd565b62000c76565b6040516200027a9190620011de565b60405180910390f35b620002a160048036038101906200029b91906200140f565b62000cb6565b005b6001818051602081018201805184825260208301602085012081835280955050505050506000915054906101000a900473ffffffffffffffffffffffffffffffffffffffff1681565b7f000000000000000000000000000000000000000000000000000000000000000073ffffffffffffffffffffffffffffffffffffffff163373ffffffffffffffffffffffffffffffffffffffff161462000372576040517fb39a50da00000000000000000000000000000000000000000000000000000000815260040160405180910390fd5b6000848484604051620003859062000fb6565b6200039393929190620015b7565b604051809103906000f080158015620003b0573d6000803e3d6000fd5b5090506000819080600181540180825580915050600190039060005260206000200160009091909190916101000a81548173ffffffffffffffffffffffffffffffffffffffff021916908373ffffffffffffffffffffffffffffffffffffffff1602179055506305f5e1008262000428919062001646565b600260008373ffffffffffffffffffffffffffffffffffffffff1673ffffffffffffffffffffffffffffffffffffffff168152602001908152602001600020819055505050505050565b600073ffffffffffffffffffffffffffffffffffffffff166001826040516200049c9190620016d3565b908152602001604051809103902060009054906101000a900473ffffffffffffffffffffffffffffffffffffffff1673ffffffffffffffffffffffffffffffffffffffff161462000524576040517f08c379a00000000000000000000000000000000000000000000000000000000081526004016200051b906200173c565b60405180910390fd5b33604051620005339062000fc4565b6200053f9190620011de565b604051809103906000f0801580156200055c573d6000803e3d6000fd5b506001826040516200056f9190620016d3565b908152602001604051809103902060006101000a81548173ffffffffffffffffffffffffffffffffffffffff021916908373ffffffffffffffffffffffffffffffffffffffff16021790555050565b7f000000000000000000000000000000000000000000000000000000000000000081565b600073ffffffffffffffffffffffffffffffffffffffff166001836040516200060c9190620016d3565b908152602001604051809103902060009054906101000a900473ffffffffffffffffffffffffffffffffffffffff1673ffffffffffffffffffffffffffffffffffffffff1614158015620006a057506000600260008373ffffffffffffffffffffffffffffffffffffffff1673ffffffffffffffffffffffffffffffffffffffff1681526020019081526020016000205414155b620006e2576040517f08c379a0000000000000000000000000000000000000000000000000000000008152600401620006d990620017d4565b60405180910390fd5b6000600183604051620006f69190620016d3565b908152602001604051809103902060009054906101000a900473ffffffffffffffffffffffffffffffffffffffff1690503373ffffffffffffffffffffffffffffffffffffffff168173ffffffffffffffffffffffffffffffffffffffff1663893d20e86040518163ffffffff1660e01b8152600401602060405180830381865afa1580156200078a573d6000803e3d6000fd5b505050506040513d601f19601f82011682018060405250810190620007b091906200180d565b73ffffffffffffffffffffffffffffffffffffffff16148015620008845750600260008373ffffffffffffffffffffffffffffffffffffffff1673ffffffffffffffffffffffffffffffffffffffff168152602001908152602001600020548173ffffffffffffffffffffffffffffffffffffffff1663564b28a06040518163ffffffff1660e01b8152600401602060405180830381865afa1580156200085b573d6000803e3d6000fd5b505050506040513d601f19601f8201168201806040525081019062000881919062001856565b10155b620008c6576040517f08c379a0000000000000000000000000000000000000000000000000000000008152600401620008bd90620018d8565b60405180910390fd5b60008290508073ffffffffffffffffffffffffffffffffffffffff16637065cb48836040518263ffffffff1660e01b8152600401620009069190620011de565b600060405180830381600087803b1580156200092157600080fd5b505af115801562000936573d6000803e3d6000fd5b505050508173ffffffffffffffffffffffffffffffffffffffff16639f37092a82600260008773ffffffffffffffffffffffffffffffffffffffff1673ffffffffffffffffffffffffffffffffffffffff168152602001908152602001600020546040518363ffffffff1660e01b8152600401620009b6929190620018fa565b600060405180830381600087803b158015620009d157600080fd5b505af1158015620009e6573d6000803e3d6000fd5b5050505050505050565b60008073ffffffffffffffffffffffffffffffffffffffff1660018360405162000a1b9190620016d3565b908152602001604051809103902060009054906101000a900473ffffffffffffffffffffffffffffffffffffffff1673ffffffffffffffffffffffffffffffffffffffff160362000aa3576040517f08c379a000000000000000000000000000000000000000000000000000000000815260040162000a9a9062001977565b60405180910390fd5b600060018360405162000ab79190620016d3565b908152602001604051809103902060009054906101000a900473ffffffffffffffffffffffffffffffffffffffff1690503373ffffffffffffffffffffffffffffffffffffffff168173ffffffffffffffffffffffffffffffffffffffff1663893d20e86040518163ffffffff1660e01b8152600401602060405180830381865afa15801562000b4b573d6000803e3d6000fd5b505050506040513d601f19601f8201168201806040525081019062000b7191906200180d565b73ffffffffffffffffffffffffffffffffffffffff161462000bca576040517f08c379a000000000000000000000000000000000000000000000000000000000815260040162000bc190620018d8565b60405180910390fd5b60018360405162000bdc9190620016d3565b908152602001604051809103902060009054906101000a900473ffffffffffffffffffffffffffffffffffffffff16915050919050565b60046020528060005260406000206000915054906101000a900473ffffffffffffffffffffffffffffffffffffffff1681565b60026020528060005260406000206000915090505481565b60036020528060005260406000206000915090505481565b6000818154811062000c8757600080fd5b906000526020600020016000915054906101000a900473ffffffffffffffffffffffffffffffffffffffff1681565b600073ffffffffffffffffffffffffffffffffffffffff1660018560405162000ce09190620016d3565b908152602001604051809103902060009054906101000a900473ffffffffffffffffffffffffffffffffffffffff1673ffffffffffffffffffffffffffffffffffffffff160362000d68576040517f08c379a000000000000000000000000000000000000000000000000000000000815260040162000d5f90620017d4565b60405180910390fd5b600060018560405162000d7c9190620016d3565b908152602001604051809103902060009054906101000a900473ffffffffffffffffffffffffffffffffffffffff1690503373ffffffffffffffffffffffffffffffffffffffff168173ffffffffffffffffffffffffffffffffffffffff1663893d20e86040518163ffffffff1660e01b8152600401602060405180830381865afa15801562000e10573d6000803e3d6000fd5b505050506040513d601f19601f8201168201806040525081019062000e3691906200180d565b73ffffffffffffffffffffffffffffffffffffffff161462000e8f576040517f08c379a000000000000000000000000000000000000000000000000000000000815260040162000e8690620018d8565b60405180910390fd5b600084848460405162000ea29062000fb6565b62000eb093929190620019e9565b604051809103906000f08015801562000ecd573d6000803e3d6000fd5b5090508073ffffffffffffffffffffffffffffffffffffffff16637065cb48836040518263ffffffff1660e01b815260040162000f0b9190620011de565b600060405180830381600087803b15801562000f2657600080fd5b505af115801562000f3b573d6000803e3d6000fd5b505050508173ffffffffffffffffffffffffffffffffffffffff16633112a97b826040518263ffffffff1660e01b815260040162000f7a9190620011de565b600060405180830381600087803b15801562000f9557600080fd5b505af115801562000faa573d6000803e3d6000fd5b50505050505050505050565b6110da8062001a4a83390190565b6106458062002b2483390190565b6000604051905090565b600080fd5b600080fd5b600080fd5b600080fd5b6000601f19601f8301169050919050565b7f4e487b7100000000000000000000000000000000000000000000000000000000600052604160045260246000fd5b6200103b8262000ff0565b810181811067ffffffffffffffff821117156200105d576200105c62001001565b5b80604052505050565b60006200107262000fd2565b905062001080828262001030565b919050565b600067ffffffffffffffff821115620010a357620010a262001001565b5b620010ae8262000ff0565b9050602081019050919050565b82818337600083830152505050565b6000620010e1620010db8462001085565b62001066565b9050828152602081018484840111156200110057620010ff62000feb565b5b6200110d848285620010bb565b509392505050565b600082601f8301126200112d576200112c62000fe6565b5b81356200113f848260208601620010ca565b91505092915050565b60006020828403121562001161576200116062000fdc565b5b600082013567ffffffffffffffff81111562001182576200118162000fe1565b5b620011908482850162001115565b91505092915050565b600073ffffffffffffffffffffffffffffffffffffffff82169050919050565b6000620011c68262001199565b9050919050565b620011d881620011b9565b82525050565b6000602082019050620011f56000830184620011cd565b92915050565b6000819050919050565b6200121081620011fb565b81146200121c57600080fd5b50565b600081359050620012308162001205565b92915050565b6000806000806080858703121562001253576200125262000fdc565b5b600085013567ffffffffffffffff81111562001274576200127362000fe1565b5b620012828782880162001115565b945050602085013567ffffffffffffffff811115620012a657620012a562000fe1565b5b620012b48782880162001115565b9350506040620012c7878288016200121f565b9250506060620012da878288016200121f565b91505092959194509250565b620012f181620011b9565b8114620012fd57600080fd5b50565b6000813590506200131181620012e6565b92915050565b6000806040838503121562001331576200133062000fdc565b5b600083013567ffffffffffffffff81111562001352576200135162000fe1565b5b620013608582860162001115565b9250506020620013738582860162001300565b9150509250929050565b60006020828403121562001396576200139562000fdc565b5b6000620013a68482850162001300565b91505092915050565b620013ba81620011fb565b82525050565b6000602082019050620013d76000830184620013af565b92915050565b600060208284031215620013f657620013f562000fdc565b5b600062001406848285016200121f565b91505092915050565b600080600080608085870312156200142c576200142b62000fdc565b5b600085013567ffffffffffffffff8111156200144d576200144c62000fe1565b5b6200145b8782880162001115565b945050602085013567ffffffffffffffff8111156200147f576200147e62000fe1565b5b6200148d8782880162001115565b935050604085013567ffffffffffffffff811115620014b157620014b062000fe1565b5b620014bf8782880162001115565b9250506060620014d2878288016200121f565b91505092959194509250565b600081519050919050565b600082825260208201905092915050565b60005b838110156200151a578082015181840152602081019050620014fd565b60008484015250505050565b60006200153382620014de565b6200153f8185620014e9565b935062001551818560208601620014fa565b6200155c8162000ff0565b840191505092915050565b7f636c617373696300000000000000000000000000000000000000000000000000600082015250565b60006200159f600783620014e9565b9150620015ac8262001567565b602082019050919050565b60006080820190508181036000830152620015d3818662001526565b90508181036020830152620015e9818562001526565b9050620015fa6040830184620013af565b81810360608301526200160d8162001590565b9050949350505050565b7f4e487b7100000000000000000000000000000000000000000000000000000000600052601160045260246000fd5b60006200165382620011fb565b91506200166083620011fb565b92508282026200167081620011fb565b915082820484148315176200168a576200168962001617565b5b5092915050565b600081905092915050565b6000620016a982620014de565b620016b5818562001691565b9350620016c7818560208601620014fa565b80840191505092915050565b6000620016e182846200169c565b915081905092915050565b7f57616c6c65742065786973742121000000000000000000000000000000000000600082015250565b600062001724600e83620014e9565b91506200173182620016ec565b602082019050919050565b60006020820190508181036000830152620017578162001715565b9050919050565b7f57616c6c6574206f722067616d65206974656d20646f6573206e6f742065786960008201527f7374212100000000000000000000000000000000000000000000000000000000602082015250565b6000620017bc602483620014e9565b9150620017c9826200175e565b604082019050919050565b60006020820190508181036000830152620017ef81620017ad565b9050919050565b6000815190506200180781620012e6565b92915050565b60006020828403121562001826576200182562000fdc565b5b60006200183684828501620017f6565b91505092915050565b600081519050620018508162001205565b92915050565b6000602082840312156200186f576200186e62000fdc565b5b60006200187f848285016200183f565b91505092915050565b7f57616c6c6574206973206e6f74206f776e656420627920796f75212121000000600082015250565b6000620018c0601d83620014e9565b9150620018cd8262001888565b602082019050919050565b60006020820190508181036000830152620018f381620018b1565b9050919050565b6000604082019050620019116000830185620011cd565b620019206020830184620013af565b9392505050565b7f57616c6c657420646f6573206e6f742065786973742121000000000000000000600082015250565b60006200195f601783620014e9565b91506200196c8262001927565b602082019050919050565b60006020820190508181036000830152620019928162001950565b9050919050565b7f63757374726f6d00000000000000000000000000000000000000000000000000600082015250565b6000620019d1600783620014e9565b9150620019de8262001999565b602082019050919050565b6000608082019050818103600083015262001a05818662001526565b9050818103602083015262001a1b818562001526565b905062001a2c6040830184620013af565b818103606083015262001a3f81620019c2565b905094935050505056fe60806040523480156200001157600080fd5b50604051620010da380380620010da83398181016040528101906200003791906200024c565b83600190816200004891906200055c565b5082600290816200005a91906200055c565b508160038190555080600490816200007391906200055c565b505050505062000643565b6000604051905090565b600080fd5b600080fd5b600080fd5b600080fd5b6000601f19601f8301169050919050565b7f4e487b7100000000000000000000000000000000000000000000000000000000600052604160045260246000fd5b620000e7826200009c565b810181811067ffffffffffffffff82111715620001095762000108620000ad565b5b80604052505050565b60006200011e6200007e565b90506200012c8282620000dc565b919050565b600067ffffffffffffffff8211156200014f576200014e620000ad565b5b6200015a826200009c565b9050602081019050919050565b60005b83811015620001875780820151818401526020810190506200016a565b60008484015250505050565b6000620001aa620001a48462000131565b62000112565b905082815260208101848484011115620001c957620001c862000097565b5b620001d684828562000167565b509392505050565b600082601f830112620001f657620001f562000092565b5b81516200020884826020860162000193565b91505092915050565b6000819050919050565b620002268162000211565b81146200023257600080fd5b50565b60008151905062000246816200021b565b92915050565b6000806000806080858703121562000269576200026862000088565b5b600085015167ffffffffffffffff8111156200028a57620002896200008d565b5b6200029887828801620001de565b945050602085015167ffffffffffffffff811115620002bc57620002bb6200008d565b5b620002ca87828801620001de565b9350506040620002dd8782880162000235565b925050606085015167ffffffffffffffff8111156200030157620003006200008d565b5b6200030f87828801620001de565b91505092959194509250565b600081519050919050565b7f4e487b7100000000000000000000000000000000000000000000000000000000600052602260045260246000fd5b600060028204905060018216806200036e57607f821691505b60208210810362000384576200038362000326565b5b50919050565b60008190508160005260206000209050919050565b60006020601f8301049050919050565b600082821b905092915050565b600060088302620003ee7fffffffffffffffffffffffffffffffffffffffffffffffffffffffffffffffff82620003af565b620003fa8683620003af565b95508019841693508086168417925050509392505050565b6000819050919050565b60006200043d62000437620004318462000211565b62000412565b62000211565b9050919050565b6000819050919050565b62000459836200041c565b62000471620004688262000444565b848454620003bc565b825550505050565b600090565b6200048862000479565b620004958184846200044e565b505050565b5b81811015620004bd57620004b16000826200047e565b6001810190506200049b565b5050565b601f8211156200050c57620004d6816200038a565b620004e1846200039f565b81016020851015620004f1578190505b6200050962000500856200039f565b8301826200049a565b50505b505050565b600082821c905092915050565b6000620005316000198460080262000511565b1980831691505092915050565b60006200054c83836200051e565b9150826002028217905092915050565b62000567826200031b565b67ffffffffffffffff811115620005835762000582620000ad565b5b6200058f825462000355565b6200059c828285620004c1565b600060209050601f831160018114620005d45760008415620005bf578287015190505b620005cb85826200053e565b8655506200063b565b601f198416620005e4866200038a565b60005b828110156200060e57848901518255600182019150602085019450602081019050620005e7565b868310156200062e57848901516200062a601f8916826200051e565b8355505b6001600288020188555050505b505050505050565b610a8780620006536000396000f3fe608060405234801561001057600080fd5b50600436106100a95760003560e01c806357fc69d51161007157806357fc69d5146101565780636fd5ae15146101745780637065cb481461019257806393ba0678146101ae578063963cb784146101ca578063a5985e8c146101e8576100a9565b8063025e7c27146100ae57806306fdde03146100de5780630d8e6e2c146100fc57806317d7de7c1461011a57806354fd4d5014610138575b600080fd5b6100c860048036038101906100c3919061074d565b610206565b6040516100d591906107bb565b60405180910390f35b6100e6610245565b6040516100f39190610866565b60405180910390f35b6101046102d3565b6040516101119190610866565b60405180910390f35b610122610365565b60405161012f9190610866565b60405180910390f35b6101406103f7565b60405161014d9190610866565b60405180910390f35b61015e610485565b60405161016b9190610866565b60405180910390f35b61017c610513565b6040516101899190610897565b60405180910390f35b6101ac60048036038101906101a791906108de565b610519565b005b6101c860048036038101906101c3919061090b565b61057f565b005b6101d2610676565b6040516101df9190610866565b60405180910390f35b6101f0610708565b6040516101fd9190610897565b60405180910390f35b6000818154811061021657600080fd5b906000526020600020016000915054906101000a900473ffffffffffffffffffffffffffffffffffffffff1681565b600180546102529061097a565b80601f016020809104026020016040519081016040528092919081815260200182805461027e9061097a565b80156102cb5780601f106102a0576101008083540402835291602001916102cb565b820191906000526020600020905b8154815290600101906020018083116102ae57829003601f168201915b505050505081565b6060600480546102e29061097a565b80601f016020809104026020016040519081016040528092919081815260200182805461030e9061097a565b801561035b5780601f106103305761010080835404028352916020019161035b565b820191906000526020600020905b81548152906001019060200180831161033e57829003601f168201915b5050505050905090565b6060600180546103749061097a565b80601f01602080910402602001604051908101604052809291908181526020018280546103a09061097a565b80156103ed5780601f106103c2576101008083540402835291602001916103ed565b820191906000526020600020905b8154815290600101906020018083116103d057829003601f168201915b5050505050905090565b600480546104049061097a565b80601f01602080910402602001604051908101604052809291908181526020018280546104309061097a565b801561047d5780601f106104525761010080835404028352916020019161047d565b820191906000526020600020905b81548152906001019060200180831161046057829003601f168201915b505050505081565b600280546104929061097a565b80601f01602080910402602001604051908101604052809291908181526020018280546104be9061097a565b801561050b5780601f106104e05761010080835404028352916020019161050b565b820191906000526020600020905b8154815290600101906020018083116104ee57829003601f168201915b505050505081565b60035481565b6000819080600181540180825580915050600190039060005260206000200160009091909190916101000a81548173ffffffffffffffffffffffffffffffffffffffff021916908373ffffffffffffffffffffffffffffffffffffffff16021790555050565b60005b600080549050811015610671578173ffffffffffffffffffffffffffffffffffffffff16600082815481106105ba576105b96109ab565b5b9060005260206000200160009054906101000a900473ffffffffffffffffffffffffffffffffffffffff1673ffffffffffffffffffffffffffffffffffffffff160361065e578260008281548110610615576106146109ab565b5b9060005260206000200160006101000a81548173ffffffffffffffffffffffffffffffffffffffff021916908373ffffffffffffffffffffffffffffffffffffffff1602179055505b808061066990610a09565b915050610582565b505050565b6060600280546106859061097a565b80601f01602080910402602001604051908101604052809291908181526020018280546106b19061097a565b80156106fe5780601f106106d3576101008083540402835291602001916106fe565b820191906000526020600020905b8154815290600101906020018083116106e157829003601f168201915b5050505050905090565b6000600354905090565b600080fd5b6000819050919050565b61072a81610717565b811461073557600080fd5b50565b60008135905061074781610721565b92915050565b60006020828403121561076357610762610712565b5b600061077184828501610738565b91505092915050565b600073ffffffffffffffffffffffffffffffffffffffff82169050919050565b60006107a58261077a565b9050919050565b6107b58161079a565b82525050565b60006020820190506107d060008301846107ac565b92915050565b600081519050919050565b600082825260208201905092915050565b60005b838110156108105780820151818401526020810190506107f5565b60008484015250505050565b6000601f19601f8301169050919050565b6000610838826107d6565b61084281856107e1565b93506108528185602086016107f2565b61085b8161081c565b840191505092915050565b60006020820190508181036000830152610880818461082d565b905092915050565b61089181610717565b82525050565b60006020820190506108ac6000830184610888565b92915050565b6108bb8161079a565b81146108c657600080fd5b50565b6000813590506108d8816108b2565b92915050565b6000602082840312156108f4576108f3610712565b5b6000610902848285016108c9565b91505092915050565b6000806040838503121561092257610921610712565b5b6000610930858286016108c9565b9250506020610941858286016108c9565b9150509250929050565b7f4e487b7100000000000000000000000000000000000000000000000000000000600052602260045260246000fd5b6000600282049050600182168061099257607f821691505b6020821081036109a5576109a461094b565b5b50919050565b7f4e487b7100000000000000000000000000000000000000000000000000000000600052603260045260246000fd5b7f4e487b7100000000000000000000000000000000000000000000000000000000600052601160045260246000fd5b6000610a1482610717565b91507fffffffffffffffffffffffffffffffffffffffffffffffffffffffffffffffff8203610a4657610a456109da565b5b60018201905091905056fea26469706673582212205159a04027f1a87ea846ef638a9482ed8577bed603148cd60d36e148c4f9bab664736f6c634300081100336080604052633b9aca0060005534801561001857600080fd5b50604051610645380380610645833981810160405281019061003a91906100e4565b80600160006101000a81548173ffffffffffffffffffffffffffffffffffffffff021916908373ffffffffffffffffffffffffffffffffffffffff16021790555050610111565b600080fd5b600073ffffffffffffffffffffffffffffffffffffffff82169050919050565b60006100b182610086565b9050919050565b6100c1816100a6565b81146100cc57600080fd5b50565b6000815190506100de816100b8565b92915050565b6000602082840312156100fa576100f9610081565b5b6000610108848285016100cf565b91505092915050565b610525806101206000396000f3fe608060405234801561001057600080fd5b50600436106100625760003560e01c80633112a97b146100675780633129e7731461008357806337df00c9146100b3578063564b28a0146100cf578063893d20e8146100ed5780639f37092a1461010b575b600080fd5b610081600480360381019061007c9190610305565b610127565b005b61009d60048036038101906100989190610368565b61018d565b6040516100aa91906103a4565b60405180910390f35b6100cd60048036038101906100c89190610368565b6101d5565b005b6100d76101f0565b6040516100e491906103ce565b60405180910390f35b6100f56101f9565b60405161010291906103a4565b60405180910390f35b610125600480360381019061012091906103e9565b610223565b005b6002819080600181540180825580915050600190039060005260206000200160009091909190916101000a81548173ffffffffffffffffffffffffffffffffffffffff021916908373ffffffffffffffffffffffffffffffffffffffff16021790555050565b6000600282815481106101a3576101a2610429565b5b9060005260206000200160009054906101000a900473ffffffffffffffffffffffffffffffffffffffff169050919050565b806000808282546101e69190610487565b9250508190555050565b60008054905090565b6000600160009054906101000a900473ffffffffffffffffffffffffffffffffffffffff16905090565b8060008082825461023491906104bb565b925050819055506002829080600181540180825580915050600190039060005260206000200160009091909190916101000a81548173ffffffffffffffffffffffffffffffffffffffff021916908373ffffffffffffffffffffffffffffffffffffffff1602179055505050565b600080fd5b600073ffffffffffffffffffffffffffffffffffffffff82169050919050565b60006102d2826102a7565b9050919050565b6102e2816102c7565b81146102ed57600080fd5b50565b6000813590506102ff816102d9565b92915050565b60006020828403121561031b5761031a6102a2565b5b6000610329848285016102f0565b91505092915050565b6000819050919050565b61034581610332565b811461035057600080fd5b50565b6000813590506103628161033c565b92915050565b60006020828403121561037e5761037d6102a2565b5b600061038c84828501610353565b91505092915050565b61039e816102c7565b82525050565b60006020820190506103b96000830184610395565b92915050565b6103c881610332565b82525050565b60006020820190506103e360008301846103bf565b92915050565b60008060408385031215610400576103ff6102a2565b5b600061040e858286016102f0565b925050602061041f85828601610353565b9150509250929050565b7f4e487b7100000000000000000000000000000000000000000000000000000000600052603260045260246000fd5b7f4e487b7100000000000000000000000000000000000000000000000000000000600052601160045260246000fd5b600061049282610332565b915061049d83610332565b92508282019050808211156104b5576104b4610458565b5b92915050565b60006104c682610332565b91506104d183610332565b92508282039050818111156104e9576104e8610458565b5b9291505056fea26469706673582212209a66e979d67a8193b366a527b142afcbb4063d67e1548e7ca1b22f98c722897964736f6c63430008110033a264697066735822122045a68e30a51c77a7562b53959a1b07ff1daeb38a35c8c088560da68f15554ad064736f6c63430008110033",
  "devdoc": {
    "kind": "dev",
    "methods": {},
    "version": 1
  },
  "userdoc": {
    "kind": "user",
    "methods": {},
    "version": 1
  },
  "storageLayout": {
    "storage": [
      {
        "astId": 130,
        "contract": "contracts/GameStore.sol:GameStore",
        "label": "storeOriginalItems",
        "offset": 0,
        "slot": "0",
        "type": "t_array(t_address)dyn_storage"
      },
      {
        "astId": 134,
        "contract": "contracts/GameStore.sol:GameStore",
        "label": "Wallets",
        "offset": 0,
        "slot": "1",
        "type": "t_mapping(t_string_memory_ptr,t_address)"
      },
      {
        "astId": 138,
        "contract": "contracts/GameStore.sol:GameStore",
        "label": "listedStoreItemsToToken",
        "offset": 0,
        "slot": "2",
        "type": "t_mapping(t_address,t_uint256)"
      },
      {
        "astId": 142,
        "contract": "contracts/GameStore.sol:GameStore",
        "label": "listedUserMintedItemsToToken",
        "offset": 0,
        "slot": "3",
        "type": "t_mapping(t_address,t_uint256)"
      },
      {
        "astId": 146,
        "contract": "contracts/GameStore.sol:GameStore",
        "label": "listedUserTradeItemsToItems",
        "offset": 0,
        "slot": "4",
        "type": "t_mapping(t_address,t_address)"
      }
    ],
    "types": {
      "t_address": {
        "encoding": "inplace",
        "label": "address",
        "numberOfBytes": "20"
      },
      "t_array(t_address)dyn_storage": {
        "base": "t_address",
        "encoding": "dynamic_array",
        "label": "address[]",
        "numberOfBytes": "32"
      },
      "t_mapping(t_address,t_address)": {
        "encoding": "mapping",
        "key": "t_address",
        "label": "mapping(address => address)",
        "numberOfBytes": "32",
        "value": "t_address"
      },
      "t_mapping(t_address,t_uint256)": {
        "encoding": "mapping",
        "key": "t_address",
        "label": "mapping(address => uint256)",
        "numberOfBytes": "32",
        "value": "t_uint256"
      },
      "t_mapping(t_string_memory_ptr,t_address)": {
        "encoding": "mapping",
        "key": "t_string_memory_ptr",
        "label": "mapping(string => address)",
        "numberOfBytes": "32",
        "value": "t_address"
      },
      "t_string_memory_ptr": {
        "encoding": "bytes",
        "label": "string",
        "numberOfBytes": "32"
      },
      "t_uint256": {
        "encoding": "inplace",
        "label": "uint256",
        "numberOfBytes": "32"
      }
    }
  }
}