{
  "address": "0x3aD7B00A163f0B54a48402661b3ee79fEbeab383",
  "abi": [
    {
      "inputs": [],
      "stateMutability": "nonpayable",
      "type": "constructor"
    },
    {
      "inputs": [],
      "name": "availableToken",
      "outputs": [
        {
          "internalType": "uint256",
          "name": "",
          "type": "uint256"
        }
      ],
      "stateMutability": "view",
      "type": "function"
    },
    {
      "inputs": [
        {
          "internalType": "uint256",
          "name": "index",
          "type": "uint256"
        }
      ],
      "name": "getItem",
      "outputs": [
        {
          "internalType": "address",
          "name": "",
          "type": "address"
        }
      ],
      "stateMutability": "view",
      "type": "function"
    },
    {
      "inputs": [],
      "name": "getOwner",
      "outputs": [
        {
          "internalType": "address",
          "name": "",
          "type": "address"
        }
      ],
      "stateMutability": "view",
      "type": "function"
    },
    {
      "inputs": [
        {
          "internalType": "uint256",
          "name": "tokens",
          "type": "uint256"
        }
      ],
      "name": "receiveToken",
      "outputs": [],
      "stateMutability": "nonpayable",
      "type": "function"
    }
  ],
  "transactionHash": "0xfbfd6ed6700689a5eeda7ae1821ebe901f7df7501b63a4e0a7546257bacc7f8e",
  "args": [],
  "numDeployments": 1,
  "solcInputHash": "b1e7580a3ff44886fd7636044a8540e5",
  "bytecode": "0x6080604052633b9aca0060005534801561001857600080fd5b5033600160006101000a81548173ffffffffffffffffffffffffffffffffffffffff021916908373ffffffffffffffffffffffffffffffffffffffff160217905550610325806100696000396000f3fe608060405234801561001057600080fd5b506004361061004c5760003560e01c80633129e7731461005157806337df00c914610081578063564b28a01461009d578063893d20e8146100bb575b600080fd5b61006b600480360381019061006691906101aa565b6100d9565b6040516100789190610218565b60405180910390f35b61009b600480360381019061009691906101aa565b610121565b005b6100a561013c565b6040516100b29190610242565b60405180910390f35b6100c3610145565b6040516100d09190610218565b60405180910390f35b6000600282815481106100ef576100ee61025d565b5b9060005260206000200160009054906101000a900473ffffffffffffffffffffffffffffffffffffffff169050919050565b8060008082825461013291906102bb565b9250508190555050565b60008054905090565b6000600160009054906101000a900473ffffffffffffffffffffffffffffffffffffffff16905090565b600080fd5b6000819050919050565b61018781610174565b811461019257600080fd5b50565b6000813590506101a48161017e565b92915050565b6000602082840312156101c0576101bf61016f565b5b60006101ce84828501610195565b91505092915050565b600073ffffffffffffffffffffffffffffffffffffffff82169050919050565b6000610202826101d7565b9050919050565b610212816101f7565b82525050565b600060208201905061022d6000830184610209565b92915050565b61023c81610174565b82525050565b60006020820190506102576000830184610233565b92915050565b7f4e487b7100000000000000000000000000000000000000000000000000000000600052603260045260246000fd5b7f4e487b7100000000000000000000000000000000000000000000000000000000600052601160045260246000fd5b60006102c682610174565b91506102d183610174565b92508282019050808211156102e9576102e861028c565b5b9291505056fea2646970667358221220e537fd849a9fad96e38432928d5846413bda3e451649333e78feee72d6c5f9c364736f6c63430008110033",
  "devdoc": {
    "kind": "dev",
    "methods": {},
    "version": 1
  },
  "userdoc": {
    "kind": "user",
    "methods": {},
    "version": 1
  },
  "storageLayout": {
    "storage": [
      {
        "astId": 247,
        "contract": "contracts/Wallet.sol:Wallet",
        "label": "gameToken",
        "offset": 0,
        "slot": "0",
        "type": "t_uint256"
      },
      {
        "astId": 252,
        "contract": "contracts/Wallet.sol:Wallet",
        "label": "owner",
        "offset": 0,
        "slot": "1",
        "type": "t_address"
      },
      {
        "astId": 255,
        "contract": "contracts/Wallet.sol:Wallet",
        "label": "ownedItems",
        "offset": 0,
        "slot": "2",
        "type": "t_array(t_address)dyn_storage"
      }
    ],
    "types": {
      "t_address": {
        "encoding": "inplace",
        "label": "address",
        "numberOfBytes": "20"
      },
      "t_array(t_address)dyn_storage": {
        "base": "t_address",
        "encoding": "dynamic_array",
        "label": "address[]",
        "numberOfBytes": "32"
      },
      "t_uint256": {
        "encoding": "inplace",
        "label": "uint256",
        "numberOfBytes": "32"
      }
    }
  }
}